{
  "contractName": "DecentralizedShipment",
  "abi": [
    {
      "anonymous": false,
      "inputs": [
        {
          "indexed": false,
          "name": "order_id",
          "type": "uint256"
        },
        {
          "indexed": false,
          "name": "status",
          "type": "uint8"
        }
      ],
      "name": "order_status_update",
      "type": "event",
      "signature": "0x58d97c9a7f506d49829d9f53a5aad430cff9d6ea208dddd9a7cf01ef5eccbc40"
    },
    {
      "anonymous": false,
      "inputs": [
        {
          "indexed": false,
          "name": "order_id",
          "type": "uint256"
        },
        {
          "indexed": false,
          "name": "is_damaged",
          "type": "bool"
        }
      ],
      "name": "order_damaged_update",
      "type": "event",
      "signature": "0x4d1dfc4c7b9c7e23f54ab77d9e2ef3aaba23e31b5ad0e9f616a9d5e6b53c17dc"
    },
    {
      "constant": true,
      "inputs": [
        {
          "name": "item",
          "type": "uint256"
        },
        {
          "name": "seller_id",
          "type": "uint256"
        }
      ],
      "name": "product_exists",
      "outputs": [
        {
          "name": "",
          "type": "bool"
        }
      ],
      "payable": false,
      "stateMutability": "view",
      "type": "function",
      "signature": "0x85d0c229"
    },
    {
      "constant": true,
      "inputs": [],
      "name": "get_id",
      "outputs": [
        {
          "name": "",
          "type": "uint256"
        }
      ],
      "payable": false,
      "stateMutability": "view",
      "type": "function",
      "signature": "0xf43fa805"
    },
    {
      "constant": false,
      "inputs": [],
      "name": "register_customer",
      "outputs": [
        {
          "name": "",
          "type": "bool"
        }
      ],
      "payable": false,
      "stateMutability": "nonpayable",
      "type": "function",
      "signature": "0x16212cde"
    },
    {
      "constant": false,
      "inputs": [
        {
          "name": "products",
          "type": "uint256[]"
        },
        {
          "name": "seller_id",
          "type": "uint256"
        }
      ],
      "name": "give_order",
      "outputs": [
        {
          "name": "",
          "type": "bool"
        }
      ],
      "payable": true,
      "stateMutability": "payable",
      "type": "function",
      "signature": "0x517db08b"
    },
    {
      "constant": true,
      "inputs": [
        {
          "name": "order_id",
          "type": "uint256"
        },
        {
          "name": "seller_id",
          "type": "uint256"
        }
      ],
      "name": "check_order_status_customer",
      "outputs": [
        {
          "name": "",
          "type": "uint256"
        },
        {
          "name": "",
          "type": "uint256"
        }
      ],
      "payable": false,
      "stateMutability": "view",
      "type": "function",
      "signature": "0xce59b43c"
    },
    {
      "constant": false,
      "inputs": [
        {
          "name": "order_id",
          "type": "uint256"
        }
      ],
      "name": "cancel_order",
      "outputs": [
        {
          "name": "",
          "type": "uint8"
        }
      ],
      "payable": false,
      "stateMutability": "nonpayable",
      "type": "function",
      "signature": "0xb6bd2ee2"
    },
    {
      "constant": false,
      "inputs": [
        {
          "name": "order_id",
          "type": "uint256"
        }
      ],
      "name": "receive_order",
      "outputs": [
        {
          "name": "",
          "type": "uint8"
        }
      ],
      "payable": false,
      "stateMutability": "nonpayable",
      "type": "function",
      "signature": "0xb20a9aa9"
    },
    {
      "constant": false,
      "inputs": [],
      "name": "register_seller",
      "outputs": [
        {
          "name": "",
          "type": "bool"
        }
      ],
      "payable": false,
      "stateMutability": "nonpayable",
      "type": "function",
      "signature": "0xea4c715b"
    },
    {
      "constant": false,
      "inputs": [
        {
          "name": "order_id",
          "type": "uint256"
        }
      ],
      "name": "transfer_order_to_shipment",
      "outputs": [
        {
          "name": "",
          "type": "uint8"
        }
      ],
      "payable": true,
      "stateMutability": "payable",
      "type": "function",
      "signature": "0x49f29717"
    },
    {
      "constant": true,
      "inputs": [
        {
          "name": "order_id",
          "type": "uint256"
        },
        {
          "name": "seller_id",
          "type": "uint256"
        }
      ],
      "name": "check_order_status_seller",
      "outputs": [
        {
          "name": "",
          "type": "uint256"
        },
        {
          "name": "",
          "type": "uint256"
        }
      ],
      "payable": false,
      "stateMutability": "view",
      "type": "function",
      "signature": "0x2f41dd6f"
    },
    {
      "constant": false,
      "inputs": [],
      "name": "register_shipment",
      "outputs": [
        {
          "name": "",
          "type": "bool"
        }
      ],
      "payable": false,
      "stateMutability": "nonpayable",
      "type": "function",
      "signature": "0xc29d28eb"
    },
    {
      "constant": false,
      "inputs": [
        {
          "name": "order_id",
          "type": "uint256"
        },
        {
          "name": "is_damaged",
          "type": "bool"
        }
      ],
      "name": "update_status_to_ofd",
      "outputs": [
        {
          "name": "",
          "type": "bool"
        }
      ],
      "payable": false,
      "stateMutability": "nonpayable",
      "type": "function",
      "signature": "0x5ac5d614"
    },
    {
      "constant": false,
      "inputs": [
        {
          "name": "order_id",
          "type": "uint256"
        },
        {
          "name": "is_damaged",
          "type": "bool"
        }
      ],
      "name": "update_status_to_received",
      "outputs": [
        {
          "name": "",
          "type": "bool"
        }
      ],
      "payable": false,
      "stateMutability": "nonpayable",
      "type": "function",
      "signature": "0x43dd615a"
    },
    {
      "constant": false,
      "inputs": [
        {
          "name": "order_id",
          "type": "uint256"
        },
        {
          "name": "is_damaged",
          "type": "bool"
        }
      ],
      "name": "update_status_to_cancelled",
      "outputs": [
        {
          "name": "",
          "type": "bool"
        }
      ],
      "payable": false,
      "stateMutability": "nonpayable",
      "type": "function",
      "signature": "0xba28d5d4"
    },
    {
      "constant": true,
      "inputs": [
        {
          "name": "order_id",
          "type": "uint256"
        },
        {
          "name": "seller_id",
          "type": "uint256"
        }
      ],
      "name": "check_order_status_shipment",
      "outputs": [
        {
          "name": "",
          "type": "uint256"
        },
        {
          "name": "",
          "type": "uint256"
        }
      ],
      "payable": false,
      "stateMutability": "view",
      "type": "function",
      "signature": "0xcae8f5ce"
    }
  ],
  "bytecode": "0x6080604052600160005560056001556000600255600060035560006004556000600555600560065534801561003357600080fd5b506143e5806100436000396000f3fe6080604052600436106100db576000357c0100000000000000000000000000000000000000000000000000000000900463ffffffff16806316212cde146100e05780632f41dd6f1461010f57806343dd615a1461016f57806349f29717146101ce578063517db08b1461021e5780635ac5d614146102f857806385d0c22914610357578063b20a9aa9146103b4578063b6bd2ee214610411578063ba28d5d41461046e578063c29d28eb146104cd578063cae8f5ce146104fc578063ce59b43c1461055c578063ea4c715b146105bc578063f43fa805146105eb575b600080fd5b3480156100ec57600080fd5b506100f5610616565b604051808215151515815260200191505060405180910390f35b34801561011b57600080fd5b506101526004803603604081101561013257600080fd5b810190808035906020019092919080359060200190929190505050610797565b604051808381526020018281526020019250505060405180910390f35b34801561017b57600080fd5b506101b46004803603604081101561019257600080fd5b8101908080359060200190929190803515159060200190929190505050610f14565b604051808215151515815260200191505060405180910390f35b6101fa600480360360208110156101e457600080fd5b810190808035906020019092919050505061133a565b6040518082600481111561020a57fe5b60ff16815260200191505060405180910390f35b6102de6004803603604081101561023457600080fd5b810190808035906020019064010000000081111561025157600080fd5b82018360208201111561026357600080fd5b8035906020019184602083028401116401000000008311171561028557600080fd5b919080806020026020016040519081016040528093929190818152602001838360200280828437600081840152601f19601f82011690508083019250505050505050919291929080359060200190929190505050611674565b604051808215151515815260200191505060405180910390f35b34801561030457600080fd5b5061033d6004803603604081101561031b57600080fd5b8101908080359060200190929190803515159060200190929190505050611b0e565b604051808215151515815260200191505060405180910390f35b34801561036357600080fd5b5061039a6004803603604081101561037a57600080fd5b810190808035906020019092919080359060200190929190505050611f34565b604051808215151515815260200191505060405180910390f35b3480156103c057600080fd5b506103ed600480360360208110156103d757600080fd5b8101908080359060200190929190505050611fb5565b604051808260048111156103fd57fe5b60ff16815260200191505060405180910390f35b34801561041d57600080fd5b5061044a6004803603602081101561043457600080fd5b8101908080359060200190929190505050612502565b6040518082600481111561045a57fe5b60ff16815260200191505060405180910390f35b34801561047a57600080fd5b506104b36004803603604081101561049157600080fd5b8101908080359060200190929190803515159060200190929190505050612a75565b604051808215151515815260200191505060405180910390f35b3480156104d957600080fd5b506104e2612e9b565b604051808215151515815260200191505060405180910390f35b34801561050857600080fd5b5061053f6004803603604081101561051f57600080fd5b810190808035906020019092919080359060200190929190505050613012565b604051808381526020018281526020019250505060405180910390f35b34801561056857600080fd5b5061059f6004803603604081101561057f57600080fd5b81019080803590602001909291908035906020019092919050505061378f565b604051808381526020018281526020019250505060405180910390f35b3480156105c857600080fd5b506105d1613f0c565b604051808215151515815260200191505060405180910390f35b3480156105f757600080fd5b50610600614171565b6040518082815260200191505060405180910390f35b600080600d60003373ffffffffffffffffffffffffffffffffffffffff1673ffffffffffffffffffffffffffffffffffffffff168152602001908152602001600020541415156106ce576040517f08c379a000000000000000000000000000000000000000000000000000000000815260040180806020018281038252601b8152602001807f437573746f6d657220616c72656164792072656769737465726564000000000081525060200191505060405180910390fd5b600460008154809291906001019190505550600060076000600454815260200190815260200160002090506004548160000181905550600081600101819055508060076000836000015481526020019081526020016000206000820154816000015560018201548160010155600282015481600201559050508060000154600d60003373ffffffffffffffffffffffffffffffffffffffff1673ffffffffffffffffffffffffffffffffffffffff16815260200190815260200160002081905550600191505090565b6000806000600b60003373ffffffffffffffffffffffffffffffffffffffff1673ffffffffffffffffffffffffffffffffffffffff16815260200190815260200160002054111515610877576040517f08c379a00000000000000000000000000000000000000000000000000000000081526004018080602001828103825260258152602001807f596f75206172656e27742072656769737465726564206173206120726573746181526020017f7572616e7400000000000000000000000000000000000000000000000000000081525060400191505060405180910390fd5b600060076000600d60003373ffffffffffffffffffffffffffffffffffffffff1673ffffffffffffffffffffffffffffffffffffffff1681526020019081526020016000205481526020019081526020016000206001015414151515610945576040517f08c379a00000000000000000000000000000000000000000000000000000000081526004018080602001828103825260208152602001807f596f7520646f6e2774206861766520616e7920616374697665206f726465727381525060200191505060405180910390fd5b60035483111515156109bf576040517f08c379a00000000000000000000000000000000000000000000000000000000081526004018080602001828103825260148152602001807f53656c6c657220646f65736e277420657869737400000000000000000000000081525060200191505060405180910390fd5b6005548411151515610a39576040517f08c379a00000000000000000000000000000000000000000000000000000000081526004018080602001828103825260138152602001807f4f7264657220646f65736e27742065786973740000000000000000000000000081525060200191505060405180910390fd5b60006004811115610a4657fe5b600a600086815260200190815260200160002060060160009054906101000a900460ff166004811115610a7557fe5b148015610aa9575060011515600a600086815260200190815260200160002060060160019054906101000a900460ff161515145b15610ac1576000600181915080905091509150610f0d565b60006004811115610ace57fe5b600a600086815260200190815260200160002060060160009054906101000a900460ff166004811115610afd57fe5b148015610b31575060001515600a600086815260200190815260200160002060060160019054906101000a900460ff161515145b15610b485760008081915080905091509150610f0d565b60016004811115610b5557fe5b600a600086815260200190815260200160002060060160009054906101000a900460ff166004811115610b8457fe5b148015610bb8575060011515600a600086815260200190815260200160002060060160019054906101000a900460ff161515145b15610bcf5760018081915080905091509150610f0d565b60016004811115610bdc57fe5b600a600086815260200190815260200160002060060160009054906101000a900460ff166004811115610c0b57fe5b148015610c3f575060001515600a600086815260200190815260200160002060060160019054906101000a900460ff161515145b15610c57576001600081915080905091509150610f0d565b60026004811115610c6457fe5b600a600086815260200190815260200160002060060160009054906101000a900460ff166004811115610c9357fe5b148015610cc7575060011515600a600086815260200190815260200160002060060160019054906101000a900460ff161515145b15610cdf576002600181915080905091509150610f0d565b60026004811115610cec57fe5b600a600086815260200190815260200160002060060160009054906101000a900460ff166004811115610d1b57fe5b148015610d4f575060001515600a600086815260200190815260200160002060060160019054906101000a900460ff161515145b15610d67576002600081915080905091509150610f0d565b60036004811115610d7457fe5b600a600086815260200190815260200160002060060160009054906101000a900460ff166004811115610da357fe5b148015610dd7575060011515600a600086815260200190815260200160002060060160019054906101000a900460ff161515145b15610def576003600181915080905091509150610f0d565b60036004811115610dfc57fe5b600a600086815260200190815260200160002060060160009054906101000a900460ff166004811115610e2b57fe5b148015610e5f575060001515600a600086815260200190815260200160002060060160019054906101000a900460ff161515145b15610e77576003600081915080905091509150610f0d565b600480811115610e8357fe5b600a600086815260200190815260200160002060060160009054906101000a900460ff166004811115610eb257fe5b148015610ee6575060011515600a600086815260200190815260200160002060060160019054906101000a900460ff161515145b15610efe576004600181915080905091509150610f0d565b60046000819150809050915091505b9250929050565b600080600c60003373ffffffffffffffffffffffffffffffffffffffff1673ffffffffffffffffffffffffffffffffffffffff16815260200190815260200160002054111515610ff2576040517f08c379a00000000000000000000000000000000000000000000000000000000081526004018080602001828103825260228152602001807f596f75206172656e27742072656769737465726564206173206120636f75726981526020017f657200000000000000000000000000000000000000000000000000000000000081525060400191505060405180910390fd5b600554831115151561106c576040517f08c379a00000000000000000000000000000000000000000000000000000000081526004018080602001828103825260138152602001807f4f7264657220646f65736e27742065786973740000000000000000000000000081525060200191505060405180910390fd5b6001600481111561107957fe5b600a600085815260200190815260200160002060060160009054906101000a900460ff1660048111156110a857fe5b14151561111d576040517f08c379a00000000000000000000000000000000000000000000000000000000081526004018080602001828103825260178152602001807f4f72646572206973206e6f74206f6e207468652077617900000000000000000081525060200191505060405180910390fd5b6003600a600085815260200190815260200160002060060160006101000a81548160ff0219169083600481111561115057fe5b021790555081600a600085815260200190815260200160002060060160016101000a81548160ff021916908315150217905550600a60006005548152602001908152602001600020600a60008581526020019081526020016000206000820154816000015560018201816001019080546111cb9291906142f5565b50600282015481600201556003820154816003015560048201548160040155600582015481600501556006820160009054906101000a900460ff168160060160006101000a81548160ff0219169083600481111561122557fe5b02179055506006820160019054906101000a900460ff168160060160016101000a81548160ff0219169083151502179055509050507f58d97c9a7f506d49829d9f53a5aad430cff9d6ea208dddd9a7cf01ef5eccbc4083600a600086815260200190815260200160002060060160009054906101000a900460ff16604051808381526020018260048111156112b657fe5b60ff1681526020019250505060405180910390a17f4d1dfc4c7b9c7e23f54ab77d9e2ef3aaba23e31b5ad0e9f616a9d5e6b53c17dc83600a600086815260200190815260200160002060060160019054906101000a900460ff1660405180838152602001821515151581526020019250505060405180910390a16001905092915050565b600080600b60003373ffffffffffffffffffffffffffffffffffffffff1673ffffffffffffffffffffffffffffffffffffffff16815260200190815260200160002054111515611418576040517f08c379a00000000000000000000000000000000000000000000000000000000081526004018080602001828103825260258152602001807f596f75206172656e27742072656769737465726564206173206120726573746181526020017f7572616e7400000000000000000000000000000000000000000000000000000081525060400191505060405180910390fd5b600060076000600d60003373ffffffffffffffffffffffffffffffffffffffff1673ffffffffffffffffffffffffffffffffffffffff16815260200190815260200160002054815260200190815260200160002060010154141515156114e6576040517f08c379a00000000000000000000000000000000000000000000000000000000081526004018080602001828103825260208152602001807f596f7520646f6e2774206861766520616e7920616374697665206f726465727381525060200191505060405180910390fd5b6005548211151515611560576040517f08c379a00000000000000000000000000000000000000000000000000000000081526004018080602001828103825260138152602001807f4f7264657220646f65736e27742065786973740000000000000000000000000081525060200191505060405180910390fd5b6000600481111561156d57fe5b600a600084815260200190815260200160002060060160009054906101000a900460ff16600481111561159c57fe5b141515611611576040517f08c379a00000000000000000000000000000000000000000000000000000000081526004018080602001828103825260158152602001807f4f72646572206973206e6f74207072657061726564000000000000000000000081525060200191505060405180910390fd5b6001600a600084815260200190815260200160002060060160006101000a81548160ff0219169083600481111561164457fe5b0217905550600a600083815260200190815260200160002060060160009054906101000a900460ff169050919050565b600080600d60003373ffffffffffffffffffffffffffffffffffffffff1673ffffffffffffffffffffffffffffffffffffffff16815260200190815260200160002054111515611752576040517f08c379a00000000000000000000000000000000000000000000000000000000081526004018080602001828103825260238152602001807f596f75206172656e27742072656769737465726564206173206120637573746f81526020017f6d6572000000000000000000000000000000000000000000000000000000000081525060400191505060405180910390fd5b60035482111515156117cc576040517f08c379a00000000000000000000000000000000000000000000000000000000081526004018080602001828103825260148152602001807f53656c6c657220646f65736e277420657869737400000000000000000000000081525060200191505060405180910390fd5b600060076000600d60003373ffffffffffffffffffffffffffffffffffffffff1673ffffffffffffffffffffffffffffffffffffffff16815260200190815260200160002054815260200190815260200160002060010154141515611899576040517f08c379a00000000000000000000000000000000000000000000000000000000081526004018080602001828103825260138152602001807f416c726561647920676976656e206f726465720000000000000000000000000081525060200191505060405180910390fd5b60008090505b835181101561195157600115156118cd85838151811015156118bd57fe5b9060200190602002015185611f34565b1515141515611944576040517f08c379a00000000000000000000000000000000000000000000000000000000081526004018080602001828103825260128152602001807f4974656d20646f65736e2774206578697374000000000000000000000000000081525060200191505060405180910390fd5b808060010191505061189f565b6005600081548092919060010191905055506000600a60006005548152602001908152602001600020905060055481600001819055508481600101908051906020019061199f929190614347565b50600154855102816002018190555060008160060160006101000a81548160ff021916908360048111156119cf57fe5b0217905550838160030181905550600d60003373ffffffffffffffffffffffffffffffffffffffff1673ffffffffffffffffffffffffffffffffffffffff16815260200190815260200160002054816005018190555060008160060160016101000a81548160ff021916908315150217905550806000015460076000600d60003373ffffffffffffffffffffffffffffffffffffffff1673ffffffffffffffffffffffffffffffffffffffff168152602001908152602001600020548152602001908152602001600020600101819055507f58d97c9a7f506d49829d9f53a5aad430cff9d6ea208dddd9a7cf01ef5eccbc4081600001548260060160009054906101000a900460ff1660405180838152602001826004811115611aee57fe5b60ff1681526020019250505060405180910390a160019250505092915050565b600080600c60003373ffffffffffffffffffffffffffffffffffffffff1673ffffffffffffffffffffffffffffffffffffffff16815260200190815260200160002054111515611bec576040517f08c379a00000000000000000000000000000000000000000000000000000000081526004018080602001828103825260228152602001807f596f75206172656e27742072656769737465726564206173206120636f75726981526020017f657200000000000000000000000000000000000000000000000000000000000081525060400191505060405180910390fd5b6005548311151515611c66576040517f08c379a00000000000000000000000000000000000000000000000000000000081526004018080602001828103825260138152602001807f4f7264657220646f65736e27742065786973740000000000000000000000000081525060200191505060405180910390fd5b60016004811115611c7357fe5b600a600085815260200190815260200160002060060160009054906101000a900460ff166004811115611ca257fe5b141515611d17576040517f08c379a00000000000000000000000000000000000000000000000000000000081526004018080602001828103825260178152602001807f4f72646572206973206e6f74206f6e207468652077617900000000000000000081525060200191505060405180910390fd5b6002600a600085815260200190815260200160002060060160006101000a81548160ff02191690836004811115611d4a57fe5b021790555081600a600085815260200190815260200160002060060160016101000a81548160ff021916908315150217905550600a60006005548152602001908152602001600020600a6000858152602001908152602001600020600082015481600001556001820181600101908054611dc59291906142f5565b50600282015481600201556003820154816003015560048201548160040155600582015481600501556006820160009054906101000a900460ff168160060160006101000a81548160ff02191690836004811115611e1f57fe5b02179055506006820160019054906101000a900460ff168160060160016101000a81548160ff0219169083151502179055509050507f58d97c9a7f506d49829d9f53a5aad430cff9d6ea208dddd9a7cf01ef5eccbc4083600a600086815260200190815260200160002060060160009054906101000a900460ff1660405180838152602001826004811115611eb057fe5b60ff1681526020019250505060405180910390a17f4d1dfc4c7b9c7e23f54ab77d9e2ef3aaba23e31b5ad0e9f616a9d5e6b53c17dc83600a600086815260200190815260200160002060060160019054906101000a900460ff1660405180838152602001821515151581526020019250505060405180910390a16001905092915050565b600080600090505b6008600084815260200190815260200160002060010180549050811015611fa957836008600085815260200190815260200160002060010182815481101515611f8157fe5b90600052602060002001541415611f9c576001915050611faf565b8080600101915050611f3c565b60009150505b92915050565b600080600d60003373ffffffffffffffffffffffffffffffffffffffff1673ffffffffffffffffffffffffffffffffffffffff16815260200190815260200160002054111515612093576040517f08c379a00000000000000000000000000000000000000000000000000000000081526004018080602001828103825260238152602001807f596f75206172656e27742072656769737465726564206173206120637573746f81526020017f6d6572000000000000000000000000000000000000000000000000000000000081525060400191505060405180910390fd5b600060076000600d60003373ffffffffffffffffffffffffffffffffffffffff1673ffffffffffffffffffffffffffffffffffffffff1681526020019081526020016000205481526020019081526020016000206001015414151515612161576040517f08c379a00000000000000000000000000000000000000000000000000000000081526004018080602001828103825260208152602001807f596f7520646f6e2774206861766520616e7920616374697665206f726465727381525060200191505060405180910390fd5b60055482111515156121db576040517f08c379a00000000000000000000000000000000000000000000000000000000081526004018080602001828103825260138152602001807f4f7264657220646f65736e27742065786973740000000000000000000000000081525060200191505060405180910390fd5b600260048111156121e857fe5b600a600084815260200190815260200160002060060160009054906101000a900460ff16600481111561221757fe5b14151561228c576040517f08c379a000000000000000000000000000000000000000000000000000000000815260040180806020018281038252601d8152602001807f4f72646572206973206e6f74206f757420666f722064656c697665727900000081525060200191505060405180910390fd5b600d60003373ffffffffffffffffffffffffffffffffffffffff1673ffffffffffffffffffffffffffffffffffffffff16815260200190815260200160002054600a600084815260200190815260200160002060050154141515612358576040517f08c379a00000000000000000000000000000000000000000000000000000000081526004018080602001828103825260198152602001807f596f7520646f6e277420686176652074686973206f726465720000000000000081525060200191505060405180910390fd5b6003600a600084815260200190815260200160002060060160006101000a81548160ff0219169083600481111561238b57fe5b0217905550600a60006005548152602001908152602001600020600a60008481526020019081526020016000206000820154816000015560018201816001019080546123d89291906142f5565b50600282015481600201556003820154816003015560048201548160040155600582015481600501556006820160009054906101000a900460ff168160060160006101000a81548160ff0219169083600481111561243257fe5b02179055506006820160019054906101000a900460ff168160060160016101000a81548160ff0219169083151502179055509050507f58d97c9a7f506d49829d9f53a5aad430cff9d6ea208dddd9a7cf01ef5eccbc4082600a600085815260200190815260200160002060060160009054906101000a900460ff16604051808381526020018260048111156124c357fe5b60ff1681526020019250505060405180910390a1600a600083815260200190815260200160002060060160009054906101000a900460ff169050919050565b600080600d60003373ffffffffffffffffffffffffffffffffffffffff1673ffffffffffffffffffffffffffffffffffffffff168152602001908152602001600020541115156125e0576040517f08c379a00000000000000000000000000000000000000000000000000000000081526004018080602001828103825260238152602001807f596f75206172656e27742072656769737465726564206173206120637573746f81526020017f6d6572000000000000000000000000000000000000000000000000000000000081525060400191505060405180910390fd5b600060076000600d60003373ffffffffffffffffffffffffffffffffffffffff1673ffffffffffffffffffffffffffffffffffffffff16815260200190815260200160002054815260200190815260200160002060010154141515156126ae576040517f08c379a00000000000000000000000000000000000000000000000000000000081526004018080602001828103825260208152602001807f596f7520646f6e2774206861766520616e7920616374697665206f726465727381525060200191505060405180910390fd5b6005548211151515612728576040517f08c379a00000000000000000000000000000000000000000000000000000000081526004018080602001828103825260138152602001807f4f7264657220646f65736e27742065786973740000000000000000000000000081525060200191505060405180910390fd5b600d60003373ffffffffffffffffffffffffffffffffffffffff1673ffffffffffffffffffffffffffffffffffffffff16815260200190815260200160002054600a6000848152602001908152602001600020600501541415156127f4576040517f08c379a00000000000000000000000000000000000000000000000000000000081526004018080602001828103825260198152602001807f596f7520646f6e277420686176652074686973206f726465720000000000000081525060200191505060405180910390fd5b60048081111561280057fe5b600a600084815260200190815260200160002060060160009054906101000a900460ff16600481111561282f57fe5b141515156128cb576040517f08c379a00000000000000000000000000000000000000000000000000000000081526004018080602001828103825260238152602001807f596f75206861766520616c72656164792063616e63656c2074686973206f726481526020017f657221000000000000000000000000000000000000000000000000000000000081525060400191505060405180910390fd5b6004600a600084815260200190815260200160002060060160006101000a81548160ff021916908360048111156128fe57fe5b0217905550600a60006005548152602001908152602001600020600a600084815260200190815260200160002060008201548160000155600182018160010190805461294b9291906142f5565b50600282015481600201556003820154816003015560048201548160040155600582015481600501556006820160009054906101000a900460ff168160060160006101000a81548160ff021916908360048111156129a557fe5b02179055506006820160019054906101000a900460ff168160060160016101000a81548160ff0219169083151502179055509050507f58d97c9a7f506d49829d9f53a5aad430cff9d6ea208dddd9a7cf01ef5eccbc4082600a600085815260200190815260200160002060060160009054906101000a900460ff1660405180838152602001826004811115612a3657fe5b60ff1681526020019250505060405180910390a1600a600083815260200190815260200160002060060160009054906101000a900460ff169050919050565b600080600c60003373ffffffffffffffffffffffffffffffffffffffff1673ffffffffffffffffffffffffffffffffffffffff16815260200190815260200160002054111515612b53576040517f08c379a00000000000000000000000000000000000000000000000000000000081526004018080602001828103825260228152602001807f596f75206172656e27742072656769737465726564206173206120636f75726981526020017f657200000000000000000000000000000000000000000000000000000000000081525060400191505060405180910390fd5b6005548311151515612bcd576040517f08c379a00000000000000000000000000000000000000000000000000000000081526004018080602001828103825260138152602001807f4f7264657220646f65736e27742065786973740000000000000000000000000081525060200191505060405180910390fd5b60016004811115612bda57fe5b600a600085815260200190815260200160002060060160009054906101000a900460ff166004811115612c0957fe5b141515612c7e576040517f08c379a00000000000000000000000000000000000000000000000000000000081526004018080602001828103825260178152602001807f4f72646572206973206e6f74206f6e207468652077617900000000000000000081525060200191505060405180910390fd5b6004600a600085815260200190815260200160002060060160006101000a81548160ff02191690836004811115612cb157fe5b021790555081600a600085815260200190815260200160002060060160016101000a81548160ff021916908315150217905550600a60006005548152602001908152602001600020600a6000858152602001908152602001600020600082015481600001556001820181600101908054612d2c9291906142f5565b50600282015481600201556003820154816003015560048201548160040155600582015481600501556006820160009054906101000a900460ff168160060160006101000a81548160ff02191690836004811115612d8657fe5b02179055506006820160019054906101000a900460ff168160060160016101000a81548160ff0219169083151502179055509050507f58d97c9a7f506d49829d9f53a5aad430cff9d6ea208dddd9a7cf01ef5eccbc4083600a600086815260200190815260200160002060060160009054906101000a900460ff1660405180838152602001826004811115612e1757fe5b60ff1681526020019250505060405180910390a17f4d1dfc4c7b9c7e23f54ab77d9e2ef3aaba23e31b5ad0e9f616a9d5e6b53c17dc83600a600086815260200190815260200160002060060160019054906101000a900460ff1660405180838152602001821515151581526020019250505060405180910390a16001905092915050565b600080600c60003373ffffffffffffffffffffffffffffffffffffffff1673ffffffffffffffffffffffffffffffffffffffff16815260200190815260200160002054141515612f53576040517f08c379a000000000000000000000000000000000000000000000000000000000815260040180806020018281038252601b8152602001807f536869706d656e7420616c72656164792072656769737465726564000000000081525060200191505060405180910390fd5b6002600081548092919060010191905055506000600960006002548152602001908152602001600020905060025481600001819055508060096000836000015481526020019081526020016000206000820154816000015560018201548160010155600282015481600201559050508060000154600c60003373ffffffffffffffffffffffffffffffffffffffff1673ffffffffffffffffffffffffffffffffffffffff16815260200190815260200160002081905550600191505090565b6000806000600c60003373ffffffffffffffffffffffffffffffffffffffff1673ffffffffffffffffffffffffffffffffffffffff168152602001908152602001600020541115156130f2576040517f08c379a00000000000000000000000000000000000000000000000000000000081526004018080602001828103825260228152602001807f596f75206172656e27742072656769737465726564206173206120636f75726981526020017f657200000000000000000000000000000000000000000000000000000000000081525060400191505060405180910390fd5b600060076000600d60003373ffffffffffffffffffffffffffffffffffffffff1673ffffffffffffffffffffffffffffffffffffffff16815260200190815260200160002054815260200190815260200160002060010154141515156131c0576040517f08c379a00000000000000000000000000000000000000000000000000000000081526004018080602001828103825260208152602001807f596f7520646f6e2774206861766520616e7920616374697665206f726465727381525060200191505060405180910390fd5b600354831115151561323a576040517f08c379a00000000000000000000000000000000000000000000000000000000081526004018080602001828103825260148152602001807f53656c6c657220646f65736e277420657869737400000000000000000000000081525060200191505060405180910390fd5b60055484111515156132b4576040517f08c379a00000000000000000000000000000000000000000000000000000000081526004018080602001828103825260138152602001807f4f7264657220646f65736e27742065786973740000000000000000000000000081525060200191505060405180910390fd5b600060048111156132c157fe5b600a600086815260200190815260200160002060060160009054906101000a900460ff1660048111156132f057fe5b148015613324575060011515600a600086815260200190815260200160002060060160019054906101000a900460ff161515145b1561333c576000600181915080905091509150613788565b6000600481111561334957fe5b600a600086815260200190815260200160002060060160009054906101000a900460ff16600481111561337857fe5b1480156133ac575060001515600a600086815260200190815260200160002060060160019054906101000a900460ff161515145b156133c35760008081915080905091509150613788565b600160048111156133d057fe5b600a600086815260200190815260200160002060060160009054906101000a900460ff1660048111156133ff57fe5b148015613433575060011515600a600086815260200190815260200160002060060160019054906101000a900460ff161515145b1561344a5760018081915080905091509150613788565b6001600481111561345757fe5b600a600086815260200190815260200160002060060160009054906101000a900460ff16600481111561348657fe5b1480156134ba575060001515600a600086815260200190815260200160002060060160019054906101000a900460ff161515145b156134d2576001600081915080905091509150613788565b600260048111156134df57fe5b600a600086815260200190815260200160002060060160009054906101000a900460ff16600481111561350e57fe5b148015613542575060011515600a600086815260200190815260200160002060060160019054906101000a900460ff161515145b1561355a576002600181915080905091509150613788565b6002600481111561356757fe5b600a600086815260200190815260200160002060060160009054906101000a900460ff16600481111561359657fe5b1480156135ca575060001515600a600086815260200190815260200160002060060160019054906101000a900460ff161515145b156135e2576002600081915080905091509150613788565b600360048111156135ef57fe5b600a600086815260200190815260200160002060060160009054906101000a900460ff16600481111561361e57fe5b148015613652575060011515600a600086815260200190815260200160002060060160019054906101000a900460ff161515145b1561366a576003600181915080905091509150613788565b6003600481111561367757fe5b600a600086815260200190815260200160002060060160009054906101000a900460ff1660048111156136a657fe5b1480156136da575060001515600a600086815260200190815260200160002060060160019054906101000a900460ff161515145b156136f2576003600081915080905091509150613788565b6004808111156136fe57fe5b600a600086815260200190815260200160002060060160009054906101000a900460ff16600481111561372d57fe5b148015613761575060011515600a600086815260200190815260200160002060060160019054906101000a900460ff161515145b15613779576004600181915080905091509150613788565b60046000819150809050915091505b9250929050565b6000806000600d60003373ffffffffffffffffffffffffffffffffffffffff1673ffffffffffffffffffffffffffffffffffffffff1681526020019081526020016000205411151561386f576040517f08c379a00000000000000000000000000000000000000000000000000000000081526004018080602001828103825260238152602001807f596f75206172656e27742072656769737465726564206173206120637573746f81526020017f6d6572000000000000000000000000000000000000000000000000000000000081525060400191505060405180910390fd5b600060076000600d60003373ffffffffffffffffffffffffffffffffffffffff1673ffffffffffffffffffffffffffffffffffffffff168152602001908152602001600020548152602001908152602001600020600101541415151561393d576040517f08c379a00000000000000000000000000000000000000000000000000000000081526004018080602001828103825260208152602001807f596f7520646f6e2774206861766520616e7920616374697665206f726465727381525060200191505060405180910390fd5b60035483111515156139b7576040517f08c379a00000000000000000000000000000000000000000000000000000000081526004018080602001828103825260148152602001807f53656c6c657220646f65736e277420657869737400000000000000000000000081525060200191505060405180910390fd5b6005548411151515613a31576040517f08c379a00000000000000000000000000000000000000000000000000000000081526004018080602001828103825260138152602001807f4f7264657220646f65736e27742065786973740000000000000000000000000081525060200191505060405180910390fd5b60006004811115613a3e57fe5b600a600086815260200190815260200160002060060160009054906101000a900460ff166004811115613a6d57fe5b148015613aa1575060011515600a600086815260200190815260200160002060060160019054906101000a900460ff161515145b15613ab9576000600181915080905091509150613f05565b60006004811115613ac657fe5b600a600086815260200190815260200160002060060160009054906101000a900460ff166004811115613af557fe5b148015613b29575060001515600a600086815260200190815260200160002060060160019054906101000a900460ff161515145b15613b405760008081915080905091509150613f05565b60016004811115613b4d57fe5b600a600086815260200190815260200160002060060160009054906101000a900460ff166004811115613b7c57fe5b148015613bb0575060011515600a600086815260200190815260200160002060060160019054906101000a900460ff161515145b15613bc75760018081915080905091509150613f05565b60016004811115613bd457fe5b600a600086815260200190815260200160002060060160009054906101000a900460ff166004811115613c0357fe5b148015613c37575060001515600a600086815260200190815260200160002060060160019054906101000a900460ff161515145b15613c4f576001600081915080905091509150613f05565b60026004811115613c5c57fe5b600a600086815260200190815260200160002060060160009054906101000a900460ff166004811115613c8b57fe5b148015613cbf575060011515600a600086815260200190815260200160002060060160019054906101000a900460ff161515145b15613cd7576002600181915080905091509150613f05565b60026004811115613ce457fe5b600a600086815260200190815260200160002060060160009054906101000a900460ff166004811115613d1357fe5b148015613d47575060001515600a600086815260200190815260200160002060060160019054906101000a900460ff161515145b15613d5f576002600081915080905091509150613f05565b60036004811115613d6c57fe5b600a600086815260200190815260200160002060060160009054906101000a900460ff166004811115613d9b57fe5b148015613dcf575060011515600a600086815260200190815260200160002060060160019054906101000a900460ff161515145b15613de7576003600181915080905091509150613f05565b60036004811115613df457fe5b600a600086815260200190815260200160002060060160009054906101000a900460ff166004811115613e2357fe5b148015613e57575060001515600a600086815260200190815260200160002060060160019054906101000a900460ff161515145b15613e6f576003600081915080905091509150613f05565b600480811115613e7b57fe5b600a600086815260200190815260200160002060060160009054906101000a900460ff166004811115613eaa57fe5b148015613ede575060011515600a600086815260200190815260200160002060060160019054906101000a900460ff161515145b15613ef6576004600181915080905091509150613f05565b60046000819150809050915091505b9250929050565b600080600b60003373ffffffffffffffffffffffffffffffffffffffff1673ffffffffffffffffffffffffffffffffffffffff16815260200190815260200160002054141515613fc4576040517f08c379a00000000000000000000000000000000000000000000000000000000081526004018080602001828103825260198152602001807f53656c6c657220616c726561647920726567697374657265640000000000000081525060200191505060405180910390fd5b6003600081548092919060010191905055506000600860006003548152602001908152602001600020905060035481600001819055508060010160019080600181540180825580915050906001820390600052602060002001600090919290919091505550806001016002908060018154018082558091505090600182039060005260206000200160009091929091909150555080600101600390806001815401808255809150509060018203906000526020600020016000909192909190915055508060010160049080600181540180825580915050906001820390600052602060002001600090919290919091505550806001016005908060018154018082558091505090600182039060005260206000200160009091929091909150555080600860008360000154815260200190815260200160002060008201548160000155600182018160010190805461411d9291906142f5565b509050508060000154600b60003373ffffffffffffffffffffffffffffffffffffffff1673ffffffffffffffffffffffffffffffffffffffff16815260200190815260200160002081905550600191505090565b600080600d60003373ffffffffffffffffffffffffffffffffffffffff1673ffffffffffffffffffffffffffffffffffffffff1681526020019081526020016000205490506000811415156141c957809150506142f2565b600c60003373ffffffffffffffffffffffffffffffffffffffff1673ffffffffffffffffffffffffffffffffffffffff16815260200190815260200160002054905060008114151561421e57809150506142f2565b600b60003373ffffffffffffffffffffffffffffffffffffffff1673ffffffffffffffffffffffffffffffffffffffff16815260200190815260200160002054905060008114151561427357809150506142f2565b600081141515156142ec576040517f08c379a00000000000000000000000000000000000000000000000000000000081526004018080602001828103825260158152602001807f596f75206172656e27742072656769737465726564000000000000000000000081525060200191505060405180910390fd5b60009150505b90565b8280548282559060005260206000209081019282156143365760005260206000209182015b8281111561433557825482559160010191906001019061431a565b5b5090506143439190614394565b5090565b828054828255906000526020600020908101928215614383579160200282015b82811115614382578251825591602001919060010190614367565b5b5090506143909190614394565b5090565b6143b691905b808211156143b257600081600090555060010161439a565b5090565b9056fea165627a7a723058206995eb83be99f5d4a8d59ddfcab5cf89822430fcbb13637ea59b7135e2a8d02a0029",
  "source": "pragma solidity ^0.5.0;\n\ncontract DecentralizedShipment {\n    uint delivery_fee = 1;\n    uint product_cost = 5;\n    uint shipment_count = 0;\n    uint seller_count = 0;\n    uint customer_count = 0;\n    uint order_count = 0;\n    uint time_limit = 5;\n    \n  \n     // Order status enum that will be used in our system in order to know the status of the order.\n    enum OrderStatus {\n        preparing,  // Order is being prepared.\n        ontheway,   //  Order is on the way.\n        outfordelivery, // Order is out for delivery.\n        received,   //  Order is received.\n        cancelled   //  Order is cancelled by user.\n    }\n    \n    // Order struct which contains order details that will be used in our system in order to create order.\n    struct Order{\n        uint id;                    //This is the ID of the order and it's unique.\n        uint[] products;            //This is the array of products that will be ordered.\n        uint price;                 //This is the total price of the order.\n        uint seller;                //This is the seller of the order.\n        uint shipment;              // This is the shipment of the order.    \n        uint customer;              //This is the customer of the order.\n        OrderStatus status;     //This is the status of the order.\n        bool is_damaged;             //This represents the order being damaged or not.\n    }\n \n\n    struct Customer {\n        uint id;\n        uint cur_order;\n        uint last_order;\n    }\n    \n    struct Seller {\n        uint id;\n        uint[] product_list;\n    }\n    \n    struct Shipment {\n        uint id;\n        uint cur_order;\n        uint order_count;\n    }\n    \n    \n    \n    mapping(uint => Customer) customer_details;\n    mapping(uint => Seller) seller_details;\n    mapping(uint => Shipment) shipment_details;\n    mapping(uint => Order) order_details;\n    \n    mapping(address => uint) get_seller_id;\n    mapping(address => uint ) get_shipment_id;\n    mapping(address => uint) get_customer_id;\n    \n    \n    /* ---------------EVENTS----------------- */\n    \n    event order_status_update(uint order_id, OrderStatus status);\n    event order_damaged_update(uint order_id, bool is_damaged);\n    \n    /* ---------------MODIFIERS-------------- */\n    \n    modifier is_customer() {\n        require(get_customer_id[msg.sender] > 0, \"You aren't registered as a customer\");\n        _;\n    }\n    \n    modifier is_shipment() {\n        require(get_shipment_id[msg.sender] > 0, \"You aren't registered as a courier\");\n        _;\n    }\n    \n    modifier is_seller() {\n        require(get_seller_id[msg.sender] > 0, \"You aren't registered as a restaurant\");\n        _;\n    }\n    \n    modifier has_ordered() {\n        require(customer_details[get_customer_id[msg.sender]].cur_order != 0, \"You don't have any active orders\");\n        _;\n    }\n    \n    /* ---------------UTILITY FUNCTIONS------ */\n    \n \n    function product_exists(uint item, uint seller_id) \n    public view returns(bool) {\n        uint i;\n        for (i = 0; i < seller_details[seller_id].product_list.length; i++) {\n            if (seller_details[seller_id].product_list[i] == item) {\n                return true;\n            }\n        }\n        return false;\n    }\n    \n    function get_id() public view returns(uint) {\n        uint id;\n        id = get_customer_id[msg.sender];\n        if (id != 0)\n            return id;\n            \n        id = get_shipment_id[msg.sender];\n        if (id != 0)\n            return id;\n            \n        id = get_seller_id[msg.sender];\n        if (id != 0)\n            return id;\n            \n        require(id != 0, \"You aren't registered\");\n        return 0;\n    }\n    \n\n\n    /* ---------------CUSTOMER--------------- */\n    function register_customer() public returns(bool) {\n        \n        require(get_customer_id[msg.sender] == 0, \"Customer already registered\");\n        customer_count++;\n        Customer storage customer = customer_details[customer_count];\n        customer.id = customer_count;\n        customer.cur_order = 0;\n        customer_details[customer.id] = customer;\n        get_customer_id[msg.sender] = customer.id;\n        return true;\n    }\n    \n    function give_order(uint[] memory products, uint seller_id) is_customer() public payable returns(bool) {\n        require(seller_id <= seller_count, \"Seller doesn't exist\");\n        require(customer_details[get_customer_id[msg.sender]].cur_order == 0, \"Already given order\");\n        //require(products.length * product_cost + delivery_fee == msg.value, \"Insufficient amount\");\n        uint i;\n        for (i = 0; i < products.length; i++) {\n            require(product_exists(products[i], seller_id) == true, \"Item doesn't exist\");\n        }\n\n        order_count++;\n        Order storage o = order_details[order_count];\n        o.id = order_count;\n        o.products = products;\n        o.price = products.length * product_cost;\n        o.status = OrderStatus.preparing;\n        o.seller = seller_id;\n        o.customer = get_customer_id[msg.sender];\n        o.is_damaged = false;\n        \n        customer_details[get_customer_id[msg.sender]].cur_order = o.id;\n        emit order_status_update(o.id, o.status);\n        return true;\n    }\n    function check_order_status_customer(uint order_id, uint seller_id) is_customer() has_ordered() public view returns(uint,uint) {\n        require(seller_id <= seller_count, \"Seller doesn't exist\");\n        require(order_id <= order_count, \"Order doesn't exist\");\n    \n        if(order_details[order_id].status == OrderStatus.preparing && order_details[order_id].is_damaged == true) {\n            return (0,1);\n        }else if(order_details[order_id].status == OrderStatus.preparing && order_details[order_id].is_damaged == false) {\n             return (0,0);\n        }else if(order_details[order_id].status == OrderStatus.ontheway && order_details[order_id].is_damaged == true) {\n            return (1,1);\n        }else if(order_details[order_id].status == OrderStatus.ontheway && order_details[order_id].is_damaged == false) {\n             return (1,0);\n        }else if(order_details[order_id].status == OrderStatus.outfordelivery && order_details[order_id].is_damaged == true) {\n             return (2,1);\n        }else if(order_details[order_id].status == OrderStatus.outfordelivery && order_details[order_id].is_damaged == false) {\n             return (2,0);\n        }else if(order_details[order_id].status == OrderStatus.received && order_details[order_id].is_damaged == true) {\n             return (3,1);\n        }else if(order_details[order_id].status == OrderStatus.received && order_details[order_id].is_damaged == false) {\n             return (3,0);\n        }else if(order_details[order_id].status == OrderStatus.cancelled && order_details[order_id].is_damaged == true) {\n             return (4,1);\n        }else {\n            return (4,0);\n        }\n    }\n    function cancel_order(uint order_id) is_customer() has_ordered() public returns(OrderStatus) {\n        require(order_id <= order_count, \"Order doesn't exist\");\n        require(order_details[order_id].customer == get_customer_id[msg.sender], \"You don't have this order\");\n        require(order_details[order_id].status != OrderStatus.cancelled, \"You have already cancel this order!\");\n        order_details[order_id].status = OrderStatus.cancelled;\n        order_details[order_id] = order_details[order_count];\n        emit order_status_update(order_id, order_details[order_id].status);\n        return order_details[order_id].status ;\n    }\n\n    function receive_order(uint order_id) is_customer() has_ordered() public returns(OrderStatus)  {\n        require(order_id <= order_count, \"Order doesn't exist\");\n        require(order_details[order_id].status == OrderStatus.outfordelivery, \"Order is not out for delivery\");\n        require(order_details[order_id].customer == get_customer_id[msg.sender], \"You don't have this order\");\n        order_details[order_id].status = OrderStatus.received;\n        order_details[order_id] = order_details[order_count];\n        emit order_status_update(order_id, order_details[order_id].status);\n        return order_details[order_id].status;\n    }\n\n    /* ---------------SELLER--------------- */\n\n    function register_seller() public returns(bool) {\n        require(get_seller_id[msg.sender] == 0, \"Seller already registered\");\n\n        seller_count++;\n        Seller storage seller = seller_details[seller_count];\n        seller.id = seller_count;\n        seller.product_list.push(1);\n        seller.product_list.push(2);\n        seller.product_list.push(3);\n        seller.product_list.push(4);\n        seller.product_list.push(5);\n        seller_details[seller.id] = seller;\n        get_seller_id[msg.sender] = seller.id;\n        return true;\n    }\n\n    function transfer_order_to_shipment(uint order_id) is_seller() has_ordered() public payable returns(OrderStatus) {\n        require(order_id <= order_count, \"Order doesn't exist\");\n        require(order_details[order_id].status == OrderStatus.preparing, \"Order is not prepared\");\n        order_details[order_id].status = OrderStatus.ontheway;\n        return order_details[order_id].status;\n    }\n\n    function check_order_status_seller(uint order_id, uint seller_id) is_seller() has_ordered() public view returns(uint, uint) {\n        require(seller_id <= seller_count, \"Seller doesn't exist\");\n        require(order_id <= order_count, \"Order doesn't exist\");\n         if(order_details[order_id].status == OrderStatus.preparing && order_details[order_id].is_damaged == true) {\n            return (0,1);\n        }else if(order_details[order_id].status == OrderStatus.preparing && order_details[order_id].is_damaged == false) {\n             return (0,0);\n        }else if(order_details[order_id].status == OrderStatus.ontheway && order_details[order_id].is_damaged == true) {\n            return (1,1);\n        }else if(order_details[order_id].status == OrderStatus.ontheway && order_details[order_id].is_damaged == false) {\n             return (1,0);\n        }else if(order_details[order_id].status == OrderStatus.outfordelivery && order_details[order_id].is_damaged == true) {\n             return (2,1);\n        }else if(order_details[order_id].status == OrderStatus.outfordelivery && order_details[order_id].is_damaged == false) {\n             return (2,0);\n        }else if(order_details[order_id].status == OrderStatus.received && order_details[order_id].is_damaged == true) {\n             return (3,1);\n        }else if(order_details[order_id].status == OrderStatus.received && order_details[order_id].is_damaged == false) {\n             return (3,0);\n        }else if(order_details[order_id].status == OrderStatus.cancelled && order_details[order_id].is_damaged == true) {\n             return (4,1);\n        }else {\n            return (4,0);\n        }\n    }\n\n    /* ---------------SHIPMENT--------------- */\n    \n    function register_shipment() public returns(bool) {\n        require(get_shipment_id[msg.sender] == 0, \"Shipment already registered\");\n        shipment_count++;\n        Shipment storage shipment = shipment_details[shipment_count];\n        shipment.id = shipment_count;\n        shipment_details[shipment.id] = shipment;\n        get_shipment_id[msg.sender] = shipment.id;\n        return true;\n    }\n    function update_status_to_ofd(uint order_id, bool is_damaged ) is_shipment() public returns(bool) {\n        require(order_id <= order_count, \"Order doesn't exist\");\n        require(order_details[order_id].status == OrderStatus.ontheway, \"Order is not on the way\");\n        order_details[order_id].status = OrderStatus.outfordelivery;\n        order_details[order_id].is_damaged = is_damaged;\n        order_details[order_id] = order_details[order_count];\n        emit order_status_update(order_id, order_details[order_id].status);\n        emit order_damaged_update(order_id, order_details[order_id].is_damaged);\n        return true;\n    }\n    function update_status_to_received(uint order_id,  bool is_damaged ) is_shipment() public returns(bool) {\n        require(order_id <= order_count, \"Order doesn't exist\");\n        require(order_details[order_id].status == OrderStatus.ontheway, \"Order is not on the way\");\n        order_details[order_id].status = OrderStatus.received;\n        order_details[order_id].is_damaged = is_damaged;\n        order_details[order_id] = order_details[order_count];\n        emit order_status_update(order_id, order_details[order_id].status);\n        emit order_damaged_update(order_id, order_details[order_id].is_damaged);\n        return true;\n    }\n     function update_status_to_cancelled(uint order_id,  bool is_damaged ) is_shipment() public returns(bool) {\n        require(order_id <= order_count, \"Order doesn't exist\");\n        require(order_details[order_id].status == OrderStatus.ontheway, \"Order is not on the way\");\n        order_details[order_id].status = OrderStatus.cancelled;\n        order_details[order_id].is_damaged = is_damaged;\n        order_details[order_id] = order_details[order_count];\n        emit order_status_update(order_id, order_details[order_id].status);\n        emit order_damaged_update(order_id, order_details[order_id].is_damaged);\n        return true;\n    }\n    function check_order_status_shipment(uint order_id, uint seller_id) is_shipment() has_ordered() public view returns(uint,uint) {\n        require(seller_id <= seller_count, \"Seller doesn't exist\");\n        require(order_id <= order_count, \"Order doesn't exist\");\n         if(order_details[order_id].status == OrderStatus.preparing && order_details[order_id].is_damaged == true) {\n            return (0,1);\n        }else if(order_details[order_id].status == OrderStatus.preparing && order_details[order_id].is_damaged == false) {\n             return (0,0);\n        }else if(order_details[order_id].status == OrderStatus.ontheway && order_details[order_id].is_damaged == true) {\n            return (1,1);\n        }else if(order_details[order_id].status == OrderStatus.ontheway && order_details[order_id].is_damaged == false) {\n             return (1,0);\n        }else if(order_details[order_id].status == OrderStatus.outfordelivery && order_details[order_id].is_damaged == true) {\n             return (2,1);\n        }else if(order_details[order_id].status == OrderStatus.outfordelivery && order_details[order_id].is_damaged == false) {\n             return (2,0);\n        }else if(order_details[order_id].status == OrderStatus.received && order_details[order_id].is_damaged == true) {\n             return (3,1);\n        }else if(order_details[order_id].status == OrderStatus.received && order_details[order_id].is_damaged == false) {\n             return (3,0);\n        }else if(order_details[order_id].status == OrderStatus.cancelled && order_details[order_id].is_damaged == true) {\n             return (4,1);\n        }else {\n            return (4,0);\n        }\n    }\n\n  \n    \n}",
  "sourcePath": "/Users/hasanaliozkan/Desktop/decentralized/testing_dapp/Decentralized_Shipment/contracts/DecentralizedShipment.sol",
  "compiler": {
    "name": "solc",
    "version": "0.5.0+commit.1d4f565a.Emscripten.clang"
  },
  "schemaVersion": "3.0.1",
  "updatedAt": "2022-06-01T12:13:19.341Z",
  "devdoc": {
    "methods": {}
  },
  "userdoc": {
    "methods": {}
  }
}