{
  "contractName": "DecentralizedShipment",
  "abi": [
    {
      "anonymous": false,
      "inputs": [
        {
          "indexed": false,
          "name": "order_id",
          "type": "uint256"
        },
        {
          "indexed": false,
          "name": "status",
          "type": "uint8"
        }
      ],
      "name": "order_status_update",
      "type": "event",
      "signature": "0x58d97c9a7f506d49829d9f53a5aad430cff9d6ea208dddd9a7cf01ef5eccbc40"
    },
    {
      "anonymous": false,
      "inputs": [
        {
          "indexed": false,
          "name": "order_id",
          "type": "uint256"
        },
        {
          "indexed": false,
          "name": "pStatus",
          "type": "uint8"
        }
      ],
      "name": "order_damaged_update",
      "type": "event",
      "signature": "0x5b88ca144f1d4b33cbdd6e83ce1eb3c5ea8efc0c2a83ff3a6423827a579e9ba2"
    },
    {
      "constant": true,
      "inputs": [
        {
          "name": "item",
          "type": "uint256"
        },
        {
          "name": "seller_id",
          "type": "uint256"
        }
      ],
      "name": "product_exists",
      "outputs": [
        {
          "name": "",
          "type": "bool"
        }
      ],
      "payable": false,
      "stateMutability": "view",
      "type": "function",
      "signature": "0x85d0c229"
    },
    {
      "constant": true,
      "inputs": [],
      "name": "get_id",
      "outputs": [
        {
          "name": "",
          "type": "uint256"
        }
      ],
      "payable": false,
      "stateMutability": "view",
      "type": "function",
      "signature": "0xf43fa805"
    },
    {
      "constant": false,
      "inputs": [],
      "name": "register_customer",
      "outputs": [
        {
          "name": "",
          "type": "bool"
        }
      ],
      "payable": false,
      "stateMutability": "nonpayable",
      "type": "function",
      "signature": "0x16212cde"
    },
    {
      "constant": false,
      "inputs": [
        {
          "name": "products",
          "type": "uint256[]"
        },
        {
          "name": "seller_id",
          "type": "uint256"
        }
      ],
      "name": "give_order",
      "outputs": [
        {
          "name": "",
          "type": "bool"
        }
      ],
      "payable": true,
      "stateMutability": "payable",
      "type": "function",
      "signature": "0x517db08b"
    },
    {
      "constant": true,
      "inputs": [
        {
          "name": "order_id",
          "type": "uint256"
        },
        {
          "name": "seller_id",
          "type": "uint256"
        }
      ],
      "name": "check_order_status_customer",
      "outputs": [
        {
          "name": "",
          "type": "uint256"
        },
        {
          "name": "",
          "type": "uint256"
        }
      ],
      "payable": false,
      "stateMutability": "view",
      "type": "function",
      "signature": "0xce59b43c"
    },
    {
      "constant": false,
      "inputs": [
        {
          "name": "order_id",
          "type": "uint256"
        }
      ],
      "name": "cancel_order",
      "outputs": [
        {
          "name": "",
          "type": "uint8"
        }
      ],
      "payable": false,
      "stateMutability": "nonpayable",
      "type": "function",
      "signature": "0xb6bd2ee2"
    },
    {
      "constant": false,
      "inputs": [
        {
          "name": "order_id",
          "type": "uint256"
        }
      ],
      "name": "receive_order",
      "outputs": [
        {
          "name": "",
          "type": "uint8"
        }
      ],
      "payable": false,
      "stateMutability": "nonpayable",
      "type": "function",
      "signature": "0xb20a9aa9"
    },
    {
      "constant": false,
      "inputs": [],
      "name": "register_seller",
      "outputs": [
        {
          "name": "",
          "type": "bool"
        }
      ],
      "payable": false,
      "stateMutability": "nonpayable",
      "type": "function",
      "signature": "0xea4c715b"
    },
    {
      "constant": false,
      "inputs": [
        {
          "name": "order_id",
          "type": "uint256"
        }
      ],
      "name": "transfer_order_to_shipment",
      "outputs": [
        {
          "name": "",
          "type": "uint8"
        }
      ],
      "payable": true,
      "stateMutability": "payable",
      "type": "function",
      "signature": "0x49f29717"
    },
    {
      "constant": true,
      "inputs": [
        {
          "name": "order_id",
          "type": "uint256"
        },
        {
          "name": "seller_id",
          "type": "uint256"
        }
      ],
      "name": "check_order_status_seller",
      "outputs": [
        {
          "name": "",
          "type": "uint256"
        },
        {
          "name": "",
          "type": "uint256"
        }
      ],
      "payable": false,
      "stateMutability": "view",
      "type": "function",
      "signature": "0x2f41dd6f"
    },
    {
      "constant": false,
      "inputs": [],
      "name": "register_shipment",
      "outputs": [
        {
          "name": "",
          "type": "bool"
        }
      ],
      "payable": false,
      "stateMutability": "nonpayable",
      "type": "function",
      "signature": "0xc29d28eb"
    },
    {
      "constant": false,
      "inputs": [
        {
          "name": "order_id",
          "type": "uint256"
        }
      ],
      "name": "update_status_to_ofd_and_damaged",
      "outputs": [
        {
          "name": "",
          "type": "bool"
        }
      ],
      "payable": false,
      "stateMutability": "nonpayable",
      "type": "function",
      "signature": "0x8fc064c7"
    },
    {
      "constant": false,
      "inputs": [
        {
          "name": "order_id",
          "type": "uint256"
        }
      ],
      "name": "update_status_to_ofd_and_not_damaged",
      "outputs": [
        {
          "name": "",
          "type": "bool"
        }
      ],
      "payable": false,
      "stateMutability": "nonpayable",
      "type": "function",
      "signature": "0xdc7a045b"
    },
    {
      "constant": false,
      "inputs": [
        {
          "name": "order_id",
          "type": "uint256"
        }
      ],
      "name": "update_status_to_received_and_damaged",
      "outputs": [
        {
          "name": "",
          "type": "bool"
        }
      ],
      "payable": false,
      "stateMutability": "nonpayable",
      "type": "function",
      "signature": "0xaddfa997"
    },
    {
      "constant": false,
      "inputs": [
        {
          "name": "order_id",
          "type": "uint256"
        }
      ],
      "name": "update_status_to_received_and_not_damaged",
      "outputs": [
        {
          "name": "",
          "type": "bool"
        }
      ],
      "payable": false,
      "stateMutability": "nonpayable",
      "type": "function",
      "signature": "0xcd04b162"
    },
    {
      "constant": false,
      "inputs": [
        {
          "name": "order_id",
          "type": "uint256"
        }
      ],
      "name": "update_status_to_cancelled_and_damaged",
      "outputs": [
        {
          "name": "",
          "type": "bool"
        }
      ],
      "payable": false,
      "stateMutability": "nonpayable",
      "type": "function",
      "signature": "0x0df26cc7"
    },
    {
      "constant": false,
      "inputs": [
        {
          "name": "order_id",
          "type": "uint256"
        }
      ],
      "name": "update_status_to_cancelled_and_not_damaged",
      "outputs": [
        {
          "name": "",
          "type": "bool"
        }
      ],
      "payable": false,
      "stateMutability": "nonpayable",
      "type": "function",
      "signature": "0x4a3ca965"
    },
    {
      "constant": true,
      "inputs": [
        {
          "name": "order_id",
          "type": "uint256"
        },
        {
          "name": "seller_id",
          "type": "uint256"
        }
      ],
      "name": "check_order_status_shipment",
      "outputs": [
        {
          "name": "",
          "type": "uint256"
        },
        {
          "name": "",
          "type": "uint256"
        }
      ],
      "payable": false,
      "stateMutability": "view",
      "type": "function",
      "signature": "0xcae8f5ce"
    }
  ],
  "bytecode": "0x6080604052600160005560056001556000600255600060035560006004556000600555600560065534801561003357600080fd5b506155d280620000446000396000f3fe6080604052600436106100fc576000357c0100000000000000000000000000000000000000000000000000000000900463ffffffff1680630df26cc71461010157806316212cde146101545780632f41dd6f1461018357806349f29717146101e35780634a3ca96514610233578063517db08b1461028657806385d0c229146103605780638fc064c7146103bd578063addfa99714610410578063b20a9aa914610463578063b6bd2ee2146104c0578063c29d28eb1461051d578063cae8f5ce1461054c578063cd04b162146105ac578063ce59b43c146105ff578063dc7a045b1461065f578063ea4c715b146106b2578063f43fa805146106e1575b600080fd5b34801561010d57600080fd5b5061013a6004803603602081101561012457600080fd5b810190808035906020019092919050505061070c565b604051808215151515815260200191505060405180910390f35b34801561016057600080fd5b50610169610b4e565b604051808215151515815260200191505060405180910390f35b34801561018f57600080fd5b506101c6600480360360408110156101a657600080fd5b810190808035906020019092919080359060200190929190505050610ccf565b604051808381526020018281526020019250505060405180910390f35b61020f600480360360208110156101f957600080fd5b81019080803590602001909291905050506115de565b6040518082600481111561021f57fe5b60ff16815260200191505060405180910390f35b34801561023f57600080fd5b5061026c6004803603602081101561025657600080fd5b8101908080359060200190929190505050611918565b604051808215151515815260200191505060405180910390f35b6103466004803603604081101561029c57600080fd5b81019080803590602001906401000000008111156102b957600080fd5b8201836020820111156102cb57600080fd5b803590602001918460208302840111640100000000831117156102ed57600080fd5b919080806020026020016040519081016040528093929190818152602001838360200280828437600081840152601f19601f82011690508083019250505050505050919291929080359060200190929190505050611d5a565b604051808215151515815260200191505060405180910390f35b34801561036c57600080fd5b506103a36004803603604081101561038357600080fd5b8101908080359060200190929190803590602001909291905050506121fd565b604051808215151515815260200191505060405180910390f35b3480156103c957600080fd5b506103f6600480360360208110156103e057600080fd5b810190808035906020019092919050505061227e565b604051808215151515815260200191505060405180910390f35b34801561041c57600080fd5b506104496004803603602081101561043357600080fd5b81019080803590602001909291905050506126c0565b604051808215151515815260200191505060405180910390f35b34801561046f57600080fd5b5061049c6004803603602081101561048657600080fd5b8101908080359060200190929190505050612b02565b604051808260048111156104ac57fe5b60ff16815260200191505060405180910390f35b3480156104cc57600080fd5b506104f9600480360360208110156104e357600080fd5b8101908080359060200190929190505050613058565b6040518082600481111561050957fe5b60ff16815260200191505060405180910390f35b34801561052957600080fd5b506105326135d4565b604051808215151515815260200191505060405180910390f35b34801561055857600080fd5b5061058f6004803603604081101561056f57600080fd5b81019080803590602001909291908035906020019092919050505061374b565b604051808381526020018281526020019250505060405180910390f35b3480156105b857600080fd5b506105e5600480360360208110156105cf57600080fd5b810190808035906020019092919050505061405a565b604051808215151515815260200191505060405180910390f35b34801561060b57600080fd5b506106426004803603604081101561062257600080fd5b81019080803590602001909291908035906020019092919050505061449c565b604051808381526020018281526020019250505060405180910390f35b34801561066b57600080fd5b506106986004803603602081101561068257600080fd5b8101908080359060200190929190505050614cb7565b604051808215151515815260200191505060405180910390f35b3480156106be57600080fd5b506106c76150f9565b604051808215151515815260200191505060405180910390f35b3480156106ed57600080fd5b506106f661535e565b6040518082815260200191505060405180910390f35b600080600c60003373ffffffffffffffffffffffffffffffffffffffff1673ffffffffffffffffffffffffffffffffffffffff168152602001908152602001600020541115156107ea576040517f08c379a00000000000000000000000000000000000000000000000000000000081526004018080602001828103825260238152602001807f596f75206172656e27742072656769737465726564206173206120736869706d81526020017f656e74000000000000000000000000000000000000000000000000000000000081525060400191505060405180910390fd5b6005548211151515610864576040517f08c379a00000000000000000000000000000000000000000000000000000000081526004018080602001828103825260138152602001807f4f7264657220646f65736e27742065786973740000000000000000000000000081525060200191505060405180910390fd5b6001600481111561087157fe5b600a600084815260200190815260200160002060060160009054906101000a900460ff1660048111156108a057fe5b141515610915576040517f08c379a00000000000000000000000000000000000000000000000000000000081526004018080602001828103825260178152602001807f4f72646572206973206e6f74206f6e207468652077617900000000000000000081525060200191505060405180910390fd5b6004600a600084815260200190815260200160002060060160006101000a81548160ff0219169083600481111561094857fe5b02179055506000600a600084815260200190815260200160002060060160016101000a81548160ff0219169083600181111561098057fe5b0217905550600a60006005548152602001908152602001600020600a60008481526020019081526020016000206000820154816000015560018201816001019080546109cd9291906154e2565b50600282015481600201556003820154816003015560048201548160040155600582015481600501556006820160009054906101000a900460ff168160060160006101000a81548160ff02191690836004811115610a2757fe5b02179055506006820160019054906101000a900460ff168160060160016101000a81548160ff02191690836001811115610a5d57fe5b02179055509050507f58d97c9a7f506d49829d9f53a5aad430cff9d6ea208dddd9a7cf01ef5eccbc4082600a600085815260200190815260200160002060060160009054906101000a900460ff1660405180838152602001826004811115610ac157fe5b60ff1681526020019250505060405180910390a17f5b88ca144f1d4b33cbdd6e83ce1eb3c5ea8efc0c2a83ff3a6423827a579e9ba282600a600085815260200190815260200160002060060160019054906101000a900460ff1660405180838152602001826001811115610b3157fe5b60ff1681526020019250505060405180910390a160019050919050565b600080600d60003373ffffffffffffffffffffffffffffffffffffffff1673ffffffffffffffffffffffffffffffffffffffff16815260200190815260200160002054141515610c06576040517f08c379a000000000000000000000000000000000000000000000000000000000815260040180806020018281038252601b8152602001807f437573746f6d657220616c72656164792072656769737465726564000000000081525060200191505060405180910390fd5b600460008154809291906001019190505550600060076000600454815260200190815260200160002090506004548160000181905550600081600101819055508060076000836000015481526020019081526020016000206000820154816000015560018201548160010155600282015481600201559050508060000154600d60003373ffffffffffffffffffffffffffffffffffffffff1673ffffffffffffffffffffffffffffffffffffffff16815260200190815260200160002081905550600191505090565b6000806000600b60003373ffffffffffffffffffffffffffffffffffffffff1673ffffffffffffffffffffffffffffffffffffffff16815260200190815260200160002054111515610daf576040517f08c379a00000000000000000000000000000000000000000000000000000000081526004018080602001828103825260218152602001807f596f75206172656e2774207265676973746572656420617320612073656c6c6581526020017f720000000000000000000000000000000000000000000000000000000000000081525060400191505060405180910390fd5b600060076000600d60003373ffffffffffffffffffffffffffffffffffffffff1673ffffffffffffffffffffffffffffffffffffffff1681526020019081526020016000205481526020019081526020016000206001015414151515610e7d576040517f08c379a00000000000000000000000000000000000000000000000000000000081526004018080602001828103825260208152602001807f596f7520646f6e2774206861766520616e7920616374697665206f726465727381525060200191505060405180910390fd5b6003548311151515610ef7576040517f08c379a00000000000000000000000000000000000000000000000000000000081526004018080602001828103825260148152602001807f53656c6c657220646f65736e277420657869737400000000000000000000000081525060200191505060405180910390fd5b6005548411151515610f71576040517f08c379a00000000000000000000000000000000000000000000000000000000081526004018080602001828103825260138152602001807f4f7264657220646f65736e27742065786973740000000000000000000000000081525060200191505060405180910390fd5b6003548311151515610feb576040517f08c379a00000000000000000000000000000000000000000000000000000000081526004018080602001828103825260148152602001807f53656c6c657220646f65736e277420657869737400000000000000000000000081525060200191505060405180910390fd5b6005548411151515611065576040517f08c379a00000000000000000000000000000000000000000000000000000000081526004018080602001828103825260138152602001807f4f7264657220646f65736e27742065786973740000000000000000000000000081525060200191505060405180910390fd5b6000600481111561107257fe5b600a600086815260200190815260200160002060060160009054906101000a900460ff1660048111156110a157fe5b1480156110e75750600060018111156110b657fe5b600a600086815260200190815260200160002060060160019054906101000a900460ff1660018111156110e557fe5b145b156110ff5760006001819150809050915091506115d7565b6000600481111561110c57fe5b600a600086815260200190815260200160002060060160009054906101000a900460ff16600481111561113b57fe5b148015611180575060018081111561114f57fe5b600a600086815260200190815260200160002060060160019054906101000a900460ff16600181111561117e57fe5b145b1561119757600080819150809050915091506115d7565b600160048111156111a457fe5b600a600086815260200190815260200160002060060160009054906101000a900460ff1660048111156111d357fe5b1480156112195750600060018111156111e857fe5b600a600086815260200190815260200160002060060160019054906101000a900460ff16600181111561121757fe5b145b1561123057600180819150809050915091506115d7565b6001600481111561123d57fe5b600a600086815260200190815260200160002060060160009054906101000a900460ff16600481111561126c57fe5b1480156112b1575060018081111561128057fe5b600a600086815260200190815260200160002060060160019054906101000a900460ff1660018111156112af57fe5b145b156112c95760016000819150809050915091506115d7565b600260048111156112d657fe5b600a600086815260200190815260200160002060060160009054906101000a900460ff16600481111561130557fe5b14801561134b57506000600181111561131a57fe5b600a600086815260200190815260200160002060060160019054906101000a900460ff16600181111561134957fe5b145b156113635760026001819150809050915091506115d7565b6002600481111561137057fe5b600a600086815260200190815260200160002060060160009054906101000a900460ff16600481111561139f57fe5b1480156113e457506001808111156113b357fe5b600a600086815260200190815260200160002060060160019054906101000a900460ff1660018111156113e257fe5b145b156113fc5760026000819150809050915091506115d7565b6003600481111561140957fe5b600a600086815260200190815260200160002060060160009054906101000a900460ff16600481111561143857fe5b14801561147e57506000600181111561144d57fe5b600a600086815260200190815260200160002060060160019054906101000a900460ff16600181111561147c57fe5b145b156114965760036001819150809050915091506115d7565b600360048111156114a357fe5b600a600086815260200190815260200160002060060160009054906101000a900460ff1660048111156114d257fe5b14801561151757506001808111156114e657fe5b600a600086815260200190815260200160002060060160019054906101000a900460ff16600181111561151557fe5b145b1561152f5760036000819150809050915091506115d7565b60048081111561153b57fe5b600a600086815260200190815260200160002060060160009054906101000a900460ff16600481111561156a57fe5b1480156115b057506000600181111561157f57fe5b600a600086815260200190815260200160002060060160019054906101000a900460ff1660018111156115ae57fe5b145b156115c85760046001819150809050915091506115d7565b60046000819150809050915091505b9250929050565b600080600b60003373ffffffffffffffffffffffffffffffffffffffff1673ffffffffffffffffffffffffffffffffffffffff168152602001908152602001600020541115156116bc576040517f08c379a00000000000000000000000000000000000000000000000000000000081526004018080602001828103825260218152602001807f596f75206172656e2774207265676973746572656420617320612073656c6c6581526020017f720000000000000000000000000000000000000000000000000000000000000081525060400191505060405180910390fd5b600060076000600d60003373ffffffffffffffffffffffffffffffffffffffff1673ffffffffffffffffffffffffffffffffffffffff168152602001908152602001600020548152602001908152602001600020600101541415151561178a576040517f08c379a00000000000000000000000000000000000000000000000000000000081526004018080602001828103825260208152602001807f596f7520646f6e2774206861766520616e7920616374697665206f726465727381525060200191505060405180910390fd5b6005548211151515611804576040517f08c379a00000000000000000000000000000000000000000000000000000000081526004018080602001828103825260138152602001807f4f7264657220646f65736e27742065786973740000000000000000000000000081525060200191505060405180910390fd5b6000600481111561181157fe5b600a600084815260200190815260200160002060060160009054906101000a900460ff16600481111561184057fe5b1415156118b5576040517f08c379a00000000000000000000000000000000000000000000000000000000081526004018080602001828103825260158152602001807f4f72646572206973206e6f74207072657061726564000000000000000000000081525060200191505060405180910390fd5b6001600a600084815260200190815260200160002060060160006101000a81548160ff021916908360048111156118e857fe5b0217905550600a600083815260200190815260200160002060060160009054906101000a900460ff169050919050565b600080600c60003373ffffffffffffffffffffffffffffffffffffffff1673ffffffffffffffffffffffffffffffffffffffff168152602001908152602001600020541115156119f6576040517f08c379a00000000000000000000000000000000000000000000000000000000081526004018080602001828103825260238152602001807f596f75206172656e27742072656769737465726564206173206120736869706d81526020017f656e74000000000000000000000000000000000000000000000000000000000081525060400191505060405180910390fd5b6005548211151515611a70576040517f08c379a00000000000000000000000000000000000000000000000000000000081526004018080602001828103825260138152602001807f4f7264657220646f65736e27742065786973740000000000000000000000000081525060200191505060405180910390fd5b60016004811115611a7d57fe5b600a600084815260200190815260200160002060060160009054906101000a900460ff166004811115611aac57fe5b141515611b21576040517f08c379a00000000000000000000000000000000000000000000000000000000081526004018080602001828103825260178152602001807f4f72646572206973206e6f74206f6e207468652077617900000000000000000081525060200191505060405180910390fd5b6004600a600084815260200190815260200160002060060160006101000a81548160ff02191690836004811115611b5457fe5b02179055506001600a600084815260200190815260200160002060060160016101000a81548160ff02191690836001811115611b8c57fe5b0217905550600a60006005548152602001908152602001600020600a6000848152602001908152602001600020600082015481600001556001820181600101908054611bd99291906154e2565b50600282015481600201556003820154816003015560048201548160040155600582015481600501556006820160009054906101000a900460ff168160060160006101000a81548160ff02191690836004811115611c3357fe5b02179055506006820160019054906101000a900460ff168160060160016101000a81548160ff02191690836001811115611c6957fe5b02179055509050507f58d97c9a7f506d49829d9f53a5aad430cff9d6ea208dddd9a7cf01ef5eccbc4082600a600085815260200190815260200160002060060160009054906101000a900460ff1660405180838152602001826004811115611ccd57fe5b60ff1681526020019250505060405180910390a17f5b88ca144f1d4b33cbdd6e83ce1eb3c5ea8efc0c2a83ff3a6423827a579e9ba282600a600085815260200190815260200160002060060160019054906101000a900460ff1660405180838152602001826001811115611d3d57fe5b60ff1681526020019250505060405180910390a160019050919050565b600080600d60003373ffffffffffffffffffffffffffffffffffffffff1673ffffffffffffffffffffffffffffffffffffffff16815260200190815260200160002054111515611e38576040517f08c379a00000000000000000000000000000000000000000000000000000000081526004018080602001828103825260238152602001807f596f75206172656e27742072656769737465726564206173206120637573746f81526020017f6d6572000000000000000000000000000000000000000000000000000000000081525060400191505060405180910390fd5b6003548211151515611eb2576040517f08c379a00000000000000000000000000000000000000000000000000000000081526004018080602001828103825260148152602001807f53656c6c657220646f65736e277420657869737400000000000000000000000081525060200191505060405180910390fd5b600060076000600d60003373ffffffffffffffffffffffffffffffffffffffff1673ffffffffffffffffffffffffffffffffffffffff16815260200190815260200160002054815260200190815260200160002060010154141515611f7f576040517f08c379a00000000000000000000000000000000000000000000000000000000081526004018080602001828103825260138152602001807f416c726561647920676976656e206f726465720000000000000000000000000081525060200191505060405180910390fd5b60008090505b83518110156120375760011515611fb38583815181101515611fa357fe5b90602001906020020151856121fd565b151514151561202a576040517f08c379a00000000000000000000000000000000000000000000000000000000081526004018080602001828103825260128152602001807f4974656d20646f65736e2774206578697374000000000000000000000000000081525060200191505060405180910390fd5b8080600101915050611f85565b6005600081548092919060010191905055506000600a600060055481526020019081526020016000209050600554816000018190555084816001019080519060200190612085929190615534565b50600154855102816002018190555060008160060160006101000a81548160ff021916908360048111156120b557fe5b0217905550838160030181905550600d60003373ffffffffffffffffffffffffffffffffffffffff1673ffffffffffffffffffffffffffffffffffffffff16815260200190815260200160002054816005018190555060018160060160016101000a81548160ff0219169083600181111561212c57fe5b0217905550806000015460076000600d60003373ffffffffffffffffffffffffffffffffffffffff1673ffffffffffffffffffffffffffffffffffffffff168152602001908152602001600020548152602001908152602001600020600101819055507f58d97c9a7f506d49829d9f53a5aad430cff9d6ea208dddd9a7cf01ef5eccbc4081600001548260060160009054906101000a900460ff16604051808381526020018260048111156121dd57fe5b60ff1681526020019250505060405180910390a160019250505092915050565b600080600090505b60086000848152602001908152602001600020600101805490508110156122725783600860008581526020019081526020016000206001018281548110151561224a57fe5b90600052602060002001541415612265576001915050612278565b8080600101915050612205565b60009150505b92915050565b600080600c60003373ffffffffffffffffffffffffffffffffffffffff1673ffffffffffffffffffffffffffffffffffffffff1681526020019081526020016000205411151561235c576040517f08c379a00000000000000000000000000000000000000000000000000000000081526004018080602001828103825260238152602001807f596f75206172656e27742072656769737465726564206173206120736869706d81526020017f656e74000000000000000000000000000000000000000000000000000000000081525060400191505060405180910390fd5b60055482111515156123d6576040517f08c379a00000000000000000000000000000000000000000000000000000000081526004018080602001828103825260138152602001807f4f7264657220646f65736e27742065786973740000000000000000000000000081525060200191505060405180910390fd5b600160048111156123e357fe5b600a600084815260200190815260200160002060060160009054906101000a900460ff16600481111561241257fe5b141515612487576040517f08c379a00000000000000000000000000000000000000000000000000000000081526004018080602001828103825260178152602001807f4f72646572206973206e6f74206f6e207468652077617900000000000000000081525060200191505060405180910390fd5b6002600a600084815260200190815260200160002060060160006101000a81548160ff021916908360048111156124ba57fe5b02179055506000600a600084815260200190815260200160002060060160016101000a81548160ff021916908360018111156124f257fe5b0217905550600a60006005548152602001908152602001600020600a600084815260200190815260200160002060008201548160000155600182018160010190805461253f9291906154e2565b50600282015481600201556003820154816003015560048201548160040155600582015481600501556006820160009054906101000a900460ff168160060160006101000a81548160ff0219169083600481111561259957fe5b02179055506006820160019054906101000a900460ff168160060160016101000a81548160ff021916908360018111156125cf57fe5b02179055509050507f58d97c9a7f506d49829d9f53a5aad430cff9d6ea208dddd9a7cf01ef5eccbc4082600a600085815260200190815260200160002060060160009054906101000a900460ff166040518083815260200182600481111561263357fe5b60ff1681526020019250505060405180910390a17f5b88ca144f1d4b33cbdd6e83ce1eb3c5ea8efc0c2a83ff3a6423827a579e9ba282600a600085815260200190815260200160002060060160019054906101000a900460ff16604051808381526020018260018111156126a357fe5b60ff1681526020019250505060405180910390a160019050919050565b600080600c60003373ffffffffffffffffffffffffffffffffffffffff1673ffffffffffffffffffffffffffffffffffffffff1681526020019081526020016000205411151561279e576040517f08c379a00000000000000000000000000000000000000000000000000000000081526004018080602001828103825260238152602001807f596f75206172656e27742072656769737465726564206173206120736869706d81526020017f656e74000000000000000000000000000000000000000000000000000000000081525060400191505060405180910390fd5b6005548211151515612818576040517f08c379a00000000000000000000000000000000000000000000000000000000081526004018080602001828103825260138152602001807f4f7264657220646f65736e27742065786973740000000000000000000000000081525060200191505060405180910390fd5b6001600481111561282557fe5b600a600084815260200190815260200160002060060160009054906101000a900460ff16600481111561285457fe5b1415156128c9576040517f08c379a00000000000000000000000000000000000000000000000000000000081526004018080602001828103825260178152602001807f4f72646572206973206e6f74206f6e207468652077617900000000000000000081525060200191505060405180910390fd5b6003600a600084815260200190815260200160002060060160006101000a81548160ff021916908360048111156128fc57fe5b02179055506000600a600084815260200190815260200160002060060160016101000a81548160ff0219169083600181111561293457fe5b0217905550600a60006005548152602001908152602001600020600a60008481526020019081526020016000206000820154816000015560018201816001019080546129819291906154e2565b50600282015481600201556003820154816003015560048201548160040155600582015481600501556006820160009054906101000a900460ff168160060160006101000a81548160ff021916908360048111156129db57fe5b02179055506006820160019054906101000a900460ff168160060160016101000a81548160ff02191690836001811115612a1157fe5b02179055509050507f58d97c9a7f506d49829d9f53a5aad430cff9d6ea208dddd9a7cf01ef5eccbc4082600a600085815260200190815260200160002060060160009054906101000a900460ff1660405180838152602001826004811115612a7557fe5b60ff1681526020019250505060405180910390a17f5b88ca144f1d4b33cbdd6e83ce1eb3c5ea8efc0c2a83ff3a6423827a579e9ba282600a600085815260200190815260200160002060060160019054906101000a900460ff1660405180838152602001826001811115612ae557fe5b60ff1681526020019250505060405180910390a160019050919050565b600080600d60003373ffffffffffffffffffffffffffffffffffffffff1673ffffffffffffffffffffffffffffffffffffffff16815260200190815260200160002054111515612be0576040517f08c379a00000000000000000000000000000000000000000000000000000000081526004018080602001828103825260238152602001807f596f75206172656e27742072656769737465726564206173206120637573746f81526020017f6d6572000000000000000000000000000000000000000000000000000000000081525060400191505060405180910390fd5b600060076000600d60003373ffffffffffffffffffffffffffffffffffffffff1673ffffffffffffffffffffffffffffffffffffffff1681526020019081526020016000205481526020019081526020016000206001015414151515612cae576040517f08c379a00000000000000000000000000000000000000000000000000000000081526004018080602001828103825260208152602001807f596f7520646f6e2774206861766520616e7920616374697665206f726465727381525060200191505060405180910390fd5b6005548211151515612d28576040517f08c379a00000000000000000000000000000000000000000000000000000000081526004018080602001828103825260138152602001807f4f7264657220646f65736e27742065786973740000000000000000000000000081525060200191505060405180910390fd5b60026004811115612d3557fe5b600a600084815260200190815260200160002060060160009054906101000a900460ff166004811115612d6457fe5b141515612dd9576040517f08c379a000000000000000000000000000000000000000000000000000000000815260040180806020018281038252601d8152602001807f4f72646572206973206e6f74206f757420666f722064656c697665727900000081525060200191505060405180910390fd5b600d60003373ffffffffffffffffffffffffffffffffffffffff1673ffffffffffffffffffffffffffffffffffffffff16815260200190815260200160002054600a600084815260200190815260200160002060050154141515612ea5576040517f08c379a00000000000000000000000000000000000000000000000000000000081526004018080602001828103825260198152602001807f596f7520646f6e277420686176652074686973206f726465720000000000000081525060200191505060405180910390fd5b6003600a600084815260200190815260200160002060060160006101000a81548160ff02191690836004811115612ed857fe5b0217905550600a60006005548152602001908152602001600020600a6000848152602001908152602001600020600082015481600001556001820181600101908054612f259291906154e2565b50600282015481600201556003820154816003015560048201548160040155600582015481600501556006820160009054906101000a900460ff168160060160006101000a81548160ff02191690836004811115612f7f57fe5b02179055506006820160019054906101000a900460ff168160060160016101000a81548160ff02191690836001811115612fb557fe5b02179055509050507f58d97c9a7f506d49829d9f53a5aad430cff9d6ea208dddd9a7cf01ef5eccbc4082600a600085815260200190815260200160002060060160009054906101000a900460ff166040518083815260200182600481111561301957fe5b60ff1681526020019250505060405180910390a1600a600083815260200190815260200160002060060160009054906101000a900460ff169050919050565b600080600d60003373ffffffffffffffffffffffffffffffffffffffff1673ffffffffffffffffffffffffffffffffffffffff16815260200190815260200160002054111515613136576040517f08c379a00000000000000000000000000000000000000000000000000000000081526004018080602001828103825260238152602001807f596f75206172656e27742072656769737465726564206173206120637573746f81526020017f6d6572000000000000000000000000000000000000000000000000000000000081525060400191505060405180910390fd5b600060076000600d60003373ffffffffffffffffffffffffffffffffffffffff1673ffffffffffffffffffffffffffffffffffffffff1681526020019081526020016000205481526020019081526020016000206001015414151515613204576040517f08c379a00000000000000000000000000000000000000000000000000000000081526004018080602001828103825260208152602001807f596f7520646f6e2774206861766520616e7920616374697665206f726465727381525060200191505060405180910390fd5b600554821115151561327e576040517f08c379a00000000000000000000000000000000000000000000000000000000081526004018080602001828103825260138152602001807f4f7264657220646f65736e27742065786973740000000000000000000000000081525060200191505060405180910390fd5b600d60003373ffffffffffffffffffffffffffffffffffffffff1673ffffffffffffffffffffffffffffffffffffffff16815260200190815260200160002054600a60008481526020019081526020016000206005015414151561334a576040517f08c379a00000000000000000000000000000000000000000000000000000000081526004018080602001828103825260198152602001807f596f7520646f6e277420686176652074686973206f726465720000000000000081525060200191505060405180910390fd5b60048081111561335657fe5b600a600084815260200190815260200160002060060160009054906101000a900460ff16600481111561338557fe5b14151515613421576040517f08c379a00000000000000000000000000000000000000000000000000000000081526004018080602001828103825260238152602001807f596f75206861766520616c72656164792063616e63656c2074686973206f726481526020017f657221000000000000000000000000000000000000000000000000000000000081525060400191505060405180910390fd5b6004600a600084815260200190815260200160002060060160006101000a81548160ff0219169083600481111561345457fe5b0217905550600a60006005548152602001908152602001600020600a60008481526020019081526020016000206000820154816000015560018201816001019080546134a19291906154e2565b50600282015481600201556003820154816003015560048201548160040155600582015481600501556006820160009054906101000a900460ff168160060160006101000a81548160ff021916908360048111156134fb57fe5b02179055506006820160019054906101000a900460ff168160060160016101000a81548160ff0219169083600181111561353157fe5b02179055509050507f58d97c9a7f506d49829d9f53a5aad430cff9d6ea208dddd9a7cf01ef5eccbc4082600a600085815260200190815260200160002060060160009054906101000a900460ff166040518083815260200182600481111561359557fe5b60ff1681526020019250505060405180910390a1600a600083815260200190815260200160002060060160009054906101000a900460ff169050919050565b600080600c60003373ffffffffffffffffffffffffffffffffffffffff1673ffffffffffffffffffffffffffffffffffffffff1681526020019081526020016000205414151561368c576040517f08c379a000000000000000000000000000000000000000000000000000000000815260040180806020018281038252601b8152602001807f536869706d656e7420616c72656164792072656769737465726564000000000081525060200191505060405180910390fd5b6002600081548092919060010191905055506000600960006002548152602001908152602001600020905060025481600001819055508060096000836000015481526020019081526020016000206000820154816000015560018201548160010155600282015481600201559050508060000154600c60003373ffffffffffffffffffffffffffffffffffffffff1673ffffffffffffffffffffffffffffffffffffffff16815260200190815260200160002081905550600191505090565b6000806000600c60003373ffffffffffffffffffffffffffffffffffffffff1673ffffffffffffffffffffffffffffffffffffffff1681526020019081526020016000205411151561382b576040517f08c379a00000000000000000000000000000000000000000000000000000000081526004018080602001828103825260238152602001807f596f75206172656e27742072656769737465726564206173206120736869706d81526020017f656e74000000000000000000000000000000000000000000000000000000000081525060400191505060405180910390fd5b600060076000600d60003373ffffffffffffffffffffffffffffffffffffffff1673ffffffffffffffffffffffffffffffffffffffff16815260200190815260200160002054815260200190815260200160002060010154141515156138f9576040517f08c379a00000000000000000000000000000000000000000000000000000000081526004018080602001828103825260208152602001807f596f7520646f6e2774206861766520616e7920616374697665206f726465727381525060200191505060405180910390fd5b6003548311151515613973576040517f08c379a00000000000000000000000000000000000000000000000000000000081526004018080602001828103825260148152602001807f53656c6c657220646f65736e277420657869737400000000000000000000000081525060200191505060405180910390fd5b60055484111515156139ed576040517f08c379a00000000000000000000000000000000000000000000000000000000081526004018080602001828103825260138152602001807f4f7264657220646f65736e27742065786973740000000000000000000000000081525060200191505060405180910390fd5b6003548311151515613a67576040517f08c379a00000000000000000000000000000000000000000000000000000000081526004018080602001828103825260148152602001807f53656c6c657220646f65736e277420657869737400000000000000000000000081525060200191505060405180910390fd5b6005548411151515613ae1576040517f08c379a00000000000000000000000000000000000000000000000000000000081526004018080602001828103825260138152602001807f4f7264657220646f65736e27742065786973740000000000000000000000000081525060200191505060405180910390fd5b60006004811115613aee57fe5b600a600086815260200190815260200160002060060160009054906101000a900460ff166004811115613b1d57fe5b148015613b63575060006001811115613b3257fe5b600a600086815260200190815260200160002060060160019054906101000a900460ff166001811115613b6157fe5b145b15613b7b576000600181915080905091509150614053565b60006004811115613b8857fe5b600a600086815260200190815260200160002060060160009054906101000a900460ff166004811115613bb757fe5b148015613bfc5750600180811115613bcb57fe5b600a600086815260200190815260200160002060060160019054906101000a900460ff166001811115613bfa57fe5b145b15613c135760008081915080905091509150614053565b60016004811115613c2057fe5b600a600086815260200190815260200160002060060160009054906101000a900460ff166004811115613c4f57fe5b148015613c95575060006001811115613c6457fe5b600a600086815260200190815260200160002060060160019054906101000a900460ff166001811115613c9357fe5b145b15613cac5760018081915080905091509150614053565b60016004811115613cb957fe5b600a600086815260200190815260200160002060060160009054906101000a900460ff166004811115613ce857fe5b148015613d2d5750600180811115613cfc57fe5b600a600086815260200190815260200160002060060160019054906101000a900460ff166001811115613d2b57fe5b145b15613d45576001600081915080905091509150614053565b60026004811115613d5257fe5b600a600086815260200190815260200160002060060160009054906101000a900460ff166004811115613d8157fe5b148015613dc7575060006001811115613d9657fe5b600a600086815260200190815260200160002060060160019054906101000a900460ff166001811115613dc557fe5b145b15613ddf576002600181915080905091509150614053565b60026004811115613dec57fe5b600a600086815260200190815260200160002060060160009054906101000a900460ff166004811115613e1b57fe5b148015613e605750600180811115613e2f57fe5b600a600086815260200190815260200160002060060160019054906101000a900460ff166001811115613e5e57fe5b145b15613e78576002600081915080905091509150614053565b60036004811115613e8557fe5b600a600086815260200190815260200160002060060160009054906101000a900460ff166004811115613eb457fe5b148015613efa575060006001811115613ec957fe5b600a600086815260200190815260200160002060060160019054906101000a900460ff166001811115613ef857fe5b145b15613f12576003600181915080905091509150614053565b60036004811115613f1f57fe5b600a600086815260200190815260200160002060060160009054906101000a900460ff166004811115613f4e57fe5b148015613f935750600180811115613f6257fe5b600a600086815260200190815260200160002060060160019054906101000a900460ff166001811115613f9157fe5b145b15613fab576003600081915080905091509150614053565b600480811115613fb757fe5b600a600086815260200190815260200160002060060160009054906101000a900460ff166004811115613fe657fe5b14801561402c575060006001811115613ffb57fe5b600a600086815260200190815260200160002060060160019054906101000a900460ff16600181111561402a57fe5b145b15614044576004600181915080905091509150614053565b60046000819150809050915091505b9250929050565b600080600c60003373ffffffffffffffffffffffffffffffffffffffff1673ffffffffffffffffffffffffffffffffffffffff16815260200190815260200160002054111515614138576040517f08c379a00000000000000000000000000000000000000000000000000000000081526004018080602001828103825260238152602001807f596f75206172656e27742072656769737465726564206173206120736869706d81526020017f656e74000000000000000000000000000000000000000000000000000000000081525060400191505060405180910390fd5b60055482111515156141b2576040517f08c379a00000000000000000000000000000000000000000000000000000000081526004018080602001828103825260138152602001807f4f7264657220646f65736e27742065786973740000000000000000000000000081525060200191505060405180910390fd5b600160048111156141bf57fe5b600a600084815260200190815260200160002060060160009054906101000a900460ff1660048111156141ee57fe5b141515614263576040517f08c379a00000000000000000000000000000000000000000000000000000000081526004018080602001828103825260178152602001807f4f72646572206973206e6f74206f6e207468652077617900000000000000000081525060200191505060405180910390fd5b6003600a600084815260200190815260200160002060060160006101000a81548160ff0219169083600481111561429657fe5b02179055506001600a600084815260200190815260200160002060060160016101000a81548160ff021916908360018111156142ce57fe5b0217905550600a60006005548152602001908152602001600020600a600084815260200190815260200160002060008201548160000155600182018160010190805461431b9291906154e2565b50600282015481600201556003820154816003015560048201548160040155600582015481600501556006820160009054906101000a900460ff168160060160006101000a81548160ff0219169083600481111561437557fe5b02179055506006820160019054906101000a900460ff168160060160016101000a81548160ff021916908360018111156143ab57fe5b02179055509050507f58d97c9a7f506d49829d9f53a5aad430cff9d6ea208dddd9a7cf01ef5eccbc4082600a600085815260200190815260200160002060060160009054906101000a900460ff166040518083815260200182600481111561440f57fe5b60ff1681526020019250505060405180910390a17f5b88ca144f1d4b33cbdd6e83ce1eb3c5ea8efc0c2a83ff3a6423827a579e9ba282600a600085815260200190815260200160002060060160019054906101000a900460ff166040518083815260200182600181111561447f57fe5b60ff1681526020019250505060405180910390a160019050919050565b6000806000600d60003373ffffffffffffffffffffffffffffffffffffffff1673ffffffffffffffffffffffffffffffffffffffff1681526020019081526020016000205411151561457c576040517f08c379a00000000000000000000000000000000000000000000000000000000081526004018080602001828103825260238152602001807f596f75206172656e27742072656769737465726564206173206120637573746f81526020017f6d6572000000000000000000000000000000000000000000000000000000000081525060400191505060405180910390fd5b600060076000600d60003373ffffffffffffffffffffffffffffffffffffffff1673ffffffffffffffffffffffffffffffffffffffff168152602001908152602001600020548152602001908152602001600020600101541415151561464a576040517f08c379a00000000000000000000000000000000000000000000000000000000081526004018080602001828103825260208152602001807f596f7520646f6e2774206861766520616e7920616374697665206f726465727381525060200191505060405180910390fd5b60035483111515156146c4576040517f08c379a00000000000000000000000000000000000000000000000000000000081526004018080602001828103825260148152602001807f53656c6c657220646f65736e277420657869737400000000000000000000000081525060200191505060405180910390fd5b600554841115151561473e576040517f08c379a00000000000000000000000000000000000000000000000000000000081526004018080602001828103825260138152602001807f4f7264657220646f65736e27742065786973740000000000000000000000000081525060200191505060405180910390fd5b6000600481111561474b57fe5b600a600086815260200190815260200160002060060160009054906101000a900460ff16600481111561477a57fe5b1480156147c057506000600181111561478f57fe5b600a600086815260200190815260200160002060060160019054906101000a900460ff1660018111156147be57fe5b145b156147d8576000600181915080905091509150614cb0565b600060048111156147e557fe5b600a600086815260200190815260200160002060060160009054906101000a900460ff16600481111561481457fe5b148015614859575060018081111561482857fe5b600a600086815260200190815260200160002060060160019054906101000a900460ff16600181111561485757fe5b145b156148705760008081915080905091509150614cb0565b6001600481111561487d57fe5b600a600086815260200190815260200160002060060160009054906101000a900460ff1660048111156148ac57fe5b1480156148f25750600060018111156148c157fe5b600a600086815260200190815260200160002060060160019054906101000a900460ff1660018111156148f057fe5b145b156149095760018081915080905091509150614cb0565b6001600481111561491657fe5b600a600086815260200190815260200160002060060160009054906101000a900460ff16600481111561494557fe5b14801561498a575060018081111561495957fe5b600a600086815260200190815260200160002060060160019054906101000a900460ff16600181111561498857fe5b145b156149a2576001600081915080905091509150614cb0565b600260048111156149af57fe5b600a600086815260200190815260200160002060060160009054906101000a900460ff1660048111156149de57fe5b148015614a245750600060018111156149f357fe5b600a600086815260200190815260200160002060060160019054906101000a900460ff166001811115614a2257fe5b145b15614a3c576002600181915080905091509150614cb0565b60026004811115614a4957fe5b600a600086815260200190815260200160002060060160009054906101000a900460ff166004811115614a7857fe5b148015614abd5750600180811115614a8c57fe5b600a600086815260200190815260200160002060060160019054906101000a900460ff166001811115614abb57fe5b145b15614ad5576002600081915080905091509150614cb0565b60036004811115614ae257fe5b600a600086815260200190815260200160002060060160009054906101000a900460ff166004811115614b1157fe5b148015614b57575060006001811115614b2657fe5b600a600086815260200190815260200160002060060160019054906101000a900460ff166001811115614b5557fe5b145b15614b6f576003600181915080905091509150614cb0565b60036004811115614b7c57fe5b600a600086815260200190815260200160002060060160009054906101000a900460ff166004811115614bab57fe5b148015614bf05750600180811115614bbf57fe5b600a600086815260200190815260200160002060060160019054906101000a900460ff166001811115614bee57fe5b145b15614c08576003600081915080905091509150614cb0565b600480811115614c1457fe5b600a600086815260200190815260200160002060060160009054906101000a900460ff166004811115614c4357fe5b148015614c89575060006001811115614c5857fe5b600a600086815260200190815260200160002060060160019054906101000a900460ff166001811115614c8757fe5b145b15614ca1576004600181915080905091509150614cb0565b60046000819150809050915091505b9250929050565b600080600c60003373ffffffffffffffffffffffffffffffffffffffff1673ffffffffffffffffffffffffffffffffffffffff16815260200190815260200160002054111515614d95576040517f08c379a00000000000000000000000000000000000000000000000000000000081526004018080602001828103825260238152602001807f596f75206172656e27742072656769737465726564206173206120736869706d81526020017f656e74000000000000000000000000000000000000000000000000000000000081525060400191505060405180910390fd5b6005548211151515614e0f576040517f08c379a00000000000000000000000000000000000000000000000000000000081526004018080602001828103825260138152602001807f4f7264657220646f65736e27742065786973740000000000000000000000000081525060200191505060405180910390fd5b60016004811115614e1c57fe5b600a600084815260200190815260200160002060060160009054906101000a900460ff166004811115614e4b57fe5b141515614ec0576040517f08c379a00000000000000000000000000000000000000000000000000000000081526004018080602001828103825260178152602001807f4f72646572206973206e6f74206f6e207468652077617900000000000000000081525060200191505060405180910390fd5b6002600a600084815260200190815260200160002060060160006101000a81548160ff02191690836004811115614ef357fe5b02179055506001600a600084815260200190815260200160002060060160016101000a81548160ff02191690836001811115614f2b57fe5b0217905550600a60006005548152602001908152602001600020600a6000848152602001908152602001600020600082015481600001556001820181600101908054614f789291906154e2565b50600282015481600201556003820154816003015560048201548160040155600582015481600501556006820160009054906101000a900460ff168160060160006101000a81548160ff02191690836004811115614fd257fe5b02179055506006820160019054906101000a900460ff168160060160016101000a81548160ff0219169083600181111561500857fe5b02179055509050507f58d97c9a7f506d49829d9f53a5aad430cff9d6ea208dddd9a7cf01ef5eccbc4082600a600085815260200190815260200160002060060160009054906101000a900460ff166040518083815260200182600481111561506c57fe5b60ff1681526020019250505060405180910390a17f5b88ca144f1d4b33cbdd6e83ce1eb3c5ea8efc0c2a83ff3a6423827a579e9ba282600a600085815260200190815260200160002060060160019054906101000a900460ff16604051808381526020018260018111156150dc57fe5b60ff1681526020019250505060405180910390a160019050919050565b600080600b60003373ffffffffffffffffffffffffffffffffffffffff1673ffffffffffffffffffffffffffffffffffffffff168152602001908152602001600020541415156151b1576040517f08c379a00000000000000000000000000000000000000000000000000000000081526004018080602001828103825260198152602001807f53656c6c657220616c726561647920726567697374657265640000000000000081525060200191505060405180910390fd5b6003600081548092919060010191905055506000600860006003548152602001908152602001600020905060035481600001819055508060010160019080600181540180825580915050906001820390600052602060002001600090919290919091505550806001016002908060018154018082558091505090600182039060005260206000200160009091929091909150555080600101600390806001815401808255809150509060018203906000526020600020016000909192909190915055508060010160049080600181540180825580915050906001820390600052602060002001600090919290919091505550806001016005908060018154018082558091505090600182039060005260206000200160009091929091909150555080600860008360000154815260200190815260200160002060008201548160000155600182018160010190805461530a9291906154e2565b509050508060000154600b60003373ffffffffffffffffffffffffffffffffffffffff1673ffffffffffffffffffffffffffffffffffffffff16815260200190815260200160002081905550600191505090565b600080600d60003373ffffffffffffffffffffffffffffffffffffffff1673ffffffffffffffffffffffffffffffffffffffff1681526020019081526020016000205490506000811415156153b657809150506154df565b600c60003373ffffffffffffffffffffffffffffffffffffffff1673ffffffffffffffffffffffffffffffffffffffff16815260200190815260200160002054905060008114151561540b57809150506154df565b600b60003373ffffffffffffffffffffffffffffffffffffffff1673ffffffffffffffffffffffffffffffffffffffff16815260200190815260200160002054905060008114151561546057809150506154df565b600081141515156154d9576040517f08c379a00000000000000000000000000000000000000000000000000000000081526004018080602001828103825260158152602001807f596f75206172656e27742072656769737465726564000000000000000000000081525060200191505060405180910390fd5b60009150505b90565b8280548282559060005260206000209081019282156155235760005260206000209182015b82811115615522578254825591600101919060010190615507565b5b5090506155309190615581565b5090565b828054828255906000526020600020908101928215615570579160200282015b8281111561556f578251825591602001919060010190615554565b5b50905061557d9190615581565b5090565b6155a391905b8082111561559f576000816000905550600101615587565b5090565b9056fea165627a7a723058207a8c9fb76fd7dda38528128ac845e52a25f72ee9e4068933904638913ddf5a750029",
  "source": "pragma solidity ^0.5.0;\n\ncontract DecentralizedShipment {\n    uint delivery_fee = 1;\n    uint product_cost = 5;\n    uint shipment_count = 0;\n    uint seller_count = 0;\n    uint customer_count = 0;\n    uint order_count = 0;\n    uint time_limit = 5;\n    \n  \n     // Order status enum that will be used in our system in order to know the status of the order.\n    enum OrderStatus {\n        preparing,  // Order is being prepared.\n        ontheway,   //  Order is on the way.\n        outfordelivery, // Order is out for delivery.\n        received,   //  Order is received.\n        cancelled   //  Order is cancelled by user.\n    }\n    enum ProductStatus{\n        damaged,\n        not_damaged\n    }\n    \n    // Order struct which contains order details that will be used in our system in order to create order.\n    struct Order{\n        uint id;                    //This is the ID of the order and it's unique.\n        uint[] products;            //This is the array of products that will be ordered.\n        uint price;                 //This is the total price of the order.\n        uint seller;                //This is the seller of the order.\n        uint shipment;              // This is the shipment of the order.    \n        uint customer;              //This is the customer of the order.\n        OrderStatus status;     //This is the status of the order.\n        ProductStatus pStatus;           //This represents the order being damaged or not.\n    }\n \n\n    struct Customer {\n        uint id;\n        uint cur_order;\n        uint last_order;\n    }\n    \n    struct Seller {\n        uint id;\n        uint[] product_list;\n    }\n    \n    struct Shipment {\n        uint id;\n        uint cur_order;\n        uint order_count;\n    }\n    \n    \n    \n    mapping(uint => Customer) customer_details;\n    mapping(uint => Seller) seller_details;\n    mapping(uint => Shipment) shipment_details;\n    mapping(uint => Order) order_details;\n    \n    mapping(address => uint) get_seller_id;\n    mapping(address => uint ) get_shipment_id;\n    mapping(address => uint) get_customer_id;\n    \n    \n    /* ---------------EVENTS----------------- */\n    \n    event order_status_update(uint order_id, OrderStatus status);\n    event order_damaged_update(uint order_id, ProductStatus pStatus);\n    \n    /* ---------------MODIFIERS-------------- */\n    \n    modifier is_customer() {\n        require(get_customer_id[msg.sender] > 0, \"You aren't registered as a customer\");\n        _;\n    }\n    \n    modifier is_shipment() {\n        require(get_shipment_id[msg.sender] > 0, \"You aren't registered as a shipment\");\n        _;\n    }\n    \n    modifier is_seller() {\n        require(get_seller_id[msg.sender] > 0, \"You aren't registered as a seller\");\n        _;\n    }\n    \n    modifier has_ordered() {\n        require(customer_details[get_customer_id[msg.sender]].cur_order != 0, \"You don't have any active orders\");\n        _;\n    }\n    \n    /* ---------------UTILITY FUNCTIONS------ */\n    \n \n    function product_exists(uint item, uint seller_id) \n    public view returns(bool) {\n        uint i;\n        for (i = 0; i < seller_details[seller_id].product_list.length; i++) {\n            if (seller_details[seller_id].product_list[i] == item) {\n                return true;\n            }\n        }\n        return false;\n    }\n    \n    function get_id() public view returns(uint) {\n        uint id;\n        id = get_customer_id[msg.sender];\n        if (id != 0)\n            return id;\n            \n        id = get_shipment_id[msg.sender];\n        if (id != 0)\n            return id;\n            \n        id = get_seller_id[msg.sender];\n        if (id != 0)\n            return id;\n            \n        require(id != 0, \"You aren't registered\");\n        return 0;\n    }\n    \n\n\n    /* ---------------CUSTOMER--------------- */\n    function register_customer() public returns(bool) {\n        \n        require(get_customer_id[msg.sender] == 0, \"Customer already registered\");\n        customer_count++;\n        Customer storage customer = customer_details[customer_count];\n        customer.id = customer_count;\n        customer.cur_order = 0;\n        customer_details[customer.id] = customer;\n        get_customer_id[msg.sender] = customer.id;\n        return true;\n    }\n    \n    function give_order(uint[] memory products, uint seller_id) is_customer() public payable returns(bool) {\n        require(seller_id <= seller_count, \"Seller doesn't exist\");\n        require(customer_details[get_customer_id[msg.sender]].cur_order == 0, \"Already given order\");\n        //require(products.length * product_cost + delivery_fee == msg.value, \"Insufficient amount\");\n        uint i;\n        for (i = 0; i < products.length; i++) {\n            require(product_exists(products[i], seller_id) == true, \"Item doesn't exist\");\n        }\n\n        order_count++;\n        Order storage o = order_details[order_count];\n        o.id = order_count;\n        o.products = products;\n        o.price = products.length * product_cost;\n        o.status = OrderStatus.preparing;\n        o.seller = seller_id;\n        o.customer = get_customer_id[msg.sender];\n        o.pStatus = ProductStatus.not_damaged;\n        \n        customer_details[get_customer_id[msg.sender]].cur_order = o.id;\n        emit order_status_update(o.id, o.status);\n        return true;\n    }\n    function check_order_status_customer(uint order_id, uint seller_id) is_customer() has_ordered() public view returns(uint,uint) {\n        require(seller_id <= seller_count, \"Seller doesn't exist\");\n        require(order_id <= order_count, \"Order doesn't exist\");\n    \n        if(order_details[order_id].status == OrderStatus.preparing && order_details[order_id].pStatus == ProductStatus.damaged) {\n            return (0,1);\n        }else if(order_details[order_id].status == OrderStatus.preparing && order_details[order_id].pStatus == ProductStatus.not_damaged) {\n             return (0,0);\n        }else if(order_details[order_id].status == OrderStatus.ontheway && order_details[order_id].pStatus == ProductStatus.damaged) {\n            return (1,1);\n        }else if(order_details[order_id].status == OrderStatus.ontheway && order_details[order_id].pStatus == ProductStatus.not_damaged) {\n             return (1,0);\n        }else if(order_details[order_id].status == OrderStatus.outfordelivery && order_details[order_id].pStatus == ProductStatus.damaged) {\n             return (2,1);\n        }else if(order_details[order_id].status == OrderStatus.outfordelivery && order_details[order_id].pStatus == ProductStatus.not_damaged) {\n             return (2,0);\n        }else if(order_details[order_id].status == OrderStatus.received && order_details[order_id].pStatus == ProductStatus.damaged) {\n             return (3,1);\n        }else if(order_details[order_id].status == OrderStatus.received && order_details[order_id].pStatus == ProductStatus.not_damaged) {\n             return (3,0);\n        }else if(order_details[order_id].status == OrderStatus.cancelled && order_details[order_id].pStatus == ProductStatus.damaged) {\n             return (4,1);\n        }else {\n            return (4,0);\n        }\n    }\n    function cancel_order(uint order_id) is_customer() has_ordered() public returns(OrderStatus) {\n        require(order_id <= order_count, \"Order doesn't exist\");\n        require(order_details[order_id].customer == get_customer_id[msg.sender], \"You don't have this order\");\n        require(order_details[order_id].status != OrderStatus.cancelled, \"You have already cancel this order!\");\n        order_details[order_id].status = OrderStatus.cancelled;\n        order_details[order_id] = order_details[order_count];\n        emit order_status_update(order_id, order_details[order_id].status);\n        return order_details[order_id].status ;\n    }\n\n    function receive_order(uint order_id) is_customer() has_ordered() public returns(OrderStatus)  {\n        require(order_id <= order_count, \"Order doesn't exist\");\n        require(order_details[order_id].status == OrderStatus.outfordelivery, \"Order is not out for delivery\");\n        require(order_details[order_id].customer == get_customer_id[msg.sender], \"You don't have this order\");\n        order_details[order_id].status = OrderStatus.received;\n        order_details[order_id] = order_details[order_count];\n        emit order_status_update(order_id, order_details[order_id].status);\n        return order_details[order_id].status;\n    }\n\n    /* ---------------SELLER--------------- */\n\n    function register_seller() public returns(bool) {\n        require(get_seller_id[msg.sender] == 0, \"Seller already registered\");\n\n        seller_count++;\n        Seller storage seller = seller_details[seller_count];\n        seller.id = seller_count;\n        seller.product_list.push(1);\n        seller.product_list.push(2);\n        seller.product_list.push(3);\n        seller.product_list.push(4);\n        seller.product_list.push(5);\n        seller_details[seller.id] = seller;\n        get_seller_id[msg.sender] = seller.id;\n        return true;\n    }\n\n    function transfer_order_to_shipment(uint order_id) is_seller() has_ordered() public payable returns(OrderStatus) {\n        require(order_id <= order_count, \"Order doesn't exist\");\n        require(order_details[order_id].status == OrderStatus.preparing, \"Order is not prepared\");\n        order_details[order_id].status = OrderStatus.ontheway;\n        return order_details[order_id].status;\n    }\n\n    function check_order_status_seller(uint order_id, uint seller_id) is_seller() has_ordered() public view returns(uint, uint) {\n        require(seller_id <= seller_count, \"Seller doesn't exist\");\n        require(order_id <= order_count, \"Order doesn't exist\");\n         require(seller_id <= seller_count, \"Seller doesn't exist\");\n        require(order_id <= order_count, \"Order doesn't exist\");\n    \n        if(order_details[order_id].status == OrderStatus.preparing && order_details[order_id].pStatus == ProductStatus.damaged) {\n            return (0,1);\n        }else if(order_details[order_id].status == OrderStatus.preparing && order_details[order_id].pStatus == ProductStatus.not_damaged) {\n             return (0,0);\n        }else if(order_details[order_id].status == OrderStatus.ontheway && order_details[order_id].pStatus == ProductStatus.damaged) {\n            return (1,1);\n        }else if(order_details[order_id].status == OrderStatus.ontheway && order_details[order_id].pStatus == ProductStatus.not_damaged) {\n             return (1,0);\n        }else if(order_details[order_id].status == OrderStatus.outfordelivery && order_details[order_id].pStatus == ProductStatus.damaged) {\n             return (2,1);\n        }else if(order_details[order_id].status == OrderStatus.outfordelivery && order_details[order_id].pStatus == ProductStatus.not_damaged) {\n             return (2,0);\n        }else if(order_details[order_id].status == OrderStatus.received && order_details[order_id].pStatus == ProductStatus.damaged) {\n             return (3,1);\n        }else if(order_details[order_id].status == OrderStatus.received && order_details[order_id].pStatus == ProductStatus.not_damaged) {\n             return (3,0);\n        }else if(order_details[order_id].status == OrderStatus.cancelled && order_details[order_id].pStatus == ProductStatus.damaged) {\n             return (4,1);\n        }else {\n            return (4,0);\n        }\n    }\n\n    /* ---------------SHIPMENT--------------- */\n    \n    function register_shipment() public returns(bool) {\n        require(get_shipment_id[msg.sender] == 0, \"Shipment already registered\");\n        shipment_count++;\n        Shipment storage shipment = shipment_details[shipment_count];\n        shipment.id = shipment_count;\n        shipment_details[shipment.id] = shipment;\n        get_shipment_id[msg.sender] = shipment.id;\n        return true;\n    }\n    function update_status_to_ofd_and_damaged(uint order_id ) is_shipment() public returns(bool) {\n        require(order_id <= order_count, \"Order doesn't exist\");\n        require(order_details[order_id].status == OrderStatus.ontheway, \"Order is not on the way\");\n        order_details[order_id].status = OrderStatus.outfordelivery;\n        order_details[order_id].pStatus = ProductStatus.damaged;\n        order_details[order_id] = order_details[order_count];\n        emit order_status_update(order_id, order_details[order_id].status);\n        emit order_damaged_update(order_id, order_details[order_id].pStatus);\n        return true;\n    }\n    function update_status_to_ofd_and_not_damaged(uint order_id) is_shipment() public returns(bool) {\n        require(order_id <= order_count, \"Order doesn't exist\");\n        require(order_details[order_id].status == OrderStatus.ontheway, \"Order is not on the way\");\n        order_details[order_id].status = OrderStatus.outfordelivery;\n        order_details[order_id].pStatus = ProductStatus.not_damaged;\n        order_details[order_id] = order_details[order_count];\n        emit order_status_update(order_id, order_details[order_id].status);\n        emit order_damaged_update(order_id, order_details[order_id].pStatus);\n        return true;\n    }\n    function update_status_to_received_and_damaged(uint order_id ) is_shipment() public returns(bool) {\n        require(order_id <= order_count, \"Order doesn't exist\");\n        require(order_details[order_id].status == OrderStatus.ontheway, \"Order is not on the way\");\n        order_details[order_id].status = OrderStatus.received;\n        order_details[order_id].pStatus = ProductStatus.damaged;\n        order_details[order_id] = order_details[order_count];\n        emit order_status_update(order_id, order_details[order_id].status);\n        emit order_damaged_update(order_id, order_details[order_id].pStatus);\n        return true;\n    }\n    function update_status_to_received_and_not_damaged(uint order_id ) is_shipment() public returns(bool) {\n        require(order_id <= order_count, \"Order doesn't exist\");\n        require(order_details[order_id].status == OrderStatus.ontheway, \"Order is not on the way\");\n        order_details[order_id].status = OrderStatus.received;\n        order_details[order_id].pStatus = ProductStatus.not_damaged;\n        order_details[order_id] = order_details[order_count];\n        emit order_status_update(order_id, order_details[order_id].status);\n        emit order_damaged_update(order_id, order_details[order_id].pStatus);\n        return true;\n    }\n     function update_status_to_cancelled_and_damaged(uint order_id ) is_shipment() public returns(bool) {\n        require(order_id <= order_count, \"Order doesn't exist\");\n        require(order_details[order_id].status == OrderStatus.ontheway, \"Order is not on the way\");\n        order_details[order_id].status = OrderStatus.cancelled;\n        order_details[order_id].pStatus = ProductStatus.damaged;\n        order_details[order_id] = order_details[order_count];\n        emit order_status_update(order_id, order_details[order_id].status);\n        emit order_damaged_update(order_id, order_details[order_id].pStatus);\n        return true;\n    }\n     function update_status_to_cancelled_and_not_damaged(uint order_id ) is_shipment() public returns(bool) {\n        require(order_id <= order_count, \"Order doesn't exist\");\n        require(order_details[order_id].status == OrderStatus.ontheway, \"Order is not on the way\");\n        order_details[order_id].status = OrderStatus.cancelled;\n        order_details[order_id].pStatus = ProductStatus.not_damaged;\n        order_details[order_id] = order_details[order_count];\n        emit order_status_update(order_id, order_details[order_id].status);\n        emit order_damaged_update(order_id, order_details[order_id].pStatus);\n        return true;\n    }\n    function check_order_status_shipment(uint order_id, uint seller_id) is_shipment() has_ordered() public view returns(uint,uint) {\n        require(seller_id <= seller_count, \"Seller doesn't exist\");\n        require(order_id <= order_count, \"Order doesn't exist\");\n         require(seller_id <= seller_count, \"Seller doesn't exist\");\n        require(order_id <= order_count, \"Order doesn't exist\");\n    \n        if(order_details[order_id].status == OrderStatus.preparing && order_details[order_id].pStatus == ProductStatus.damaged) {\n            return (0,1);\n        }else if(order_details[order_id].status == OrderStatus.preparing && order_details[order_id].pStatus == ProductStatus.not_damaged) {\n             return (0,0);\n        }else if(order_details[order_id].status == OrderStatus.ontheway && order_details[order_id].pStatus == ProductStatus.damaged) {\n            return (1,1);\n        }else if(order_details[order_id].status == OrderStatus.ontheway && order_details[order_id].pStatus == ProductStatus.not_damaged) {\n             return (1,0);\n        }else if(order_details[order_id].status == OrderStatus.outfordelivery && order_details[order_id].pStatus == ProductStatus.damaged) {\n             return (2,1);\n        }else if(order_details[order_id].status == OrderStatus.outfordelivery && order_details[order_id].pStatus == ProductStatus.not_damaged) {\n             return (2,0);\n        }else if(order_details[order_id].status == OrderStatus.received && order_details[order_id].pStatus == ProductStatus.damaged) {\n             return (3,1);\n        }else if(order_details[order_id].status == OrderStatus.received && order_details[order_id].pStatus == ProductStatus.not_damaged) {\n             return (3,0);\n        }else if(order_details[order_id].status == OrderStatus.cancelled && order_details[order_id].pStatus == ProductStatus.damaged) {\n             return (4,1);\n        }else {\n            return (4,0);\n        }\n    }\n\n  \n    \n}",
  "sourcePath": "/Users/hasanaliozkan/Desktop/Ders/Decentralized/Decentralized Shipment/Decentralized_Shipment/contracts/DecentralizedShipment.sol",
  "compiler": {
    "name": "solc",
    "version": "0.5.0+commit.1d4f565a.Emscripten.clang"
  },
  "schemaVersion": "3.0.1",
  "updatedAt": "2022-06-01T14:22:40.695Z",
  "devdoc": {
    "methods": {}
  },
  "userdoc": {
    "methods": {}
  }
}