{
  "contractName": "DecentralizedShipment",
  "abi": [
    {
      "anonymous": false,
      "inputs": [
        {
          "indexed": false,
          "internalType": "uint256",
          "name": "order_id",
          "type": "uint256"
        },
        {
          "indexed": false,
          "internalType": "enum DecentralizedShipment.ProductStatus",
          "name": "pStatus",
          "type": "uint8"
        }
      ],
      "name": "order_damaged_update",
      "type": "event"
    },
    {
      "anonymous": false,
      "inputs": [
        {
          "indexed": false,
          "internalType": "uint256",
          "name": "order_id",
          "type": "uint256"
        },
        {
          "indexed": false,
          "internalType": "enum DecentralizedShipment.OrderStatus",
          "name": "status",
          "type": "uint8"
        }
      ],
      "name": "order_status_update",
      "type": "event"
    },
    {
      "constant": true,
      "inputs": [
        {
          "internalType": "uint256",
          "name": "item",
          "type": "uint256"
        },
        {
          "internalType": "uint256",
          "name": "seller_id",
          "type": "uint256"
        }
      ],
      "name": "product_exists",
      "outputs": [
        {
          "internalType": "bool",
          "name": "",
          "type": "bool"
        }
      ],
      "payable": false,
      "stateMutability": "view",
      "type": "function"
    },
    {
      "constant": true,
      "inputs": [],
      "name": "get_id",
      "outputs": [
        {
          "internalType": "uint256",
          "name": "",
          "type": "uint256"
        }
      ],
      "payable": false,
      "stateMutability": "view",
      "type": "function"
    },
    {
      "constant": false,
      "inputs": [],
      "name": "register_customer",
      "outputs": [
        {
          "internalType": "bool",
          "name": "",
          "type": "bool"
        }
      ],
      "payable": false,
      "stateMutability": "nonpayable",
      "type": "function"
    },
    {
      "constant": false,
      "inputs": [
        {
          "internalType": "uint256",
          "name": "product_id",
          "type": "uint256"
        },
        {
          "internalType": "uint256",
          "name": "seller_id",
          "type": "uint256"
        }
      ],
      "name": "give_order",
      "outputs": [
        {
          "internalType": "bool",
          "name": "",
          "type": "bool"
        }
      ],
      "payable": true,
      "stateMutability": "payable",
      "type": "function"
    },
    {
      "constant": true,
      "inputs": [
        {
          "internalType": "uint256",
          "name": "order_id",
          "type": "uint256"
        },
        {
          "internalType": "uint256",
          "name": "seller_id",
          "type": "uint256"
        }
      ],
      "name": "check_order_status_customer",
      "outputs": [
        {
          "internalType": "enum DecentralizedShipment.OrderStatus",
          "name": "",
          "type": "uint8"
        },
        {
          "internalType": "enum DecentralizedShipment.ProductStatus",
          "name": "",
          "type": "uint8"
        }
      ],
      "payable": false,
      "stateMutability": "view",
      "type": "function"
    },
    {
      "constant": false,
      "inputs": [
        {
          "internalType": "uint256",
          "name": "order_id",
          "type": "uint256"
        }
      ],
      "name": "cancel_order",
      "outputs": [
        {
          "internalType": "bool",
          "name": "",
          "type": "bool"
        }
      ],
      "payable": false,
      "stateMutability": "nonpayable",
      "type": "function"
    },
    {
      "constant": false,
      "inputs": [
        {
          "internalType": "uint256",
          "name": "order_id",
          "type": "uint256"
        }
      ],
      "name": "receive_order",
      "outputs": [
        {
          "internalType": "bool",
          "name": "",
          "type": "bool"
        }
      ],
      "payable": false,
      "stateMutability": "nonpayable",
      "type": "function"
    },
    {
      "constant": false,
      "inputs": [],
      "name": "register_seller",
      "outputs": [
        {
          "internalType": "bool",
          "name": "",
          "type": "bool"
        }
      ],
      "payable": false,
      "stateMutability": "nonpayable",
      "type": "function"
    },
    {
      "constant": false,
      "inputs": [
        {
          "internalType": "uint256",
          "name": "order_id",
          "type": "uint256"
        }
      ],
      "name": "receive_and_prepare_the_order",
      "outputs": [
        {
          "internalType": "bool",
          "name": "",
          "type": "bool"
        }
      ],
      "payable": false,
      "stateMutability": "nonpayable",
      "type": "function"
    },
    {
      "constant": false,
      "inputs": [
        {
          "internalType": "uint256",
          "name": "order_id",
          "type": "uint256"
        }
      ],
      "name": "transfer_order_to_shipment",
      "outputs": [
        {
          "internalType": "bool",
          "name": "",
          "type": "bool"
        }
      ],
      "payable": true,
      "stateMutability": "payable",
      "type": "function"
    },
    {
      "constant": true,
      "inputs": [
        {
          "internalType": "uint256",
          "name": "order_id",
          "type": "uint256"
        },
        {
          "internalType": "uint256",
          "name": "seller_id",
          "type": "uint256"
        }
      ],
      "name": "check_order_status_seller",
      "outputs": [
        {
          "internalType": "enum DecentralizedShipment.OrderStatus",
          "name": "",
          "type": "uint8"
        },
        {
          "internalType": "enum DecentralizedShipment.ProductStatus",
          "name": "",
          "type": "uint8"
        }
      ],
      "payable": false,
      "stateMutability": "view",
      "type": "function"
    },
    {
      "constant": false,
      "inputs": [],
      "name": "register_shipment",
      "outputs": [
        {
          "internalType": "bool",
          "name": "",
          "type": "bool"
        }
      ],
      "payable": false,
      "stateMutability": "nonpayable",
      "type": "function"
    },
    {
      "constant": false,
      "inputs": [
        {
          "internalType": "uint256",
          "name": "order_id",
          "type": "uint256"
        }
      ],
      "name": "receive_and_ship_the_order",
      "outputs": [
        {
          "internalType": "bool",
          "name": "",
          "type": "bool"
        }
      ],
      "payable": false,
      "stateMutability": "nonpayable",
      "type": "function"
    },
    {
      "constant": false,
      "inputs": [
        {
          "internalType": "uint256",
          "name": "order_id",
          "type": "uint256"
        }
      ],
      "name": "update_status_to_otwtc_and_damaged",
      "outputs": [
        {
          "internalType": "bool",
          "name": "",
          "type": "bool"
        }
      ],
      "payable": false,
      "stateMutability": "nonpayable",
      "type": "function"
    },
    {
      "constant": false,
      "inputs": [
        {
          "internalType": "uint256",
          "name": "order_id",
          "type": "uint256"
        }
      ],
      "name": "update_status_to_otwtc_and_not_damaged",
      "outputs": [
        {
          "internalType": "bool",
          "name": "",
          "type": "bool"
        }
      ],
      "payable": false,
      "stateMutability": "nonpayable",
      "type": "function"
    },
    {
      "constant": false,
      "inputs": [
        {
          "internalType": "uint256",
          "name": "order_id",
          "type": "uint256"
        }
      ],
      "name": "update_status_to_ofd_and_damaged",
      "outputs": [
        {
          "internalType": "bool",
          "name": "",
          "type": "bool"
        }
      ],
      "payable": false,
      "stateMutability": "nonpayable",
      "type": "function"
    },
    {
      "constant": false,
      "inputs": [
        {
          "internalType": "uint256",
          "name": "order_id",
          "type": "uint256"
        }
      ],
      "name": "update_status_to_ofd_and_not_damaged",
      "outputs": [
        {
          "internalType": "bool",
          "name": "",
          "type": "bool"
        }
      ],
      "payable": false,
      "stateMutability": "nonpayable",
      "type": "function"
    },
    {
      "constant": false,
      "inputs": [
        {
          "internalType": "uint256",
          "name": "order_id",
          "type": "uint256"
        }
      ],
      "name": "update_status_to_received_and_damaged",
      "outputs": [
        {
          "internalType": "bool",
          "name": "",
          "type": "bool"
        }
      ],
      "payable": false,
      "stateMutability": "nonpayable",
      "type": "function"
    },
    {
      "constant": false,
      "inputs": [
        {
          "internalType": "uint256",
          "name": "order_id",
          "type": "uint256"
        }
      ],
      "name": "update_status_to_received_and_not_damaged",
      "outputs": [
        {
          "internalType": "bool",
          "name": "",
          "type": "bool"
        }
      ],
      "payable": false,
      "stateMutability": "nonpayable",
      "type": "function"
    },
    {
      "constant": false,
      "inputs": [
        {
          "internalType": "uint256",
          "name": "order_id",
          "type": "uint256"
        }
      ],
      "name": "update_status_to_cancelled_and_damaged",
      "outputs": [
        {
          "internalType": "bool",
          "name": "",
          "type": "bool"
        }
      ],
      "payable": false,
      "stateMutability": "nonpayable",
      "type": "function"
    },
    {
      "constant": false,
      "inputs": [
        {
          "internalType": "uint256",
          "name": "order_id",
          "type": "uint256"
        }
      ],
      "name": "update_status_to_cancelled_and_not_damaged",
      "outputs": [
        {
          "internalType": "bool",
          "name": "",
          "type": "bool"
        }
      ],
      "payable": false,
      "stateMutability": "nonpayable",
      "type": "function"
    },
    {
      "constant": true,
      "inputs": [
        {
          "internalType": "uint256",
          "name": "order_id",
          "type": "uint256"
        },
        {
          "internalType": "uint256",
          "name": "seller_id",
          "type": "uint256"
        }
      ],
      "name": "check_order_status_shipment",
      "outputs": [
        {
          "internalType": "enum DecentralizedShipment.OrderStatus",
          "name": "",
          "type": "uint8"
        },
        {
          "internalType": "enum DecentralizedShipment.ProductStatus",
          "name": "",
          "type": "uint8"
        }
      ],
      "payable": false,
      "stateMutability": "view",
      "type": "function"
    }
  ],
  "bytecode": "0x60806040526005600055600060015560006002556000600355600060045534801561002957600080fd5b50614cf6806100396000396000f3fe6080604052600436106101355760003560e01c8063ae4aad2f116100ab578063cd04b1621161006f578063cd04b1621461066e578063ce59b43c146106c1578063dc7a045b1461073d578063e4e6789b14610790578063ea4c715b146107e3578063f43fa8051461081257610135565b8063ae4aad2f146104cd578063b20a9aa91461051d578063b6bd2ee214610570578063c29d28eb146105c3578063cae8f5ce146105f257610135565b806349f29717116100fd57806349f29717146102de5780634a3ca965146103245780637b65d7801461037757806385d0c229146103ca5780638fc064c714610427578063addfa9971461047a57610135565b80630df26cc71461013a57806316212cde1461018d578063197a9997146101bc5780632f41dd6f1461020f578063373d465c1461028b575b600080fd5b34801561014657600080fd5b506101736004803603602081101561015d57600080fd5b810190808035906020019092919050505061083d565b604051808215151515815260200191505060405180910390f35b34801561019957600080fd5b506101a2610c37565b604051808215151515815260200191505060405180910390f35b3480156101c857600080fd5b506101f5600480360360208110156101df57600080fd5b8101908080359060200190929190505050610db6565b604051808215151515815260200191505060405180910390f35b34801561021b57600080fd5b506102526004803603604081101561023257600080fd5b8101908080359060200190929190803590602001909291905050506111af565b6040518083600781111561026257fe5b60ff16815260200182600181111561027657fe5b60ff1681526020019250505060405180910390f35b34801561029757600080fd5b506102c4600480360360208110156102ae57600080fd5b810190808035906020019092919050505061138d565b604051808215151515815260200191505060405180910390f35b61030a600480360360208110156102f457600080fd5b81019080803590602001909291905050506116cc565b604051808215151515815260200191505060405180910390f35b34801561033057600080fd5b5061035d6004803603602081101561034757600080fd5b81019080803590602001909291905050506118cd565b604051808215151515815260200191505060405180910390f35b34801561038357600080fd5b506103b06004803603602081101561039a57600080fd5b8101908080359060200190929190505050611c1f565b604051808215151515815260200191505060405180910390f35b3480156103d657600080fd5b5061040d600480360360408110156103ed57600080fd5b810190808035906020019092919080359060200190929190505050611ee9565b604051808215151515815260200191505060405180910390f35b34801561043357600080fd5b506104606004803603602081101561044a57600080fd5b8101908080359060200190929190505050611f68565b604051808215151515815260200191505060405180910390f35b34801561048657600080fd5b506104b36004803603602081101561049d57600080fd5b8101908080359060200190929190505050612344565b604051808215151515815260200191505060405180910390f35b610503600480360360408110156104e357600080fd5b810190808035906020019092919080359060200190929190505050612764565b604051808215151515815260200191505060405180910390f35b34801561052957600080fd5b506105566004803603602081101561054057600080fd5b8101908080359060200190929190505050612ba1565b604051808215151515815260200191505060405180910390f35b34801561057c57600080fd5b506105a96004803603602081101561059357600080fd5b810190808035906020019092919050505061311b565b604051808215151515815260200191505060405180910390f35b3480156105cf57600080fd5b506105d8613695565b604051808215151515815260200191505060405180910390f35b3480156105fe57600080fd5b506106356004803603604081101561061557600080fd5b81019080803590602001909291908035906020019092919050505061380a565b6040518083600781111561064557fe5b60ff16815260200182600181111561065957fe5b60ff1681526020019250505060405180910390f35b34801561067a57600080fd5b506106a76004803603602081101561069157600080fd5b81019080803590602001909291905050506139e8565b604051808215151515815260200191505060405180910390f35b3480156106cd57600080fd5b50610704600480360360408110156106e457600080fd5b810190808035906020019092919080359060200190929190505050613d60565b6040518083600781111561071457fe5b60ff16815260200182600181111561072857fe5b60ff1681526020019250505060405180910390f35b34801561074957600080fd5b506107766004803603602081101561076057600080fd5b810190808035906020019092919050505061400a565b604051808215151515815260200191505060405180910390f35b34801561079c57600080fd5b506107c9600480360360208110156107b357600080fd5b810190808035906020019092919050505061433e565b604051808215151515815260200191505060405180910390f35b3480156107ef57600080fd5b506107f86146ff565b604051808215151515815260200191505060405180910390f35b34801561081e57600080fd5b50610827614962565b6040518082815260200191505060405180910390f35b600080600a60003373ffffffffffffffffffffffffffffffffffffffff1673ffffffffffffffffffffffffffffffffffffffff16815260200190815260200160002054116108d6576040517f08c379a0000000000000000000000000000000000000000000000000000000008152600401808060200182810382526023815260200180614be76023913960400191505060405180910390fd5b60045482111561094e576040517f08c379a00000000000000000000000000000000000000000000000000000000081526004018080602001828103825260138152602001807f4f7264657220646f65736e27742065786973740000000000000000000000000081525060200191505060405180910390fd5b6006600781111561095b57fe5b6008600084815260200190815260200160002060060160009054906101000a900460ff16600781111561098a57fe5b14156109fe576040517f08c379a00000000000000000000000000000000000000000000000000000000081526004018080602001828103825260198152602001807f4f7264657220697320616c72656164792072656365697665640000000000000081525060200191505060405180910390fd5b60076008600084815260200190815260200160002060060160006101000a81548160ff02191690836007811115610a3157fe5b021790555060006008600084815260200190815260200160002060060160016101000a81548160ff02191690836001811115610a6957fe5b021790555060086000600454815260200190815260200160002060086000848152602001908152602001600020600082015481600001556001820181600101908054610ab6929190614ade565b50600282015481600201556003820154816003015560048201548160040155600582015481600501556006820160009054906101000a900460ff168160060160006101000a81548160ff02191690836007811115610b1057fe5b02179055506006820160019054906101000a900460ff168160060160016101000a81548160ff02191690836001811115610b4657fe5b02179055509050507f58d97c9a7f506d49829d9f53a5aad430cff9d6ea208dddd9a7cf01ef5eccbc40826008600085815260200190815260200160002060060160009054906101000a900460ff1660405180838152602001826007811115610baa57fe5b60ff1681526020019250505060405180910390a17f5b88ca144f1d4b33cbdd6e83ce1eb3c5ea8efc0c2a83ff3a6423827a579e9ba2826008600085815260200190815260200160002060060160019054906101000a900460ff1660405180838152602001826001811115610c1a57fe5b60ff1681526020019250505060405180910390a160019050919050565b600080600b60003373ffffffffffffffffffffffffffffffffffffffff1673ffffffffffffffffffffffffffffffffffffffff1681526020019081526020016000205414610ced576040517f08c379a000000000000000000000000000000000000000000000000000000000815260040180806020018281038252601b8152602001807f437573746f6d657220616c72656164792072656769737465726564000000000081525060200191505060405180910390fd5b600360008154809291906001019190505550600060056000600354815260200190815260200160002090506003548160000181905550600081600101819055508060056000836000015481526020019081526020016000206000820154816000015560018201548160010155600282015481600201559050508060000154600b60003373ffffffffffffffffffffffffffffffffffffffff1673ffffffffffffffffffffffffffffffffffffffff16815260200190815260200160002081905550600191505090565b600080600a60003373ffffffffffffffffffffffffffffffffffffffff1673ffffffffffffffffffffffffffffffffffffffff1681526020019081526020016000205411610e4f576040517f08c379a0000000000000000000000000000000000000000000000000000000008152600401808060200182810382526023815260200180614be76023913960400191505060405180910390fd5b600454821115610ec7576040517f08c379a00000000000000000000000000000000000000000000000000000000081526004018080602001828103825260138152602001807f4f7264657220646f65736e27742065786973740000000000000000000000000081525060200191505060405180910390fd5b60046007811115610ed457fe5b6008600084815260200190815260200160002060060160009054906101000a900460ff166007811115610f0357fe5b14610f76576040517f08c379a000000000000000000000000000000000000000000000000000000000815260040180806020018281038252601a8152602001807f4f72646572206973206e6f7420696e20746865206272616e636800000000000081525060200191505060405180910390fd5b60036008600084815260200190815260200160002060060160006101000a81548160ff02191690836007811115610fa957fe5b021790555060006008600084815260200190815260200160002060060160016101000a81548160ff02191690836001811115610fe157fe5b02179055506008600060045481526020019081526020016000206008600084815260200190815260200160002060008201548160000155600182018160010190805461102e929190614ade565b50600282015481600201556003820154816003015560048201548160040155600582015481600501556006820160009054906101000a900460ff168160060160006101000a81548160ff0219169083600781111561108857fe5b02179055506006820160019054906101000a900460ff168160060160016101000a81548160ff021916908360018111156110be57fe5b02179055509050507f58d97c9a7f506d49829d9f53a5aad430cff9d6ea208dddd9a7cf01ef5eccbc40826008600085815260200190815260200160002060060160009054906101000a900460ff166040518083815260200182600781111561112257fe5b60ff1681526020019250505060405180910390a17f5b88ca144f1d4b33cbdd6e83ce1eb3c5ea8efc0c2a83ff3a6423827a579e9ba2826008600085815260200190815260200160002060060160019054906101000a900460ff166040518083815260200182600181111561119257fe5b60ff1681526020019250505060405180910390a160019050919050565b6000806000600960003373ffffffffffffffffffffffffffffffffffffffff1673ffffffffffffffffffffffffffffffffffffffff168152602001908152602001600020541161124a576040517f08c379a0000000000000000000000000000000000000000000000000000000008152600401808060200182810382526021815260200180614ba36021913960400191505060405180910390fd5b6002548311156112c2576040517f08c379a00000000000000000000000000000000000000000000000000000000081526004018080602001828103825260148152602001807f53656c6c657220646f65736e277420657869737400000000000000000000000081525060200191505060405180910390fd5b60045484111561133a576040517f08c379a00000000000000000000000000000000000000000000000000000000081526004018080602001828103825260138152602001807f4f7264657220646f65736e27742065786973740000000000000000000000000081525060200191505060405180910390fd5b6008600085815260200190815260200160002060060160009054906101000a900460ff166008600086815260200190815260200160002060060160019054906101000a900460ff16915091509250929050565b600080600a60003373ffffffffffffffffffffffffffffffffffffffff1673ffffffffffffffffffffffffffffffffffffffff1681526020019081526020016000205411611426576040517f08c379a0000000000000000000000000000000000000000000000000000000008152600401808060200182810382526023815260200180614be76023913960400191505060405180910390fd5b6000600a60003373ffffffffffffffffffffffffffffffffffffffff1673ffffffffffffffffffffffffffffffffffffffff1681526020019081526020016000205490506002600781111561147757fe5b6008600085815260200190815260200160002060060160009054906101000a900460ff1660078111156114a657fe5b14611519576040517f08c379a000000000000000000000000000000000000000000000000000000000815260040180806020018281038252601b8152602001807f416c72656164792061636365707465642074686973206f72646572000000000081525060200191505060405180910390fd5b60006007600083815260200190815260200160002060010154146115a5576040517f08c379a00000000000000000000000000000000000000000000000000000000081526004018080602001828103825260208152602001807f416c72656164792064656c69766572696e6720616e6f74686572206f7264657281525060200191505060405180910390fd5b60046008600085815260200190815260200160002060060160006101000a81548160ff021916908360078111156115d857fe5b0217905550600a60003373ffffffffffffffffffffffffffffffffffffffff1673ffffffffffffffffffffffffffffffffffffffff1681526020019081526020016000205460086000858152602001908152602001600020600401819055508260076000838152602001908152602001600020600101819055507f58d97c9a7f506d49829d9f53a5aad430cff9d6ea208dddd9a7cf01ef5eccbc40836008600086815260200190815260200160002060060160009054906101000a900460ff16604051808381526020018260078111156116ae57fe5b60ff1681526020019250505060405180910390a16001915050919050565b600080600960003373ffffffffffffffffffffffffffffffffffffffff1673ffffffffffffffffffffffffffffffffffffffff1681526020019081526020016000205411611765576040517f08c379a0000000000000000000000000000000000000000000000000000000008152600401808060200182810382526021815260200180614ba36021913960400191505060405180910390fd5b6004548211156117dd576040517f08c379a00000000000000000000000000000000000000000000000000000000081526004018080602001828103825260138152602001807f4f7264657220646f65736e27742065786973740000000000000000000000000081525060200191505060405180910390fd5b600160078111156117ea57fe5b6008600084815260200190815260200160002060060160009054906101000a900460ff16600781111561181957fe5b1461188c576040517f08c379a00000000000000000000000000000000000000000000000000000000081526004018080602001828103825260158152602001807f4f72646572206973206e6f74207072657061726564000000000000000000000081525060200191505060405180910390fd5b60026008600084815260200190815260200160002060060160006101000a81548160ff021916908360078111156118bf57fe5b021790555060019050919050565b600080600a60003373ffffffffffffffffffffffffffffffffffffffff1673ffffffffffffffffffffffffffffffffffffffff1681526020019081526020016000205411611966576040517f08c379a0000000000000000000000000000000000000000000000000000000008152600401808060200182810382526023815260200180614be76023913960400191505060405180910390fd5b6004548211156119de576040517f08c379a00000000000000000000000000000000000000000000000000000000081526004018080602001828103825260138152602001807f4f7264657220646f65736e27742065786973740000000000000000000000000081525060200191505060405180910390fd5b600660078111156119eb57fe5b6008600084815260200190815260200160002060060160009054906101000a900460ff166007811115611a1a57fe5b1415611a8e576040517f08c379a00000000000000000000000000000000000000000000000000000000081526004018080602001828103825260198152602001807f4f7264657220697320616c72656164792072656365697665640000000000000081525060200191505060405180910390fd5b60076008600084815260200190815260200160002060060160006101000a81548160ff02191690836007811115611ac157fe5b021790555060086000600454815260200190815260200160002060086000848152602001908152602001600020600082015481600001556001820181600101908054611b0e929190614ade565b50600282015481600201556003820154816003015560048201548160040155600582015481600501556006820160009054906101000a900460ff168160060160006101000a81548160ff02191690836007811115611b6857fe5b02179055506006820160019054906101000a900460ff168160060160016101000a81548160ff02191690836001811115611b9e57fe5b02179055509050507f58d97c9a7f506d49829d9f53a5aad430cff9d6ea208dddd9a7cf01ef5eccbc40826008600085815260200190815260200160002060060160009054906101000a900460ff1660405180838152602001826007811115611c0257fe5b60ff1681526020019250505060405180910390a160019050919050565b600080600960003373ffffffffffffffffffffffffffffffffffffffff1673ffffffffffffffffffffffffffffffffffffffff1681526020019081526020016000205411611cb8576040517f08c379a0000000000000000000000000000000000000000000000000000000008152600401808060200182810382526021815260200180614ba36021913960400191505060405180910390fd5b6000600960003373ffffffffffffffffffffffffffffffffffffffff1673ffffffffffffffffffffffffffffffffffffffff16815260200190815260200160002054905080600860008581526020019081526020016000206003015414611d87576040517f08c379a000000000000000000000000000000000000000000000000000000000815260040180806020018281038252600e8152602001807f4e6f7420796f7572206f7264657200000000000000000000000000000000000081525060200191505060405180910390fd5b60016007811115611d9457fe5b6008600085815260200190815260200160002060060160009054906101000a900460ff166007811115611dc357fe5b1415611e37576040517f08c379a000000000000000000000000000000000000000000000000000000000815260040180806020018281038252601b8152602001807f416c72656164792061636365707465642074686973206f72646572000000000081525060200191505060405180910390fd5b60016008600085815260200190815260200160002060060160006101000a81548160ff02191690836007811115611e6a57fe5b02179055507f58d97c9a7f506d49829d9f53a5aad430cff9d6ea208dddd9a7cf01ef5eccbc40836008600086815260200190815260200160002060060160009054906101000a900460ff1660405180838152602001826007811115611ecb57fe5b60ff1681526020019250505060405180910390a16001915050919050565b600080600090505b6006600084815260200190815260200160002060010180549050811015611f5c5783600660008581526020019081526020016000206001018281548110611f3457fe5b90600052602060002001541415611f4f576001915050611f62565b8080600101915050611ef1565b60009150505b92915050565b600080600a60003373ffffffffffffffffffffffffffffffffffffffff1673ffffffffffffffffffffffffffffffffffffffff1681526020019081526020016000205411612001576040517f08c379a0000000000000000000000000000000000000000000000000000000008152600401808060200182810382526023815260200180614be76023913960400191505060405180910390fd5b600454821115612079576040517f08c379a00000000000000000000000000000000000000000000000000000000081526004018080602001828103825260138152602001807f4f7264657220646f65736e27742065786973740000000000000000000000000081525060200191505060405180910390fd5b6003600781111561208657fe5b6008600084815260200190815260200160002060060160009054906101000a900460ff1660078111156120b557fe5b1461210b576040517f08c379a0000000000000000000000000000000000000000000000000000000008152600401808060200182810382526023815260200180614c9f6023913960400191505060405180910390fd5b60056008600084815260200190815260200160002060060160006101000a81548160ff0219169083600781111561213e57fe5b021790555060006008600084815260200190815260200160002060060160016101000a81548160ff0219169083600181111561217657fe5b0217905550600860006004548152602001908152602001600020600860008481526020019081526020016000206000820154816000015560018201816001019080546121c3929190614ade565b50600282015481600201556003820154816003015560048201548160040155600582015481600501556006820160009054906101000a900460ff168160060160006101000a81548160ff0219169083600781111561221d57fe5b02179055506006820160019054906101000a900460ff168160060160016101000a81548160ff0219169083600181111561225357fe5b02179055509050507f58d97c9a7f506d49829d9f53a5aad430cff9d6ea208dddd9a7cf01ef5eccbc40826008600085815260200190815260200160002060060160009054906101000a900460ff16604051808381526020018260078111156122b757fe5b60ff1681526020019250505060405180910390a17f5b88ca144f1d4b33cbdd6e83ce1eb3c5ea8efc0c2a83ff3a6423827a579e9ba2826008600085815260200190815260200160002060060160019054906101000a900460ff166040518083815260200182600181111561232757fe5b60ff1681526020019250505060405180910390a160019050919050565b600080600a60003373ffffffffffffffffffffffffffffffffffffffff1673ffffffffffffffffffffffffffffffffffffffff16815260200190815260200160002054116123dd576040517f08c379a0000000000000000000000000000000000000000000000000000000008152600401808060200182810382526023815260200180614be76023913960400191505060405180910390fd5b600454821115612455576040517f08c379a00000000000000000000000000000000000000000000000000000000081526004018080602001828103825260138152602001807f4f7264657220646f65736e27742065786973740000000000000000000000000081525060200191505060405180910390fd5b6003600781111561246257fe5b6008600084815260200190815260200160002060060160009054906101000a900460ff16600781111561249157fe5b14806124d65750600560078111156124a557fe5b6008600084815260200190815260200160002060060160009054906101000a900460ff1660078111156124d457fe5b145b61252b576040517f08c379a000000000000000000000000000000000000000000000000000000000815260040180806020018281038252603b815260200180614c0a603b913960400191505060405180910390fd5b60066008600084815260200190815260200160002060060160006101000a81548160ff0219169083600781111561255e57fe5b021790555060006008600084815260200190815260200160002060060160016101000a81548160ff0219169083600181111561259657fe5b0217905550600860006004548152602001908152602001600020600860008481526020019081526020016000206000820154816000015560018201816001019080546125e3929190614ade565b50600282015481600201556003820154816003015560048201548160040155600582015481600501556006820160009054906101000a900460ff168160060160006101000a81548160ff0219169083600781111561263d57fe5b02179055506006820160019054906101000a900460ff168160060160016101000a81548160ff0219169083600181111561267357fe5b02179055509050507f58d97c9a7f506d49829d9f53a5aad430cff9d6ea208dddd9a7cf01ef5eccbc40826008600085815260200190815260200160002060060160009054906101000a900460ff16604051808381526020018260078111156126d757fe5b60ff1681526020019250505060405180910390a17f5b88ca144f1d4b33cbdd6e83ce1eb3c5ea8efc0c2a83ff3a6423827a579e9ba2826008600085815260200190815260200160002060060160019054906101000a900460ff166040518083815260200182600181111561274757fe5b60ff1681526020019250505060405180910390a160019050919050565b600080600b60003373ffffffffffffffffffffffffffffffffffffffff1673ffffffffffffffffffffffffffffffffffffffff16815260200190815260200160002054116127fd576040517f08c379a0000000000000000000000000000000000000000000000000000000008152600401808060200182810382526023815260200180614c456023913960400191505060405180910390fd5b600254821115612875576040517f08c379a00000000000000000000000000000000000000000000000000000000081526004018080602001828103825260148152602001807f53656c6c657220646f65736e277420657869737400000000000000000000000081525060200191505060405180910390fd5b600060056000600b60003373ffffffffffffffffffffffffffffffffffffffff1673ffffffffffffffffffffffffffffffffffffffff1681526020019081526020016000205481526020019081526020016000206001015414612940576040517f08c379a00000000000000000000000000000000000000000000000000000000081526004018080602001828103825260138152602001807f416c726561647920676976656e206f726465720000000000000000000000000081525060200191505060405180910390fd5b6001151561294e8484611ee9565b1515146129c3576040517f08c379a00000000000000000000000000000000000000000000000000000000081526004018080602001828103825260128152602001807f4974656d20646f65736e2774206578697374000000000000000000000000000081525060200191505060405180910390fd5b60046000815480929190600101919050555060006008600060045481526020019081526020016000209050600454816000018190555060405180602001604052808581525081600101906001612a1a929190614b30565b5060005460405180602001604052808681525050600102816002018190555060008160060160006101000a81548160ff02191690836007811115612a5a57fe5b0217905550828160030181905550600b60003373ffffffffffffffffffffffffffffffffffffffff1673ffffffffffffffffffffffffffffffffffffffff16815260200190815260200160002054816005018190555060018160060160016101000a81548160ff02191690836001811115612ad157fe5b0217905550806000015460056000600b60003373ffffffffffffffffffffffffffffffffffffffff1673ffffffffffffffffffffffffffffffffffffffff168152602001908152602001600020548152602001908152602001600020600101819055507f58d97c9a7f506d49829d9f53a5aad430cff9d6ea208dddd9a7cf01ef5eccbc4081600001548260060160009054906101000a900460ff1660405180838152602001826007811115612b8257fe5b60ff1681526020019250505060405180910390a1600191505092915050565b600080600b60003373ffffffffffffffffffffffffffffffffffffffff1673ffffffffffffffffffffffffffffffffffffffff1681526020019081526020016000205411612c3a576040517f08c379a0000000000000000000000000000000000000000000000000000000008152600401808060200182810382526023815260200180614c456023913960400191505060405180910390fd5b600060056000600b60003373ffffffffffffffffffffffffffffffffffffffff1673ffffffffffffffffffffffffffffffffffffffff168152602001908152602001600020548152602001908152602001600020600101541415612d06576040517f08c379a00000000000000000000000000000000000000000000000000000000081526004018080602001828103825260208152602001807f596f7520646f6e2774206861766520616e7920616374697665206f726465727381525060200191505060405180910390fd5b600454821115612d7e576040517f08c379a00000000000000000000000000000000000000000000000000000000081526004018080602001828103825260138152602001807f4f7264657220646f65736e27742065786973740000000000000000000000000081525060200191505060405180910390fd5b60066007811115612d8b57fe5b6008600084815260200190815260200160002060060160009054906101000a900460ff166007811115612dba57fe5b1415612e11576040517f08c379a0000000000000000000000000000000000000000000000000000000008152600401808060200182810382526037815260200180614c686037913960400191505060405180910390fd5b60056007811115612e1e57fe5b6008600084815260200190815260200160002060060160009054906101000a900460ff166007811115612e4d57fe5b14612ec0576040517f08c379a000000000000000000000000000000000000000000000000000000000815260040180806020018281038252601d8152602001807f4f72646572206973206e6f74206f757420666f722064656c697665727900000081525060200191505060405180910390fd5b600b60003373ffffffffffffffffffffffffffffffffffffffff1673ffffffffffffffffffffffffffffffffffffffff16815260200190815260200160002054600860008481526020019081526020016000206005015414612f8a576040517f08c379a00000000000000000000000000000000000000000000000000000000081526004018080602001828103825260198152602001807f596f7520646f6e277420686176652074686973206f726465720000000000000081525060200191505060405180910390fd5b60066008600084815260200190815260200160002060060160006101000a81548160ff02191690836007811115612fbd57fe5b02179055506008600060045481526020019081526020016000206008600084815260200190815260200160002060008201548160000155600182018160010190805461300a929190614ade565b50600282015481600201556003820154816003015560048201548160040155600582015481600501556006820160009054906101000a900460ff168160060160006101000a81548160ff0219169083600781111561306457fe5b02179055506006820160019054906101000a900460ff168160060160016101000a81548160ff0219169083600181111561309a57fe5b02179055509050507f58d97c9a7f506d49829d9f53a5aad430cff9d6ea208dddd9a7cf01ef5eccbc40826008600085815260200190815260200160002060060160009054906101000a900460ff16604051808381526020018260078111156130fe57fe5b60ff1681526020019250505060405180910390a160019050919050565b600080600b60003373ffffffffffffffffffffffffffffffffffffffff1673ffffffffffffffffffffffffffffffffffffffff16815260200190815260200160002054116131b4576040517f08c379a0000000000000000000000000000000000000000000000000000000008152600401808060200182810382526023815260200180614c456023913960400191505060405180910390fd5b600060056000600b60003373ffffffffffffffffffffffffffffffffffffffff1673ffffffffffffffffffffffffffffffffffffffff168152602001908152602001600020548152602001908152602001600020600101541415613280576040517f08c379a00000000000000000000000000000000000000000000000000000000081526004018080602001828103825260208152602001807f596f7520646f6e2774206861766520616e7920616374697665206f726465727381525060200191505060405180910390fd5b6004548211156132f8576040517f08c379a00000000000000000000000000000000000000000000000000000000081526004018080602001828103825260138152602001807f4f7264657220646f65736e27742065786973740000000000000000000000000081525060200191505060405180910390fd5b600b60003373ffffffffffffffffffffffffffffffffffffffff1673ffffffffffffffffffffffffffffffffffffffff168152602001908152602001600020546008600084815260200190815260200160002060050154146133c2576040517f08c379a00000000000000000000000000000000000000000000000000000000081526004018080602001828103825260198152602001807f596f7520646f6e277420686176652074686973206f726465720000000000000081525060200191505060405180910390fd5b600660078111156133cf57fe5b6008600084815260200190815260200160002060060160009054906101000a900460ff1660078111156133fe57fe5b1415613472576040517f08c379a00000000000000000000000000000000000000000000000000000000081526004018080602001828103825260198152602001807f4f7264657220697320616c72656164792072656365697665640000000000000081525060200191505060405180910390fd5b60078081111561347e57fe5b6008600084815260200190815260200160002060060160009054906101000a900460ff1660078111156134ad57fe5b1415613504576040517f08c379a0000000000000000000000000000000000000000000000000000000008152600401808060200182810382526023815260200180614bc46023913960400191505060405180910390fd5b60076008600084815260200190815260200160002060060160006101000a81548160ff0219169083600781111561353757fe5b021790555060086000600454815260200190815260200160002060086000848152602001908152602001600020600082015481600001556001820181600101908054613584929190614ade565b50600282015481600201556003820154816003015560048201548160040155600582015481600501556006820160009054906101000a900460ff168160060160006101000a81548160ff021916908360078111156135de57fe5b02179055506006820160019054906101000a900460ff168160060160016101000a81548160ff0219169083600181111561361457fe5b02179055509050507f58d97c9a7f506d49829d9f53a5aad430cff9d6ea208dddd9a7cf01ef5eccbc40826008600085815260200190815260200160002060060160009054906101000a900460ff166040518083815260200182600781111561367857fe5b60ff1681526020019250505060405180910390a160019050919050565b600080600a60003373ffffffffffffffffffffffffffffffffffffffff1673ffffffffffffffffffffffffffffffffffffffff168152602001908152602001600020541461374b576040517f08c379a000000000000000000000000000000000000000000000000000000000815260040180806020018281038252601b8152602001807f536869706d656e7420616c72656164792072656769737465726564000000000081525060200191505060405180910390fd5b6001600081548092919060010191905055506000600760006001548152602001908152602001600020905060015481600001819055508060076000836000015481526020019081526020016000206000820154816000015560018201548160010155600282015481600201559050508060000154600a60003373ffffffffffffffffffffffffffffffffffffffff1673ffffffffffffffffffffffffffffffffffffffff16815260200190815260200160002081905550600191505090565b6000806000600a60003373ffffffffffffffffffffffffffffffffffffffff1673ffffffffffffffffffffffffffffffffffffffff16815260200190815260200160002054116138a5576040517f08c379a0000000000000000000000000000000000000000000000000000000008152600401808060200182810382526023815260200180614be76023913960400191505060405180910390fd5b60025483111561391d576040517f08c379a00000000000000000000000000000000000000000000000000000000081526004018080602001828103825260148152602001807f53656c6c657220646f65736e277420657869737400000000000000000000000081525060200191505060405180910390fd5b600454841115613995576040517f08c379a00000000000000000000000000000000000000000000000000000000081526004018080602001828103825260138152602001807f4f7264657220646f65736e27742065786973740000000000000000000000000081525060200191505060405180910390fd5b6008600085815260200190815260200160002060060160009054906101000a900460ff166008600086815260200190815260200160002060060160019054906101000a900460ff16915091509250929050565b600080600a60003373ffffffffffffffffffffffffffffffffffffffff1673ffffffffffffffffffffffffffffffffffffffff1681526020019081526020016000205411613a81576040517f08c379a0000000000000000000000000000000000000000000000000000000008152600401808060200182810382526023815260200180614be76023913960400191505060405180910390fd5b600454821115613af9576040517f08c379a00000000000000000000000000000000000000000000000000000000081526004018080602001828103825260138152602001807f4f7264657220646f65736e27742065786973740000000000000000000000000081525060200191505060405180910390fd5b60036007811115613b0657fe5b6008600084815260200190815260200160002060060160009054906101000a900460ff166007811115613b3557fe5b1480613b7a575060056007811115613b4957fe5b6008600084815260200190815260200160002060060160009054906101000a900460ff166007811115613b7857fe5b145b613bcf576040517f08c379a000000000000000000000000000000000000000000000000000000000815260040180806020018281038252603b815260200180614c0a603b913960400191505060405180910390fd5b60066008600084815260200190815260200160002060060160006101000a81548160ff02191690836007811115613c0257fe5b021790555060086000600454815260200190815260200160002060086000848152602001908152602001600020600082015481600001556001820181600101908054613c4f929190614ade565b50600282015481600201556003820154816003015560048201548160040155600582015481600501556006820160009054906101000a900460ff168160060160006101000a81548160ff02191690836007811115613ca957fe5b02179055506006820160019054906101000a900460ff168160060160016101000a81548160ff02191690836001811115613cdf57fe5b02179055509050507f58d97c9a7f506d49829d9f53a5aad430cff9d6ea208dddd9a7cf01ef5eccbc40826008600085815260200190815260200160002060060160009054906101000a900460ff1660405180838152602001826007811115613d4357fe5b60ff1681526020019250505060405180910390a160019050919050565b6000806000600b60003373ffffffffffffffffffffffffffffffffffffffff1673ffffffffffffffffffffffffffffffffffffffff1681526020019081526020016000205411613dfb576040517f08c379a0000000000000000000000000000000000000000000000000000000008152600401808060200182810382526023815260200180614c456023913960400191505060405180910390fd5b600060056000600b60003373ffffffffffffffffffffffffffffffffffffffff1673ffffffffffffffffffffffffffffffffffffffff168152602001908152602001600020548152602001908152602001600020600101541415613ec7576040517f08c379a00000000000000000000000000000000000000000000000000000000081526004018080602001828103825260208152602001807f596f7520646f6e2774206861766520616e7920616374697665206f726465727381525060200191505060405180910390fd5b600254831115613f3f576040517f08c379a00000000000000000000000000000000000000000000000000000000081526004018080602001828103825260148152602001807f53656c6c657220646f65736e277420657869737400000000000000000000000081525060200191505060405180910390fd5b600454841115613fb7576040517f08c379a00000000000000000000000000000000000000000000000000000000081526004018080602001828103825260138152602001807f4f7264657220646f65736e27742065786973740000000000000000000000000081525060200191505060405180910390fd5b6008600085815260200190815260200160002060060160009054906101000a900460ff166008600086815260200190815260200160002060060160019054906101000a900460ff16915091509250929050565b600080600a60003373ffffffffffffffffffffffffffffffffffffffff1673ffffffffffffffffffffffffffffffffffffffff16815260200190815260200160002054116140a3576040517f08c379a0000000000000000000000000000000000000000000000000000000008152600401808060200182810382526023815260200180614be76023913960400191505060405180910390fd5b60045482111561411b576040517f08c379a00000000000000000000000000000000000000000000000000000000081526004018080602001828103825260138152602001807f4f7264657220646f65736e27742065786973740000000000000000000000000081525060200191505060405180910390fd5b6003600781111561412857fe5b6008600084815260200190815260200160002060060160009054906101000a900460ff16600781111561415757fe5b146141ad576040517f08c379a0000000000000000000000000000000000000000000000000000000008152600401808060200182810382526023815260200180614c9f6023913960400191505060405180910390fd5b60056008600084815260200190815260200160002060060160006101000a81548160ff021916908360078111156141e057fe5b02179055506008600060045481526020019081526020016000206008600084815260200190815260200160002060008201548160000155600182018160010190805461422d929190614ade565b50600282015481600201556003820154816003015560048201548160040155600582015481600501556006820160009054906101000a900460ff168160060160006101000a81548160ff0219169083600781111561428757fe5b02179055506006820160019054906101000a900460ff168160060160016101000a81548160ff021916908360018111156142bd57fe5b02179055509050507f58d97c9a7f506d49829d9f53a5aad430cff9d6ea208dddd9a7cf01ef5eccbc40826008600085815260200190815260200160002060060160009054906101000a900460ff166040518083815260200182600781111561432157fe5b60ff1681526020019250505060405180910390a160019050919050565b600080600a60003373ffffffffffffffffffffffffffffffffffffffff1673ffffffffffffffffffffffffffffffffffffffff16815260200190815260200160002054116143d7576040517f08c379a0000000000000000000000000000000000000000000000000000000008152600401808060200182810382526023815260200180614be76023913960400191505060405180910390fd5b60045482111561444f576040517f08c379a00000000000000000000000000000000000000000000000000000000081526004018080602001828103825260138152602001807f4f7264657220646f65736e27742065786973740000000000000000000000000081525060200191505060405180910390fd5b6004600781111561445c57fe5b6008600084815260200190815260200160002060060160009054906101000a900460ff16600781111561448b57fe5b146144fe576040517f08c379a000000000000000000000000000000000000000000000000000000000815260040180806020018281038252601a8152602001807f4f72646572206973206e6f7420696e20746865206272616e636800000000000081525060200191505060405180910390fd5b60036008600084815260200190815260200160002060060160006101000a81548160ff0219169083600781111561453157fe5b02179055506008600060045481526020019081526020016000206008600084815260200190815260200160002060008201548160000155600182018160010190805461457e929190614ade565b50600282015481600201556003820154816003015560048201548160040155600582015481600501556006820160009054906101000a900460ff168160060160006101000a81548160ff021916908360078111156145d857fe5b02179055506006820160019054906101000a900460ff168160060160016101000a81548160ff0219169083600181111561460e57fe5b02179055509050507f58d97c9a7f506d49829d9f53a5aad430cff9d6ea208dddd9a7cf01ef5eccbc40826008600085815260200190815260200160002060060160009054906101000a900460ff166040518083815260200182600781111561467257fe5b60ff1681526020019250505060405180910390a17f5b88ca144f1d4b33cbdd6e83ce1eb3c5ea8efc0c2a83ff3a6423827a579e9ba2826008600085815260200190815260200160002060060160019054906101000a900460ff16604051808381526020018260018111156146e257fe5b60ff1681526020019250505060405180910390a160019050919050565b600080600960003373ffffffffffffffffffffffffffffffffffffffff1673ffffffffffffffffffffffffffffffffffffffff16815260200190815260200160002054146147b5576040517f08c379a00000000000000000000000000000000000000000000000000000000081526004018080602001828103825260198152602001807f53656c6c657220616c726561647920726567697374657265640000000000000081525060200191505060405180910390fd5b6002600081548092919060010191905055506000600660006002548152602001908152602001600020905060025481600001819055508060010160019080600181540180825580915050906001820390600052602060002001600090919290919091505550806001016002908060018154018082558091505090600182039060005260206000200160009091929091909150555080600101600390806001815401808255809150509060018203906000526020600020016000909192909190915055508060010160049080600181540180825580915050906001820390600052602060002001600090919290919091505550806001016005908060018154018082558091505090600182039060005260206000200160009091929091909150555080600660008360000154815260200190815260200160002060008201548160000155600182018160010190805461490e929190614ade565b509050508060000154600960003373ffffffffffffffffffffffffffffffffffffffff1673ffffffffffffffffffffffffffffffffffffffff16815260200190815260200160002081905550600191505090565b600080600b60003373ffffffffffffffffffffffffffffffffffffffff1673ffffffffffffffffffffffffffffffffffffffff168152602001908152602001600020549050600081146149b85780915050614adb565b600a60003373ffffffffffffffffffffffffffffffffffffffff1673ffffffffffffffffffffffffffffffffffffffff16815260200190815260200160002054905060008114614a0b5780915050614adb565b600960003373ffffffffffffffffffffffffffffffffffffffff1673ffffffffffffffffffffffffffffffffffffffff16815260200190815260200160002054905060008114614a5e5780915050614adb565b6000811415614ad5576040517f08c379a00000000000000000000000000000000000000000000000000000000081526004018080602001828103825260158152602001807f596f75206172656e27742072656769737465726564000000000000000000000081525060200191505060405180910390fd5b60009150505b90565b828054828255906000526020600020908101928215614b1f5760005260206000209182015b82811115614b1e578254825591600101919060010190614b03565b5b509050614b2c9190614b7d565b5090565b828054828255906000526020600020908101928215614b6c579160200282015b82811115614b6b578251825591602001919060010190614b50565b5b509050614b799190614b7d565b5090565b614b9f91905b80821115614b9b576000816000905550600101614b83565b5090565b9056fe596f75206172656e2774207265676973746572656420617320612073656c6c6572596f75206861766520616c72656164792063616e63656c2074686973206f7264657221596f75206172656e27742072656769737465726564206173206120736869706d656e744f72646572206973206e6f74206f6e207468652077617920746f20637573746f6d6572206f72206e6f74206f757420666f722064656c6976657279596f75206172656e27742072656769737465726564206173206120637573746f6d65724f7264657220697320636f6e6669726d65642061732072656365697665642062792074686520736869706d656e7420656d706c6f7965654f72646572206973206e6f74206f6e207468652077617920746f20637573746f6d6572a265627a7a72315820feb0ad139d514d7c37f3dbf20079ea0080af5f78986155d5e47035054e2e18df64736f6c63430005100032",
  "source": "pragma solidity ^0.5.0;\r\n\r\ncontract DecentralizedShipment {\r\n    uint product_cost = 5; //Cost of the product\r\n    uint shipment_count = 0; //Count of the shipment company employee\r\n    uint seller_count = 0; //Count of the seller \r\n    uint customer_count = 0; //Count of the customer\r\n    uint order_count = 0; //Count of the order\r\n\r\n     // Order status enum that will be used in our system in order to know the status of the order.\r\n    enum OrderStatus {\r\n        ordered,    // The order has been placed by the customer.\r\n        preparing,  // Order is being prepared.\r\n        onthewaytoshipment, // Order is on the way to the shipment company.\r\n        onthewaytocustomer, // Order is on the way to the customer.\r\n        inbranch,   //  Order is on the way.\r\n        outfordelivery, // Order is out for delivery.\r\n        received,   //  Order is received.\r\n        cancelled   //  Order is cancelled by user.\r\n    }\r\n    enum ProductStatus{\r\n        damaged, //Status of the product is damaged\r\n        not_damaged //Status of the product is not damaged\r\n    }\r\n    \r\n    // Order struct which contains order details that will be used in our system in order to create order.\r\n    struct Order{\r\n        uint id;                    //This is the ID of the order and it's unique.\r\n        uint[] products;            //This is the array of products that will be ordered.\r\n        uint price;                 //This is the total price of the order.\r\n        uint seller;                //This is the seller of the order.\r\n        uint shipment;              // This is the shipment of the order.    \r\n        uint customer;              //This is the customer of the order.\r\n        OrderStatus status;         //This is the status of the order.\r\n        ProductStatus pStatus;      //This represents the order being damaged or not.\r\n    }\r\n \r\n\r\n    // This is the struct of the customer which contains customer details.\r\n    struct Customer {\r\n        uint id;         \r\n        uint cur_order;\r\n        uint last_order;\r\n    }\r\n    //This is the struct of the seller which contains seller details.\r\n    struct Seller {\r\n        uint id;\r\n        uint[] product_list;\r\n    }\r\n    //This is the struct of the shipment which contains shipment details.\r\n    struct Shipment {\r\n        uint id;\r\n        uint cur_order;\r\n        uint order_count;\r\n    }\r\n    //This is the mapping customer details.\r\n    mapping(uint => Customer) customer_details;\r\n    //This is the mapping seller details.\r\n    mapping(uint => Seller) seller_details;\r\n    //This is the mapping shipment details.\r\n    mapping(uint => Shipment) shipment_details;\r\n    //This is the mapping order details.\r\n    mapping(uint => Order) order_details;\r\n\r\n    mapping(address => uint) get_seller_id;\r\n    mapping(address => uint ) get_shipment_id;\r\n    mapping(address => uint) get_customer_id;\r\n    \r\n    \r\n    /* ---------------EVENTS----------------- */\r\n    \r\n    event order_status_update(uint order_id, OrderStatus status);\r\n    event order_damaged_update(uint order_id, ProductStatus pStatus);\r\n    \r\n    /* ---------------MODIFIERS-------------- */\r\n    \r\n    modifier is_customer() {\r\n        require(get_customer_id[msg.sender] > 0, \"You aren't registered as a customer\");\r\n        _;\r\n    }\r\n    \r\n    modifier is_shipment() {\r\n        require(get_shipment_id[msg.sender] > 0, \"You aren't registered as a shipment\");\r\n        _;\r\n    }\r\n    \r\n    modifier is_seller() {\r\n        require(get_seller_id[msg.sender] > 0, \"You aren't registered as a seller\");\r\n        _;\r\n    }\r\n    \r\n    modifier has_ordered() {\r\n        require(customer_details[get_customer_id[msg.sender]].cur_order != 0, \"You don't have any active orders\");\r\n        _;\r\n    }\r\n    \r\n    /* ---------------UTILITY FUNCTIONS------ */\r\n    function product_exists(uint item, uint seller_id) \r\n    public view returns(bool) {\r\n        uint i;\r\n        for (i = 0; i < seller_details[seller_id].product_list.length; i++) {\r\n\r\n            \r\n            if (seller_details[seller_id].product_list[i] == item) {\r\n                \r\n                return true;\r\n            }\r\n        }\r\n        return false;\r\n    }\r\n    function get_id() public view returns(uint) {\r\n        uint id;\r\n        id = get_customer_id[msg.sender];\r\n        if (id != 0)\r\n            return id;\r\n            \r\n        id = get_shipment_id[msg.sender];\r\n        if (id != 0)\r\n            return id;\r\n            \r\n        id = get_seller_id[msg.sender];\r\n        if (id != 0)\r\n            return id;\r\n            \r\n        require(id != 0, \"You aren't registered\");\r\n        return 0;\r\n    }\r\n    \r\n\r\n\r\n\r\n    /* ---------------CUSTOMER--------------- */\r\n\r\n    /**\r\n        * @dev This function is used to register a customer in the system.\r\n        */\r\n    function register_customer() public returns(bool) {\r\n        \r\n        require(get_customer_id[msg.sender] == 0, \"Customer already registered\");\r\n        customer_count++;\r\n        Customer storage customer = customer_details[customer_count];\r\n        customer.id = customer_count;\r\n        customer.cur_order = 0;\r\n        customer_details[customer.id] = customer;\r\n        get_customer_id[msg.sender] = customer.id;\r\n        return true;\r\n    }\r\n    /**\r\n        * @dev This function is used to give an order to a customer.\r\n        * @param product_id This is the product id of the product that is being ordered.\r\n        * @param seller_id This is the seller id of the seller who is selling the product.\r\n    */\r\n    function give_order(uint product_id, uint seller_id) is_customer() public payable returns(bool) {\r\n        require(seller_id <= seller_count, \"Seller doesn't exist\");\r\n        require(customer_details[get_customer_id[msg.sender]].cur_order == 0, \"Already given order\");\r\n        require(product_exists(product_id, seller_id) == true, \"Item doesn't exist\");\r\n\r\n        order_count++;\r\n        Order storage order = order_details[order_count];\r\n        order.id = order_count;\r\n        order.products = [product_id];\r\n        order.price = [product_id].length * product_cost;\r\n        order.status = OrderStatus.ordered;\r\n        order.seller = seller_id;\r\n        order.customer = get_customer_id[msg.sender];\r\n        order.pStatus = ProductStatus.not_damaged;\r\n        \r\n        customer_details[get_customer_id[msg.sender]].cur_order = order.id;\r\n        emit order_status_update(order.id, order.status);\r\n        return true;\r\n    }\r\n    /**\r\n        * @dev This function is used to checking the order status.\r\n        * @param order_id This is the order id of the order that is checking status.\r\n        * @param seller_id This is the seller id of the seller who is selling the product.\r\n        * @return This return the order status and product status.\r\n    */\r\n    function check_order_status_customer(uint order_id, uint seller_id) is_customer()  has_ordered() public view returns(OrderStatus,ProductStatus) {\r\n        require(seller_id <= seller_count, \"Seller doesn't exist\");  //Checking if seller exists.\r\n        require(order_id <= order_count, \"Order doesn't exist\");     //Checking if order exists.\r\n    \r\n        /*if(order_details[order_id].status == OrderStatus.ordered && order_details[order_id].pStatus == ProductStatus.damaged) {\r\n            return (0,1);\r\n        }else if(order_details[order_id].status == OrderStatus.ordered && order_details[order_id].pStatus == ProductStatus.not_damaged) {\r\n             return (0,0);\r\n        }else if(order_details[order_id].status == OrderStatus.preparing && order_details[order_id].pStatus == ProductStatus.damaged) {\r\n            return (1,1);\r\n        }else if(order_details[order_id].status == OrderStatus.preparing && order_details[order_id].pStatus == ProductStatus.not_damaged) {\r\n             return (1,0);\r\n        }else if(order_details[order_id].status == OrderStatus.inbranch && order_details[order_id].pStatus == ProductStatus.damaged) {\r\n             return (2,1);\r\n        }else if(order_details[order_id].status == OrderStatus.inbranch && order_details[order_id].pStatus == ProductStatus.not_damaged) {\r\n             return (2,0);\r\n        }else if(order_details[order_id].status == OrderStatus.outfordelivery && order_details[order_id].pStatus == ProductStatus.damaged) {\r\n             return (3,1);\r\n        }else if(order_details[order_id].status == OrderStatus.outfordelivery && order_details[order_id].pStatus == ProductStatus.not_damaged) {\r\n             return (3,0);\r\n        }else if(order_details[order_id].status == OrderStatus.received && order_details[order_id].pStatus == ProductStatus.damaged) {\r\n             return (4,1);\r\n        }else if(order_details[order_id].status == OrderStatus.received && order_details[order_id].pStatus == ProductStatus.damaged){\r\n            return (4,0);\r\n        }else if(order_details[order_id].status == OrderStatus.cancelled && order_details[order_id].pStatus == ProductStatus.damaged) {\r\n             return (5,1);\r\n        }else {\r\n            return (5,0);\r\n        }*/\r\n        return (order_details[order_id].status,order_details[order_id].pStatus);\r\n    }\r\n    /**\r\n        * @dev Function to cancel an order.\r\n        * @param order_id The id of the order to be cancelled.\r\n        * @return True if the order is cancelled, false otherwise.\r\n        */\r\n    function cancel_order(uint order_id) is_customer() has_ordered() public returns(bool) {\r\n        require(order_id <= order_count, \"Order doesn't exist\");     //Checking if order exists.\r\n        require(order_details[order_id].customer == get_customer_id[msg.sender], \"You don't have this order\");      \r\n        require(order_details[order_id].status != OrderStatus.received, \"Order is already received\");               \r\n        require(order_details[order_id].status != OrderStatus.cancelled, \"You have already cancel this order!\");    \r\n        order_details[order_id].status = OrderStatus.cancelled;                                                     \r\n        order_details[order_id] = order_details[order_count];                                                       \r\n        emit order_status_update(order_id, order_details[order_id].status);                                       \r\n        return true;                                                                     \r\n    }\r\n    /**\r\n        * @dev This function is used for the receiving the order.\r\n        * @param order_id The id of the order to be received.\r\n        * @return True if the order is received, false otherwise.\r\n        */\r\n    function receive_order(uint order_id) is_customer() has_ordered() public returns(bool)  {\r\n        require(order_id <= order_count, \"Order doesn't exist\");\r\n        require(order_details[order_id].status != OrderStatus.received, \"Order is confirmed as received by the shipment employee\");\r\n        require(order_details[order_id].status == OrderStatus.outfordelivery, \"Order is not out for delivery\");\r\n        require(order_details[order_id].customer == get_customer_id[msg.sender], \"You don't have this order\");\r\n        order_details[order_id].status = OrderStatus.received;\r\n        order_details[order_id] = order_details[order_count];\r\n        emit order_status_update(order_id, order_details[order_id].status);\r\n        return true;\r\n    }\r\n\r\n    /* ---------------SELLER--------------- */\r\n\r\n    /**\r\n        * @dev This function is used to add a new seller.\r\n        * @return True if the seller is added, false otherwise.\r\n    */\r\n    function register_seller() public returns(bool) {\r\n        require(get_seller_id[msg.sender] == 0, \"Seller already registered\");\r\n\r\n        seller_count++;\r\n        Seller storage seller = seller_details[seller_count];\r\n        seller.id = seller_count;\r\n        seller.product_list.push(1);\r\n        seller.product_list.push(2);\r\n        seller.product_list.push(3);\r\n        seller.product_list.push(4);\r\n        seller.product_list.push(5);\r\n        seller_details[seller.id] = seller;\r\n        get_seller_id[msg.sender] = seller.id;\r\n        return true;\r\n    }\r\n    /**\r\n        * @dev This function is used receive the order by the seller.\r\n        * @param order_id The id of the seller to be preparing.\r\n        */\r\n    function receive_and_prepare_the_order(uint order_id) is_seller() public returns(bool) {\r\n        uint seller_id = get_seller_id[msg.sender];\r\n        require(order_details[order_id].seller == seller_id, \"Not your order\");\r\n        require(order_details[order_id].status != OrderStatus.preparing, \"Already accepted this order\");\r\n        order_details[order_id].status = OrderStatus.preparing;\r\n        emit order_status_update(order_id, order_details[order_id].status);\r\n        return true;\r\n    }\r\n    /**\r\n        * @dev This function is used to transfer the order to the delivery person.\r\n        * @param order_id The id of the order to be delivered.\r\n        * @return True if the order is delivered, false otherwise.\r\n    */\r\n    function transfer_order_to_shipment(uint order_id) is_seller() public payable returns(bool) {\r\n        require(order_id <= order_count, \"Order doesn't exist\");\r\n        require(order_details[order_id].status == OrderStatus.preparing, \"Order is not prepared\");\r\n        order_details[order_id].status = OrderStatus.onthewaytoshipment;\r\n        return true;\r\n    }\r\n    /**\r\n        * @dev This function is used to checking the order status.\r\n        * @param order_id This is the order id of the order that is checking status.\r\n        * @return The status of the order and status of the product.\r\n    */\r\n    function check_order_status_seller(uint order_id, uint seller_id) is_seller()  public view returns(OrderStatus, ProductStatus) {\r\n        require(seller_id <= seller_count, \"Seller doesn't exist\");\r\n        require(order_id <= order_count, \"Order doesn't exist\");\r\n    \r\n        /*if(order_details[order_id].status == OrderStatus.ordered && order_details[order_id].pStatus == ProductStatus.damaged) {\r\n            return (0,1);\r\n        }else if(order_details[order_id].status == OrderStatus.ordered && order_details[order_id].pStatus == ProductStatus.not_damaged) {\r\n             return (0,0);\r\n        }else if(order_details[order_id].status == OrderStatus.preparing && order_details[order_id].pStatus == ProductStatus.damaged) {\r\n            return (1,1);\r\n        }else if(order_details[order_id].status == OrderStatus.preparing && order_details[order_id].pStatus == ProductStatus.not_damaged) {\r\n             return (1,0);\r\n        }else if(order_details[order_id].status == OrderStatus.inbranch && order_details[order_id].pStatus == ProductStatus.damaged) {\r\n             return (2,1);\r\n        }else if(order_details[order_id].status == OrderStatus.inbranch && order_details[order_id].pStatus == ProductStatus.not_damaged) {\r\n             return (2,0);\r\n        }else if(order_details[order_id].status == OrderStatus.outfordelivery && order_details[order_id].pStatus == ProductStatus.damaged) {\r\n             return (3,1);\r\n        }else if(order_details[order_id].status == OrderStatus.outfordelivery && order_details[order_id].pStatus == ProductStatus.not_damaged) {\r\n             return (3,0);\r\n        }else if(order_details[order_id].status == OrderStatus.received && order_details[order_id].pStatus == ProductStatus.damaged) {\r\n             return (4,1);\r\n        }else if(order_details[order_id].status == OrderStatus.received && order_details[order_id].pStatus == ProductStatus.damaged){\r\n            return (4,0);\r\n        }else if(order_details[order_id].status == OrderStatus.cancelled && order_details[order_id].pStatus == ProductStatus.damaged) {\r\n             return (5,1);\r\n        }else {\r\n            return (5,0);\r\n        }*/\r\n        return (order_details[order_id].status,order_details[order_id].pStatus);\r\n        \r\n    }\r\n\r\n    /* ---------------SHIPMENT--------------- */\r\n    \r\n    /**\r\n        * @dev This function is used to add a new delivery person.\r\n        * @return True if the seller is added, false otherwise.\r\n        */\r\n    function register_shipment() public returns(bool) {\r\n        require(get_shipment_id[msg.sender] == 0, \"Shipment already registered\");\r\n        shipment_count++;\r\n        Shipment storage shipment = shipment_details[shipment_count];\r\n        shipment.id = shipment_count;\r\n        shipment_details[shipment.id] = shipment;\r\n        get_shipment_id[msg.sender] = shipment.id;\r\n        return true;\r\n    }\r\n    /**\r\n        * @dev This function is used receive the order from the delivery person.\r\n        * @param order_id The id of the seller to be preparing.\r\n    */\r\n    function receive_and_ship_the_order(uint order_id) is_shipment() public returns(bool) {\r\n        uint shipment_id = get_shipment_id[msg.sender];\r\n        require(order_details[order_id].status == OrderStatus.onthewaytoshipment, \"Already accepted this order\");\r\n        require(shipment_details[shipment_id].cur_order == 0, \"Already delivering another order\");\r\n        order_details[order_id].status = OrderStatus.inbranch;\r\n        order_details[order_id].shipment = get_shipment_id[msg.sender];\r\n        shipment_details[shipment_id].cur_order = order_id;\r\n        emit order_status_update(order_id, order_details[order_id].status);\r\n        return true;\r\n    }\r\n\r\n\r\n    function update_status_to_otwtc_and_damaged(uint order_id ) is_shipment() public returns(bool) {\r\n        require(order_id <= order_count, \"Order doesn't exist\");\r\n        require(order_details[order_id].status == OrderStatus.inbranch, \"Order is not in the branch\");\r\n        order_details[order_id].status = OrderStatus.onthewaytocustomer;\r\n        order_details[order_id].pStatus = ProductStatus.damaged;\r\n        order_details[order_id] = order_details[order_count];\r\n        emit order_status_update(order_id, order_details[order_id].status);\r\n        emit order_damaged_update(order_id, order_details[order_id].pStatus);\r\n        return true;\r\n    }\r\n    function update_status_to_otwtc_and_not_damaged(uint order_id ) is_shipment() public returns(bool) {\r\n        require(order_id <= order_count, \"Order doesn't exist\");\r\n        require(order_details[order_id].status == OrderStatus.inbranch, \"Order is not in the branch\");\r\n        order_details[order_id].status = OrderStatus.onthewaytocustomer;\r\n        order_details[order_id] = order_details[order_count];\r\n        emit order_status_update(order_id, order_details[order_id].status);\r\n        emit order_damaged_update(order_id, order_details[order_id].pStatus);\r\n        return true;\r\n    }\r\n\r\n    /**\r\n        * @dev This function is used to update the order status to outfordelivery and damaged.\r\n        * @param order_id The id of the order to be delivered.\r\n    */\r\n    function update_status_to_ofd_and_damaged(uint order_id ) is_shipment() public returns(bool) {\r\n        require(order_id <= order_count, \"Order doesn't exist\");\r\n        require(order_details[order_id].status == OrderStatus.onthewaytocustomer, \"Order is not on the way to customer\");\r\n        order_details[order_id].status = OrderStatus.outfordelivery;\r\n        order_details[order_id].pStatus = ProductStatus.damaged;\r\n        order_details[order_id] = order_details[order_count];\r\n        emit order_status_update(order_id, order_details[order_id].status);\r\n        emit order_damaged_update(order_id, order_details[order_id].pStatus);\r\n        return true;\r\n    }\r\n    /**\r\n        * @dev This function is used to update the order status to outfordelivery and not damaged.\r\n        * @param order_id The id of the order to be updated.\r\n    */\r\n    function update_status_to_ofd_and_not_damaged(uint order_id) is_shipment() public returns(bool) {\r\n        require(order_id <= order_count, \"Order doesn't exist\");\r\n        require(order_details[order_id].status == OrderStatus.onthewaytocustomer, \"Order is not on the way to customer\");\r\n        order_details[order_id].status = OrderStatus.outfordelivery;\r\n        order_details[order_id] = order_details[order_count];\r\n        emit order_status_update(order_id, order_details[order_id].status);\r\n        return true;\r\n    }\r\n    /**\r\n        * @dev This function is used to update the order status to received and damaged.\r\n        * @param order_id The id of the order to be updated.\r\n    */\r\n    function update_status_to_received_and_damaged(uint order_id ) is_shipment() public returns(bool) {\r\n        require(order_id <= order_count, \"Order doesn't exist\");\r\n        require(order_details[order_id].status == OrderStatus.onthewaytocustomer || order_details[order_id].status == OrderStatus.outfordelivery , \"Order is not on the way to customer or not out for delivery\");\r\n        order_details[order_id].status = OrderStatus.received;\r\n        order_details[order_id].pStatus = ProductStatus.damaged;\r\n        order_details[order_id] = order_details[order_count];\r\n        emit order_status_update(order_id, order_details[order_id].status);\r\n        emit order_damaged_update(order_id, order_details[order_id].pStatus);\r\n        return true;\r\n    }\r\n    /**\r\n        * @dev This function is used to update the order status to received and not damaged.\r\n        * @param order_id The id of the order to be updated.\r\n    */\r\n    function update_status_to_received_and_not_damaged(uint order_id ) is_shipment() public returns(bool) {\r\n        require(order_id <= order_count, \"Order doesn't exist\");\r\n        require(order_details[order_id].status == OrderStatus.onthewaytocustomer || order_details[order_id].status == OrderStatus.outfordelivery , \"Order is not on the way to customer or not out for delivery\");\r\n        order_details[order_id].status = OrderStatus.received;\r\n        order_details[order_id] = order_details[order_count];\r\n        emit order_status_update(order_id, order_details[order_id].status);\r\n        return true;\r\n    }\r\n    /**\r\n        * @dev This function is used to update the order status to cancelled and damaged.\r\n        * @param order_id The id of the order to be updated.\r\n    */\r\n    function update_status_to_cancelled_and_damaged(uint order_id ) is_shipment() public returns(bool) {\r\n        require(order_id <= order_count, \"Order doesn't exist\");\r\n        require(order_details[order_id].status != OrderStatus.received, \"Order is already received\");\r\n        order_details[order_id].status = OrderStatus.cancelled;\r\n        order_details[order_id].pStatus = ProductStatus.damaged;\r\n        order_details[order_id] = order_details[order_count];\r\n        emit order_status_update(order_id, order_details[order_id].status);\r\n        emit order_damaged_update(order_id, order_details[order_id].pStatus);\r\n        return true;\r\n    }\r\n    /**\r\n        * @dev This function is used to update the order status to cancelled and not damaged.\r\n        * @param order_id The id of the order to be updated.\r\n    */\r\n    function update_status_to_cancelled_and_not_damaged(uint order_id ) is_shipment() public returns(bool) {\r\n        require(order_id <= order_count, \"Order doesn't exist\");\r\n       require(order_details[order_id].status != OrderStatus.received, \"Order is already received\");\r\n        order_details[order_id].status = OrderStatus.cancelled;\r\n        order_details[order_id] = order_details[order_count];\r\n        emit order_status_update(order_id, order_details[order_id].status);\r\n        return true;\r\n    }\r\n\r\n    /**\r\n        * @dev This function is used to checking the order status.\r\n        * @param order_id This is the order id of the order that is checking status.\r\n    */\r\n   function check_order_status_shipment(uint order_id, uint seller_id) is_shipment()  public view returns(OrderStatus,ProductStatus) {\r\n        require(seller_id <= seller_count, \"Seller doesn't exist\");\r\n        require(order_id <= order_count, \"Order doesn't exist\");\r\n    \r\n        /*if(order_details[order_id].status == OrderStatus.ordered && order_details[order_id].pStatus == ProductStatus.damaged) {\r\n            return (0,1);\r\n        }else if(order_details[order_id].status == OrderStatus.ordered && order_details[order_id].pStatus == ProductStatus.not_damaged) {\r\n             return (0,0);\r\n        }else if(order_details[order_id].status == OrderStatus.preparing && order_details[order_id].pStatus == ProductStatus.damaged) {\r\n            return (1,1);\r\n        }else if(order_details[order_id].status == OrderStatus.preparing && order_details[order_id].pStatus == ProductStatus.not_damaged) {\r\n             return (1,0);\r\n        }else if(order_details[order_id].status == OrderStatus.onthewaytocustomer && order_details[order_id].pStatus == ProductStatus.damaged) {\r\n             return (2,1);\r\n        }else if(order_details[order_id].status == OrderStatus.onthewaytocustomer && order_details[order_id].pStatus == ProductStatus.not_damaged) {\r\n             return (2,0);\r\n        }else if(order_details[order_id].status == OrderStatus.outfordelivery && order_details[order_id].pStatus == ProductStatus.damaged) {\r\n             return (3,1);\r\n        }else if(order_details[order_id].status == OrderStatus.outfordelivery && order_details[order_id].pStatus == ProductStatus.not_damaged) {\r\n             return (3,0);\r\n        }else if(order_details[order_id].status == OrderStatus.received && order_details[order_id].pStatus == ProductStatus.damaged) {\r\n             return (4,1);\r\n        }else if(order_details[order_id].status == OrderStatus.received && order_details[order_id].pStatus == ProductStatus.damaged){\r\n            return (4,0);\r\n        }else if(order_details[order_id].status == OrderStatus.cancelled && order_details[order_id].pStatus == ProductStatus.damaged) {\r\n             return (5,1);\r\n        }else {\r\n            return (5,0);\r\n        }*/\r\n        return (order_details[order_id].status,order_details[order_id].pStatus);\r\n    }\r\n\r\n  \r\n    \r\n}",
  "sourcePath": "D:\\Formal\\1. Courses\\a. Decentralized Shipment\\Decentralized_Shipment\\contracts\\DecentralizedShipment.sol",
  "compiler": {
    "name": "solc",
    "version": "0.5.16+commit.9c3226ce.Emscripten.clang"
  },
  "schemaVersion": "3.4.4",
  "updatedAt": "2022-06-03T22:05:33.113Z",
  "networkType": "ethereum",
  "devdoc": {
    "methods": {
      "cancel_order(uint256)": {
        "details": "Function to cancel an order.",
        "params": {
          "order_id": "The id of the order to be cancelled."
        },
        "return": "True if the order is cancelled, false otherwise."
      },
      "check_order_status_customer(uint256,uint256)": {
        "details": "This function is used to checking the order status.",
        "params": {
          "order_id": "This is the order id of the order that is checking status.",
          "seller_id": "This is the seller id of the seller who is selling the product."
        },
        "return": "This return the order status and product status."
      },
      "check_order_status_seller(uint256,uint256)": {
        "details": "This function is used to checking the order status.",
        "params": {
          "order_id": "This is the order id of the order that is checking status."
        },
        "return": "The status of the order and status of the product."
      },
      "check_order_status_shipment(uint256,uint256)": {
        "details": "This function is used to checking the order status.",
        "params": {
          "order_id": "This is the order id of the order that is checking status."
        }
      },
      "give_order(uint256,uint256)": {
        "details": "This function is used to give an order to a customer.",
        "params": {
          "product_id": "This is the product id of the product that is being ordered.",
          "seller_id": "This is the seller id of the seller who is selling the product."
        }
      },
      "receive_and_prepare_the_order(uint256)": {
        "details": "This function is used receive the order by the seller.",
        "params": {
          "order_id": "The id of the seller to be preparing."
        }
      },
      "receive_and_ship_the_order(uint256)": {
        "details": "This function is used receive the order from the delivery person.",
        "params": {
          "order_id": "The id of the seller to be preparing."
        }
      },
      "receive_order(uint256)": {
        "details": "This function is used for the receiving the order.",
        "params": {
          "order_id": "The id of the order to be received."
        },
        "return": "True if the order is received, false otherwise."
      },
      "register_customer()": {
        "details": "This function is used to register a customer in the system."
      },
      "register_seller()": {
        "details": "This function is used to add a new seller.",
        "return": "True if the seller is added, false otherwise."
      },
      "register_shipment()": {
        "details": "This function is used to add a new delivery person.",
        "return": "True if the seller is added, false otherwise."
      },
      "transfer_order_to_shipment(uint256)": {
        "details": "This function is used to transfer the order to the delivery person.",
        "params": {
          "order_id": "The id of the order to be delivered."
        },
        "return": "True if the order is delivered, false otherwise."
      },
      "update_status_to_cancelled_and_damaged(uint256)": {
        "details": "This function is used to update the order status to cancelled and damaged.",
        "params": {
          "order_id": "The id of the order to be updated."
        }
      },
      "update_status_to_cancelled_and_not_damaged(uint256)": {
        "details": "This function is used to update the order status to cancelled and not damaged.",
        "params": {
          "order_id": "The id of the order to be updated."
        }
      },
      "update_status_to_ofd_and_damaged(uint256)": {
        "details": "This function is used to update the order status to outfordelivery and damaged.",
        "params": {
          "order_id": "The id of the order to be delivered."
        }
      },
      "update_status_to_ofd_and_not_damaged(uint256)": {
        "details": "This function is used to update the order status to outfordelivery and not damaged.",
        "params": {
          "order_id": "The id of the order to be updated."
        }
      },
      "update_status_to_received_and_damaged(uint256)": {
        "details": "This function is used to update the order status to received and damaged.",
        "params": {
          "order_id": "The id of the order to be updated."
        }
      },
      "update_status_to_received_and_not_damaged(uint256)": {
        "details": "This function is used to update the order status to received and not damaged.",
        "params": {
          "order_id": "The id of the order to be updated."
        }
      }
    }
  },
  "userdoc": {
    "methods": {}
  }
}