{
  "contractName": "DecentralizedShipment",
  "abi": [
    {
      "anonymous": false,
      "inputs": [
        {
          "indexed": false,
          "name": "order_id",
          "type": "uint256"
        },
        {
          "indexed": false,
          "name": "status",
          "type": "uint8"
        }
      ],
      "name": "order_status_update",
      "type": "event",
      "signature": "0x58d97c9a7f506d49829d9f53a5aad430cff9d6ea208dddd9a7cf01ef5eccbc40"
    },
    {
      "anonymous": false,
      "inputs": [
        {
          "indexed": false,
          "name": "order_id",
          "type": "uint256"
        },
        {
          "indexed": false,
          "name": "pStatus",
          "type": "uint8"
        }
      ],
      "name": "order_damaged_update",
      "type": "event",
      "signature": "0x5b88ca144f1d4b33cbdd6e83ce1eb3c5ea8efc0c2a83ff3a6423827a579e9ba2"
    },
    {
      "constant": true,
      "inputs": [
        {
          "name": "item",
          "type": "uint256"
        },
        {
          "name": "seller_id",
          "type": "uint256"
        }
      ],
      "name": "product_exists",
      "outputs": [
        {
          "name": "",
          "type": "bool"
        }
      ],
      "payable": false,
      "stateMutability": "view",
      "type": "function",
      "signature": "0x85d0c229"
    },
    {
      "constant": true,
      "inputs": [],
      "name": "get_id",
      "outputs": [
        {
          "name": "",
          "type": "uint256"
        }
      ],
      "payable": false,
      "stateMutability": "view",
      "type": "function",
      "signature": "0xf43fa805"
    },
    {
      "constant": false,
      "inputs": [],
      "name": "register_customer",
      "outputs": [
        {
          "name": "",
          "type": "bool"
        }
      ],
      "payable": false,
      "stateMutability": "nonpayable",
      "type": "function",
      "signature": "0x16212cde"
    },
    {
      "constant": false,
      "inputs": [
        {
          "name": "product_id",
          "type": "uint256"
        },
        {
          "name": "seller_id",
          "type": "uint256"
        }
      ],
      "name": "give_order",
      "outputs": [
        {
          "name": "",
          "type": "bool"
        }
      ],
      "payable": true,
      "stateMutability": "payable",
      "type": "function",
      "signature": "0xae4aad2f"
    },
    {
      "constant": true,
      "inputs": [
        {
          "name": "order_id",
          "type": "uint256"
        },
        {
          "name": "seller_id",
          "type": "uint256"
        }
      ],
      "name": "check_order_status_customer",
      "outputs": [
        {
          "name": "",
          "type": "uint8"
        },
        {
          "name": "",
          "type": "uint8"
        }
      ],
      "payable": false,
      "stateMutability": "view",
      "type": "function",
      "signature": "0xce59b43c"
    },
    {
      "constant": false,
      "inputs": [
        {
          "name": "order_id",
          "type": "uint256"
        }
      ],
      "name": "cancel_order",
      "outputs": [
        {
          "name": "",
          "type": "uint8"
        }
      ],
      "payable": false,
      "stateMutability": "nonpayable",
      "type": "function",
      "signature": "0xb6bd2ee2"
    },
    {
      "constant": false,
      "inputs": [
        {
          "name": "order_id",
          "type": "uint256"
        }
      ],
      "name": "receive_order",
      "outputs": [
        {
          "name": "",
          "type": "uint8"
        }
      ],
      "payable": false,
      "stateMutability": "nonpayable",
      "type": "function",
      "signature": "0xb20a9aa9"
    },
    {
      "constant": false,
      "inputs": [],
      "name": "register_seller",
      "outputs": [
        {
          "name": "",
          "type": "bool"
        }
      ],
      "payable": false,
      "stateMutability": "nonpayable",
      "type": "function",
      "signature": "0xea4c715b"
    },
    {
      "constant": false,
      "inputs": [
        {
          "name": "order_id",
          "type": "uint256"
        }
      ],
      "name": "receive_and_prepare_the_order",
      "outputs": [
        {
          "name": "",
          "type": "bool"
        }
      ],
      "payable": false,
      "stateMutability": "nonpayable",
      "type": "function",
      "signature": "0x7b65d780"
    },
    {
      "constant": false,
      "inputs": [
        {
          "name": "order_id",
          "type": "uint256"
        }
      ],
      "name": "transfer_order_to_shipment",
      "outputs": [
        {
          "name": "",
          "type": "uint8"
        }
      ],
      "payable": true,
      "stateMutability": "payable",
      "type": "function",
      "signature": "0x49f29717"
    },
    {
      "constant": true,
      "inputs": [
        {
          "name": "order_id",
          "type": "uint256"
        },
        {
          "name": "seller_id",
          "type": "uint256"
        }
      ],
      "name": "check_order_status_seller",
      "outputs": [
        {
          "name": "",
          "type": "uint8"
        },
        {
          "name": "",
          "type": "uint8"
        }
      ],
      "payable": false,
      "stateMutability": "view",
      "type": "function",
      "signature": "0x2f41dd6f"
    },
    {
      "constant": false,
      "inputs": [],
      "name": "register_shipment",
      "outputs": [
        {
          "name": "",
          "type": "bool"
        }
      ],
      "payable": false,
      "stateMutability": "nonpayable",
      "type": "function",
      "signature": "0xc29d28eb"
    },
    {
      "constant": false,
      "inputs": [
        {
          "name": "order_id",
          "type": "uint256"
        }
      ],
      "name": "receive_and_ship_the_order",
      "outputs": [
        {
          "name": "",
          "type": "bool"
        }
      ],
      "payable": false,
      "stateMutability": "nonpayable",
      "type": "function",
      "signature": "0x373d465c"
    },
    {
      "constant": false,
      "inputs": [
        {
          "name": "order_id",
          "type": "uint256"
        }
      ],
      "name": "update_status_to_ofd_and_damaged",
      "outputs": [
        {
          "name": "",
          "type": "bool"
        }
      ],
      "payable": false,
      "stateMutability": "nonpayable",
      "type": "function",
      "signature": "0x8fc064c7"
    },
    {
      "constant": false,
      "inputs": [
        {
          "name": "order_id",
          "type": "uint256"
        }
      ],
      "name": "update_status_to_ofd_and_not_damaged",
      "outputs": [
        {
          "name": "",
          "type": "bool"
        }
      ],
      "payable": false,
      "stateMutability": "nonpayable",
      "type": "function",
      "signature": "0xdc7a045b"
    },
    {
      "constant": false,
      "inputs": [
        {
          "name": "order_id",
          "type": "uint256"
        }
      ],
      "name": "update_status_to_received_and_damaged",
      "outputs": [
        {
          "name": "",
          "type": "bool"
        }
      ],
      "payable": false,
      "stateMutability": "nonpayable",
      "type": "function",
      "signature": "0xaddfa997"
    },
    {
      "constant": false,
      "inputs": [
        {
          "name": "order_id",
          "type": "uint256"
        }
      ],
      "name": "update_status_to_received_and_not_damaged",
      "outputs": [
        {
          "name": "",
          "type": "bool"
        }
      ],
      "payable": false,
      "stateMutability": "nonpayable",
      "type": "function",
      "signature": "0xcd04b162"
    },
    {
      "constant": false,
      "inputs": [
        {
          "name": "order_id",
          "type": "uint256"
        }
      ],
      "name": "update_status_to_cancelled_and_damaged",
      "outputs": [
        {
          "name": "",
          "type": "bool"
        }
      ],
      "payable": false,
      "stateMutability": "nonpayable",
      "type": "function",
      "signature": "0x0df26cc7"
    },
    {
      "constant": false,
      "inputs": [
        {
          "name": "order_id",
          "type": "uint256"
        }
      ],
      "name": "update_status_to_cancelled_and_not_damaged",
      "outputs": [
        {
          "name": "",
          "type": "bool"
        }
      ],
      "payable": false,
      "stateMutability": "nonpayable",
      "type": "function",
      "signature": "0x4a3ca965"
    },
    {
      "constant": true,
      "inputs": [
        {
          "name": "order_id",
          "type": "uint256"
        },
        {
          "name": "seller_id",
          "type": "uint256"
        }
      ],
      "name": "check_order_status_shipment",
      "outputs": [
        {
          "name": "",
          "type": "uint8"
        },
        {
          "name": "",
          "type": "uint8"
        }
      ],
      "payable": false,
      "stateMutability": "view",
      "type": "function",
      "signature": "0xcae8f5ce"
    }
  ],
  "bytecode": "0x6080604052600560005560006001556000600255600060035560006004556005805534801561002d57600080fd5b506148418061003d6000396000f3fe608060405260043610610112576000357c0100000000000000000000000000000000000000000000000000000000900463ffffffff1680630df26cc71461011757806316212cde1461016a5780632f41dd6f14610199578063373d465c1461021557806349f29717146102685780634a3ca965146102b85780637b65d7801461030b57806385d0c2291461035e5780638fc064c7146103bb578063addfa9971461040e578063ae4aad2f14610461578063b20a9aa9146104b1578063b6bd2ee21461050e578063c29d28eb1461056b578063cae8f5ce1461059a578063cd04b16214610616578063ce59b43c14610669578063dc7a045b146106e5578063ea4c715b14610738578063f43fa80514610767575b600080fd5b34801561012357600080fd5b506101506004803603602081101561013a57600080fd5b8101908080359060200190929190505050610792565b604051808215151515815260200191505060405180910390f35b34801561017657600080fd5b5061017f610bd5565b604051808215151515815260200191505060405180910390f35b3480156101a557600080fd5b506101dc600480360360408110156101bc57600080fd5b810190808035906020019092919080359060200190929190505050610d56565b604051808360058111156101ec57fe5b60ff16815260200182600181111561020057fe5b60ff1681526020019250505060405180910390f35b34801561022157600080fd5b5061024e6004803603602081101561023857600080fd5b8101908080359060200190929190505050610f7d565b604051808215151515815260200191505060405180910390f35b6102946004803603602081101561027e57600080fd5b8101908080359060200190929190505050611254565b604051808260058111156102a457fe5b60ff16815260200191505060405180910390f35b3480156102c457600080fd5b506102f1600480360360208110156102db57600080fd5b81019080803590602001909291905050506114c0565b604051808215151515815260200191505060405180910390f35b34801561031757600080fd5b506103446004803603602081101561032e57600080fd5b810190808035906020019092919050505061185b565b604051808215151515815260200191505060405180910390f35b34801561036a57600080fd5b506103a16004803603604081101561038157600080fd5b810190808035906020019092919080359060200190929190505050611b6e565b604051808215151515815260200191505060405180910390f35b3480156103c757600080fd5b506103f4600480360360208110156103de57600080fd5b8101908080359060200190929190505050611bef565b604051808215151515815260200191505060405180910390f35b34801561041a57600080fd5b506104476004803603602081101561043157600080fd5b8101908080359060200190929190505050612057565b604051808215151515815260200191505060405180910390f35b6104976004803603604081101561047757600080fd5b810190808035906020019092919080359060200190929190505050612503565b604051808215151515815260200191505060405180910390f35b3480156104bd57600080fd5b506104ea600480360360208110156104d457600080fd5b810190808035906020019092919050505061298d565b604051808260058111156104fa57fe5b60ff16815260200191505060405180910390f35b34801561051a57600080fd5b506105476004803603602081101561053157600080fd5b8101908080359060200190929190505050612ee3565b6040518082600581111561055757fe5b60ff16815260200191505060405180910390f35b34801561057757600080fd5b50610580613511565b604051808215151515815260200191505060405180910390f35b3480156105a657600080fd5b506105dd600480360360408110156105bd57600080fd5b810190808035906020019092919080359060200190929190505050613688565b604051808360058111156105ed57fe5b60ff16815260200182600181111561060157fe5b60ff1681526020019250505060405180910390f35b34801561062257600080fd5b5061064f6004803603602081101561063957600080fd5b81019080803590602001909291905050506138af565b604051808215151515815260200191505060405180910390f35b34801561067557600080fd5b506106ac6004803603604081101561068c57600080fd5b810190808035906020019092919080359060200190929190505050613cb3565b604051808360058111156106bc57fe5b60ff1681526020018260018111156106d057fe5b60ff1681526020019250505060405180910390f35b3480156106f157600080fd5b5061071e6004803603602081101561070857600080fd5b8101908080359060200190929190505050613fa8565b604051808215151515815260200191505060405180910390f35b34801561074457600080fd5b5061074d614368565b604051808215151515815260200191505060405180910390f35b34801561077357600080fd5b5061077c6145cd565b6040518082815260200191505060405180910390f35b600080600b60003373ffffffffffffffffffffffffffffffffffffffff1673ffffffffffffffffffffffffffffffffffffffff16815260200190815260200160002054111515610870576040517f08c379a00000000000000000000000000000000000000000000000000000000081526004018080602001828103825260238152602001807f596f75206172656e27742072656769737465726564206173206120736869706d81526020017f656e74000000000000000000000000000000000000000000000000000000000081525060400191505060405180910390fd5b60045482111515156108ea576040517f08c379a00000000000000000000000000000000000000000000000000000000081526004018080602001828103825260138152602001807f4f7264657220646f65736e27742065786973740000000000000000000000000081525060200191505060405180910390fd5b600460058111156108f757fe5b6009600084815260200190815260200160002060060160009054906101000a900460ff16600581111561092657fe5b1415151561099c576040517f08c379a00000000000000000000000000000000000000000000000000000000081526004018080602001828103825260198152602001807f4f7264657220697320616c72656164792072656365697665640000000000000081525060200191505060405180910390fd5b60056009600084815260200190815260200160002060060160006101000a81548160ff021916908360058111156109cf57fe5b021790555060006009600084815260200190815260200160002060060160016101000a81548160ff02191690836001811115610a0757fe5b021790555060096000600454815260200190815260200160002060096000848152602001908152602001600020600082015481600001556001820181600101908054610a54929190614751565b50600282015481600201556003820154816003015560048201548160040155600582015481600501556006820160009054906101000a900460ff168160060160006101000a81548160ff02191690836005811115610aae57fe5b02179055506006820160019054906101000a900460ff168160060160016101000a81548160ff02191690836001811115610ae457fe5b02179055509050507f58d97c9a7f506d49829d9f53a5aad430cff9d6ea208dddd9a7cf01ef5eccbc40826009600085815260200190815260200160002060060160009054906101000a900460ff1660405180838152602001826005811115610b4857fe5b60ff1681526020019250505060405180910390a17f5b88ca144f1d4b33cbdd6e83ce1eb3c5ea8efc0c2a83ff3a6423827a579e9ba2826009600085815260200190815260200160002060060160019054906101000a900460ff1660405180838152602001826001811115610bb857fe5b60ff1681526020019250505060405180910390a160019050919050565b600080600c60003373ffffffffffffffffffffffffffffffffffffffff1673ffffffffffffffffffffffffffffffffffffffff16815260200190815260200160002054141515610c8d576040517f08c379a000000000000000000000000000000000000000000000000000000000815260040180806020018281038252601b8152602001807f437573746f6d657220616c72656164792072656769737465726564000000000081525060200191505060405180910390fd5b600360008154809291906001019190505550600060066000600354815260200190815260200160002090506003548160000181905550600081600101819055508060066000836000015481526020019081526020016000206000820154816000015560018201548160010155600282015481600201559050508060000154600c60003373ffffffffffffffffffffffffffffffffffffffff1673ffffffffffffffffffffffffffffffffffffffff16815260200190815260200160002081905550600191505090565b6000806000600a60003373ffffffffffffffffffffffffffffffffffffffff1673ffffffffffffffffffffffffffffffffffffffff16815260200190815260200160002054111515610e36576040517f08c379a00000000000000000000000000000000000000000000000000000000081526004018080602001828103825260218152602001807f596f75206172656e2774207265676973746572656420617320612073656c6c6581526020017f720000000000000000000000000000000000000000000000000000000000000081525060400191505060405180910390fd5b6002548311151515610eb0576040517f08c379a00000000000000000000000000000000000000000000000000000000081526004018080602001828103825260148152602001807f53656c6c657220646f65736e277420657869737400000000000000000000000081525060200191505060405180910390fd5b6004548411151515610f2a576040517f08c379a00000000000000000000000000000000000000000000000000000000081526004018080602001828103825260138152602001807f4f7264657220646f65736e27742065786973740000000000000000000000000081525060200191505060405180910390fd5b6009600085815260200190815260200160002060060160009054906101000a900460ff166009600086815260200190815260200160002060060160019054906101000a900460ff16915091509250929050565b600080600b60003373ffffffffffffffffffffffffffffffffffffffff1673ffffffffffffffffffffffffffffffffffffffff1681526020019081526020016000205411151561105b576040517f08c379a00000000000000000000000000000000000000000000000000000000081526004018080602001828103825260238152602001807f596f75206172656e27742072656769737465726564206173206120736869706d81526020017f656e74000000000000000000000000000000000000000000000000000000000081525060400191505060405180910390fd5b6000600b60003373ffffffffffffffffffffffffffffffffffffffff1673ffffffffffffffffffffffffffffffffffffffff1681526020019081526020016000205490506000600860008381526020019081526020016000206001015414151561112d576040517f08c379a00000000000000000000000000000000000000000000000000000000081526004018080602001828103825260208152602001807f416c72656164792064656c69766572696e6720616e6f74686572206f7264657281525060200191505060405180910390fd5b60026009600085815260200190815260200160002060060160006101000a81548160ff0219169083600581111561116057fe5b0217905550600b60003373ffffffffffffffffffffffffffffffffffffffff1673ffffffffffffffffffffffffffffffffffffffff1681526020019081526020016000205460096000858152602001908152602001600020600401819055508260086000838152602001908152602001600020600101819055507f58d97c9a7f506d49829d9f53a5aad430cff9d6ea208dddd9a7cf01ef5eccbc40836009600086815260200190815260200160002060060160009054906101000a900460ff166040518083815260200182600581111561123657fe5b60ff1681526020019250505060405180910390a16001915050919050565b600080600a60003373ffffffffffffffffffffffffffffffffffffffff1673ffffffffffffffffffffffffffffffffffffffff16815260200190815260200160002054111515611332576040517f08c379a00000000000000000000000000000000000000000000000000000000081526004018080602001828103825260218152602001807f596f75206172656e2774207265676973746572656420617320612073656c6c6581526020017f720000000000000000000000000000000000000000000000000000000000000081525060400191505060405180910390fd5b60045482111515156113ac576040517f08c379a00000000000000000000000000000000000000000000000000000000081526004018080602001828103825260138152602001807f4f7264657220646f65736e27742065786973740000000000000000000000000081525060200191505060405180910390fd5b600160058111156113b957fe5b6009600084815260200190815260200160002060060160009054906101000a900460ff1660058111156113e857fe5b14151561145d576040517f08c379a00000000000000000000000000000000000000000000000000000000081526004018080602001828103825260158152602001807f4f72646572206973206e6f74207072657061726564000000000000000000000081525060200191505060405180910390fd5b60026009600084815260200190815260200160002060060160006101000a81548160ff0219169083600581111561149057fe5b02179055506009600083815260200190815260200160002060060160009054906101000a900460ff169050919050565b600080600b60003373ffffffffffffffffffffffffffffffffffffffff1673ffffffffffffffffffffffffffffffffffffffff1681526020019081526020016000205411151561159e576040517f08c379a00000000000000000000000000000000000000000000000000000000081526004018080602001828103825260238152602001807f596f75206172656e27742072656769737465726564206173206120736869706d81526020017f656e74000000000000000000000000000000000000000000000000000000000081525060400191505060405180910390fd5b6004548211151515611618576040517f08c379a00000000000000000000000000000000000000000000000000000000081526004018080602001828103825260138152602001807f4f7264657220646f65736e27742065786973740000000000000000000000000081525060200191505060405180910390fd5b6004600581111561162557fe5b6009600084815260200190815260200160002060060160009054906101000a900460ff16600581111561165457fe5b141515156116ca576040517f08c379a00000000000000000000000000000000000000000000000000000000081526004018080602001828103825260198152602001807f4f7264657220697320616c72656164792072656365697665640000000000000081525060200191505060405180910390fd5b60056009600084815260200190815260200160002060060160006101000a81548160ff021916908360058111156116fd57fe5b02179055506009600060045481526020019081526020016000206009600084815260200190815260200160002060008201548160000155600182018160010190805461174a929190614751565b50600282015481600201556003820154816003015560048201548160040155600582015481600501556006820160009054906101000a900460ff168160060160006101000a81548160ff021916908360058111156117a457fe5b02179055506006820160019054906101000a900460ff168160060160016101000a81548160ff021916908360018111156117da57fe5b02179055509050507f58d97c9a7f506d49829d9f53a5aad430cff9d6ea208dddd9a7cf01ef5eccbc40826009600085815260200190815260200160002060060160009054906101000a900460ff166040518083815260200182600581111561183e57fe5b60ff1681526020019250505060405180910390a160019050919050565b600080600a60003373ffffffffffffffffffffffffffffffffffffffff1673ffffffffffffffffffffffffffffffffffffffff16815260200190815260200160002054111515611939576040517f08c379a00000000000000000000000000000000000000000000000000000000081526004018080602001828103825260218152602001807f596f75206172656e2774207265676973746572656420617320612073656c6c6581526020017f720000000000000000000000000000000000000000000000000000000000000081525060400191505060405180910390fd5b6000600a60003373ffffffffffffffffffffffffffffffffffffffff1673ffffffffffffffffffffffffffffffffffffffff168152602001908152602001600020549050806009600085815260200190815260200160002060030154141515611a0a576040517f08c379a000000000000000000000000000000000000000000000000000000000815260040180806020018281038252600e8152602001807f4e6f7420796f7572206f7264657200000000000000000000000000000000000081525060200191505060405180910390fd5b60016005811115611a1757fe5b6009600085815260200190815260200160002060060160009054906101000a900460ff166005811115611a4657fe5b14151515611abc576040517f08c379a000000000000000000000000000000000000000000000000000000000815260040180806020018281038252601b8152602001807f416c72656164792061636365707465642074686973206f72646572000000000081525060200191505060405180910390fd5b60016009600085815260200190815260200160002060060160006101000a81548160ff02191690836005811115611aef57fe5b02179055507f58d97c9a7f506d49829d9f53a5aad430cff9d6ea208dddd9a7cf01ef5eccbc40836009600086815260200190815260200160002060060160009054906101000a900460ff1660405180838152602001826005811115611b5057fe5b60ff1681526020019250505060405180910390a16001915050919050565b600080600090505b6007600084815260200190815260200160002060010180549050811015611be357836007600085815260200190815260200160002060010182815481101515611bbb57fe5b90600052602060002001541415611bd6576001915050611be9565b8080600101915050611b76565b60009150505b92915050565b600080600b60003373ffffffffffffffffffffffffffffffffffffffff1673ffffffffffffffffffffffffffffffffffffffff16815260200190815260200160002054111515611ccd576040517f08c379a00000000000000000000000000000000000000000000000000000000081526004018080602001828103825260238152602001807f596f75206172656e27742072656769737465726564206173206120736869706d81526020017f656e74000000000000000000000000000000000000000000000000000000000081525060400191505060405180910390fd5b6004548211151515611d47576040517f08c379a00000000000000000000000000000000000000000000000000000000081526004018080602001828103825260138152602001807f4f7264657220646f65736e27742065786973740000000000000000000000000081525060200191505060405180910390fd5b60026005811115611d5457fe5b6009600084815260200190815260200160002060060160009054906101000a900460ff166005811115611d8357fe5b141515611e1e576040517f08c379a000000000000000000000000000000000000000000000000000000000815260040180806020018281038252602f8152602001807f4f72646572206973206e6f74206f6e2074686520776179206f72206e6f74206f81526020017f757420666f722064656c6976657279000000000000000000000000000000000081525060400191505060405180910390fd5b60036009600084815260200190815260200160002060060160006101000a81548160ff02191690836005811115611e5157fe5b021790555060006009600084815260200190815260200160002060060160016101000a81548160ff02191690836001811115611e8957fe5b021790555060096000600454815260200190815260200160002060096000848152602001908152602001600020600082015481600001556001820181600101908054611ed6929190614751565b50600282015481600201556003820154816003015560048201548160040155600582015481600501556006820160009054906101000a900460ff168160060160006101000a81548160ff02191690836005811115611f3057fe5b02179055506006820160019054906101000a900460ff168160060160016101000a81548160ff02191690836001811115611f6657fe5b02179055509050507f58d97c9a7f506d49829d9f53a5aad430cff9d6ea208dddd9a7cf01ef5eccbc40826009600085815260200190815260200160002060060160009054906101000a900460ff1660405180838152602001826005811115611fca57fe5b60ff1681526020019250505060405180910390a17f5b88ca144f1d4b33cbdd6e83ce1eb3c5ea8efc0c2a83ff3a6423827a579e9ba2826009600085815260200190815260200160002060060160019054906101000a900460ff166040518083815260200182600181111561203a57fe5b60ff1681526020019250505060405180910390a160019050919050565b600080600b60003373ffffffffffffffffffffffffffffffffffffffff1673ffffffffffffffffffffffffffffffffffffffff16815260200190815260200160002054111515612135576040517f08c379a00000000000000000000000000000000000000000000000000000000081526004018080602001828103825260238152602001807f596f75206172656e27742072656769737465726564206173206120736869706d81526020017f656e74000000000000000000000000000000000000000000000000000000000081525060400191505060405180910390fd5b60045482111515156121af576040517f08c379a00000000000000000000000000000000000000000000000000000000081526004018080602001828103825260138152602001807f4f7264657220646f65736e27742065786973740000000000000000000000000081525060200191505060405180910390fd5b600260058111156121bc57fe5b6009600084815260200190815260200160002060060160009054906101000a900460ff1660058111156121eb57fe5b14806122305750600360058111156121ff57fe5b6009600084815260200190815260200160002060060160009054906101000a900460ff16600581111561222e57fe5b145b15156122ca576040517f08c379a000000000000000000000000000000000000000000000000000000000815260040180806020018281038252602f8152602001807f4f72646572206973206e6f74206f6e2074686520776179206f72206e6f74206f81526020017f757420666f722064656c6976657279000000000000000000000000000000000081525060400191505060405180910390fd5b60046009600084815260200190815260200160002060060160006101000a81548160ff021916908360058111156122fd57fe5b021790555060006009600084815260200190815260200160002060060160016101000a81548160ff0219169083600181111561233557fe5b021790555060096000600454815260200190815260200160002060096000848152602001908152602001600020600082015481600001556001820181600101908054612382929190614751565b50600282015481600201556003820154816003015560048201548160040155600582015481600501556006820160009054906101000a900460ff168160060160006101000a81548160ff021916908360058111156123dc57fe5b02179055506006820160019054906101000a900460ff168160060160016101000a81548160ff0219169083600181111561241257fe5b02179055509050507f58d97c9a7f506d49829d9f53a5aad430cff9d6ea208dddd9a7cf01ef5eccbc40826009600085815260200190815260200160002060060160009054906101000a900460ff166040518083815260200182600581111561247657fe5b60ff1681526020019250505060405180910390a17f5b88ca144f1d4b33cbdd6e83ce1eb3c5ea8efc0c2a83ff3a6423827a579e9ba2826009600085815260200190815260200160002060060160019054906101000a900460ff16604051808381526020018260018111156124e657fe5b60ff1681526020019250505060405180910390a160019050919050565b600080600c60003373ffffffffffffffffffffffffffffffffffffffff1673ffffffffffffffffffffffffffffffffffffffff168152602001908152602001600020541115156125e1576040517f08c379a00000000000000000000000000000000000000000000000000000000081526004018080602001828103825260238152602001807f596f75206172656e27742072656769737465726564206173206120637573746f81526020017f6d6572000000000000000000000000000000000000000000000000000000000081525060400191505060405180910390fd5b600254821115151561265b576040517f08c379a00000000000000000000000000000000000000000000000000000000081526004018080602001828103825260148152602001807f53656c6c657220646f65736e277420657869737400000000000000000000000081525060200191505060405180910390fd5b600060066000600c60003373ffffffffffffffffffffffffffffffffffffffff1673ffffffffffffffffffffffffffffffffffffffff16815260200190815260200160002054815260200190815260200160002060010154141515612728576040517f08c379a00000000000000000000000000000000000000000000000000000000081526004018080602001828103825260138152602001807f416c726561647920676976656e206f726465720000000000000000000000000081525060200191505060405180910390fd5b600115156127368484611b6e565b15151415156127ad576040517f08c379a00000000000000000000000000000000000000000000000000000000081526004018080602001828103825260128152602001807f4974656d20646f65736e2774206578697374000000000000000000000000000081525060200191505060405180910390fd5b60046000815480929190600101919050555060006009600060045481526020019081526020016000209050600454816000018190555060206040519081016040528085815250816001019060016128059291906147a3565b506000546020604051908101604052808681525050600102816002018190555060008160060160006101000a81548160ff0219169083600581111561284657fe5b0217905550828160030181905550600c60003373ffffffffffffffffffffffffffffffffffffffff1673ffffffffffffffffffffffffffffffffffffffff16815260200190815260200160002054816005018190555060018160060160016101000a81548160ff021916908360018111156128bd57fe5b0217905550806000015460066000600c60003373ffffffffffffffffffffffffffffffffffffffff1673ffffffffffffffffffffffffffffffffffffffff168152602001908152602001600020548152602001908152602001600020600101819055507f58d97c9a7f506d49829d9f53a5aad430cff9d6ea208dddd9a7cf01ef5eccbc4081600001548260060160009054906101000a900460ff166040518083815260200182600581111561296e57fe5b60ff1681526020019250505060405180910390a1600191505092915050565b600080600c60003373ffffffffffffffffffffffffffffffffffffffff1673ffffffffffffffffffffffffffffffffffffffff16815260200190815260200160002054111515612a6b576040517f08c379a00000000000000000000000000000000000000000000000000000000081526004018080602001828103825260238152602001807f596f75206172656e27742072656769737465726564206173206120637573746f81526020017f6d6572000000000000000000000000000000000000000000000000000000000081525060400191505060405180910390fd5b600060066000600c60003373ffffffffffffffffffffffffffffffffffffffff1673ffffffffffffffffffffffffffffffffffffffff1681526020019081526020016000205481526020019081526020016000206001015414151515612b39576040517f08c379a00000000000000000000000000000000000000000000000000000000081526004018080602001828103825260208152602001807f596f7520646f6e2774206861766520616e7920616374697665206f726465727381525060200191505060405180910390fd5b6004548211151515612bb3576040517f08c379a00000000000000000000000000000000000000000000000000000000081526004018080602001828103825260138152602001807f4f7264657220646f65736e27742065786973740000000000000000000000000081525060200191505060405180910390fd5b60036005811115612bc057fe5b6009600084815260200190815260200160002060060160009054906101000a900460ff166005811115612bef57fe5b141515612c64576040517f08c379a000000000000000000000000000000000000000000000000000000000815260040180806020018281038252601d8152602001807f4f72646572206973206e6f74206f757420666f722064656c697665727900000081525060200191505060405180910390fd5b600c60003373ffffffffffffffffffffffffffffffffffffffff1673ffffffffffffffffffffffffffffffffffffffff168152602001908152602001600020546009600084815260200190815260200160002060050154141515612d30576040517f08c379a00000000000000000000000000000000000000000000000000000000081526004018080602001828103825260198152602001807f596f7520646f6e277420686176652074686973206f726465720000000000000081525060200191505060405180910390fd5b60046009600084815260200190815260200160002060060160006101000a81548160ff02191690836005811115612d6357fe5b021790555060096000600454815260200190815260200160002060096000848152602001908152602001600020600082015481600001556001820181600101908054612db0929190614751565b50600282015481600201556003820154816003015560048201548160040155600582015481600501556006820160009054906101000a900460ff168160060160006101000a81548160ff02191690836005811115612e0a57fe5b02179055506006820160019054906101000a900460ff168160060160016101000a81548160ff02191690836001811115612e4057fe5b02179055509050507f58d97c9a7f506d49829d9f53a5aad430cff9d6ea208dddd9a7cf01ef5eccbc40826009600085815260200190815260200160002060060160009054906101000a900460ff1660405180838152602001826005811115612ea457fe5b60ff1681526020019250505060405180910390a16009600083815260200190815260200160002060060160009054906101000a900460ff169050919050565b600080600c60003373ffffffffffffffffffffffffffffffffffffffff1673ffffffffffffffffffffffffffffffffffffffff16815260200190815260200160002054111515612fc1576040517f08c379a00000000000000000000000000000000000000000000000000000000081526004018080602001828103825260238152602001807f596f75206172656e27742072656769737465726564206173206120637573746f81526020017f6d6572000000000000000000000000000000000000000000000000000000000081525060400191505060405180910390fd5b600060066000600c60003373ffffffffffffffffffffffffffffffffffffffff1673ffffffffffffffffffffffffffffffffffffffff168152602001908152602001600020548152602001908152602001600020600101541415151561308f576040517f08c379a00000000000000000000000000000000000000000000000000000000081526004018080602001828103825260208152602001807f596f7520646f6e2774206861766520616e7920616374697665206f726465727381525060200191505060405180910390fd5b6004548211151515613109576040517f08c379a00000000000000000000000000000000000000000000000000000000081526004018080602001828103825260138152602001807f4f7264657220646f65736e27742065786973740000000000000000000000000081525060200191505060405180910390fd5b600c60003373ffffffffffffffffffffffffffffffffffffffff1673ffffffffffffffffffffffffffffffffffffffff1681526020019081526020016000205460096000848152602001908152602001600020600501541415156131d5576040517f08c379a00000000000000000000000000000000000000000000000000000000081526004018080602001828103825260198152602001807f596f7520646f6e277420686176652074686973206f726465720000000000000081525060200191505060405180910390fd5b600460058111156131e257fe5b6009600084815260200190815260200160002060060160009054906101000a900460ff16600581111561321157fe5b14151515613287576040517f08c379a00000000000000000000000000000000000000000000000000000000081526004018080602001828103825260198152602001807f4f7264657220697320616c72656164792072656365697665640000000000000081525060200191505060405180910390fd5b60058081111561329357fe5b6009600084815260200190815260200160002060060160009054906101000a900460ff1660058111156132c257fe5b1415151561335e576040517f08c379a00000000000000000000000000000000000000000000000000000000081526004018080602001828103825260238152602001807f596f75206861766520616c72656164792063616e63656c2074686973206f726481526020017f657221000000000000000000000000000000000000000000000000000000000081525060400191505060405180910390fd5b60056009600084815260200190815260200160002060060160006101000a81548160ff0219169083600581111561339157fe5b0217905550600960006004548152602001908152602001600020600960008481526020019081526020016000206000820154816000015560018201816001019080546133de929190614751565b50600282015481600201556003820154816003015560048201548160040155600582015481600501556006820160009054906101000a900460ff168160060160006101000a81548160ff0219169083600581111561343857fe5b02179055506006820160019054906101000a900460ff168160060160016101000a81548160ff0219169083600181111561346e57fe5b02179055509050507f58d97c9a7f506d49829d9f53a5aad430cff9d6ea208dddd9a7cf01ef5eccbc40826009600085815260200190815260200160002060060160009054906101000a900460ff16604051808381526020018260058111156134d257fe5b60ff1681526020019250505060405180910390a16009600083815260200190815260200160002060060160009054906101000a900460ff169050919050565b600080600b60003373ffffffffffffffffffffffffffffffffffffffff1673ffffffffffffffffffffffffffffffffffffffff168152602001908152602001600020541415156135c9576040517f08c379a000000000000000000000000000000000000000000000000000000000815260040180806020018281038252601b8152602001807f536869706d656e7420616c72656164792072656769737465726564000000000081525060200191505060405180910390fd5b6001600081548092919060010191905055506000600860006001548152602001908152602001600020905060015481600001819055508060086000836000015481526020019081526020016000206000820154816000015560018201548160010155600282015481600201559050508060000154600b60003373ffffffffffffffffffffffffffffffffffffffff1673ffffffffffffffffffffffffffffffffffffffff16815260200190815260200160002081905550600191505090565b6000806000600b60003373ffffffffffffffffffffffffffffffffffffffff1673ffffffffffffffffffffffffffffffffffffffff16815260200190815260200160002054111515613768576040517f08c379a00000000000000000000000000000000000000000000000000000000081526004018080602001828103825260238152602001807f596f75206172656e27742072656769737465726564206173206120736869706d81526020017f656e74000000000000000000000000000000000000000000000000000000000081525060400191505060405180910390fd5b60025483111515156137e2576040517f08c379a00000000000000000000000000000000000000000000000000000000081526004018080602001828103825260148152602001807f53656c6c657220646f65736e277420657869737400000000000000000000000081525060200191505060405180910390fd5b600454841115151561385c576040517f08c379a00000000000000000000000000000000000000000000000000000000081526004018080602001828103825260138152602001807f4f7264657220646f65736e27742065786973740000000000000000000000000081525060200191505060405180910390fd5b6009600085815260200190815260200160002060060160009054906101000a900460ff166009600086815260200190815260200160002060060160019054906101000a900460ff16915091509250929050565b600080600b60003373ffffffffffffffffffffffffffffffffffffffff1673ffffffffffffffffffffffffffffffffffffffff1681526020019081526020016000205411151561398d576040517f08c379a00000000000000000000000000000000000000000000000000000000081526004018080602001828103825260238152602001807f596f75206172656e27742072656769737465726564206173206120736869706d81526020017f656e74000000000000000000000000000000000000000000000000000000000081525060400191505060405180910390fd5b6004548211151515613a07576040517f08c379a00000000000000000000000000000000000000000000000000000000081526004018080602001828103825260138152602001807f4f7264657220646f65736e27742065786973740000000000000000000000000081525060200191505060405180910390fd5b60026005811115613a1457fe5b6009600084815260200190815260200160002060060160009054906101000a900460ff166005811115613a4357fe5b1480613a88575060036005811115613a5757fe5b6009600084815260200190815260200160002060060160009054906101000a900460ff166005811115613a8657fe5b145b1515613b22576040517f08c379a000000000000000000000000000000000000000000000000000000000815260040180806020018281038252602f8152602001807f4f72646572206973206e6f74206f6e2074686520776179206f72206e6f74206f81526020017f757420666f722064656c6976657279000000000000000000000000000000000081525060400191505060405180910390fd5b60046009600084815260200190815260200160002060060160006101000a81548160ff02191690836005811115613b5557fe5b021790555060096000600454815260200190815260200160002060096000848152602001908152602001600020600082015481600001556001820181600101908054613ba2929190614751565b50600282015481600201556003820154816003015560048201548160040155600582015481600501556006820160009054906101000a900460ff168160060160006101000a81548160ff02191690836005811115613bfc57fe5b02179055506006820160019054906101000a900460ff168160060160016101000a81548160ff02191690836001811115613c3257fe5b02179055509050507f58d97c9a7f506d49829d9f53a5aad430cff9d6ea208dddd9a7cf01ef5eccbc40826009600085815260200190815260200160002060060160009054906101000a900460ff1660405180838152602001826005811115613c9657fe5b60ff1681526020019250505060405180910390a160019050919050565b6000806000600c60003373ffffffffffffffffffffffffffffffffffffffff1673ffffffffffffffffffffffffffffffffffffffff16815260200190815260200160002054111515613d93576040517f08c379a00000000000000000000000000000000000000000000000000000000081526004018080602001828103825260238152602001807f596f75206172656e27742072656769737465726564206173206120637573746f81526020017f6d6572000000000000000000000000000000000000000000000000000000000081525060400191505060405180910390fd5b600060066000600c60003373ffffffffffffffffffffffffffffffffffffffff1673ffffffffffffffffffffffffffffffffffffffff1681526020019081526020016000205481526020019081526020016000206001015414151515613e61576040517f08c379a00000000000000000000000000000000000000000000000000000000081526004018080602001828103825260208152602001807f596f7520646f6e2774206861766520616e7920616374697665206f726465727381525060200191505060405180910390fd5b6002548311151515613edb576040517f08c379a00000000000000000000000000000000000000000000000000000000081526004018080602001828103825260148152602001807f53656c6c657220646f65736e277420657869737400000000000000000000000081525060200191505060405180910390fd5b6004548411151515613f55576040517f08c379a00000000000000000000000000000000000000000000000000000000081526004018080602001828103825260138152602001807f4f7264657220646f65736e27742065786973740000000000000000000000000081525060200191505060405180910390fd5b6009600085815260200190815260200160002060060160009054906101000a900460ff166009600086815260200190815260200160002060060160019054906101000a900460ff16915091509250929050565b600080600b60003373ffffffffffffffffffffffffffffffffffffffff1673ffffffffffffffffffffffffffffffffffffffff16815260200190815260200160002054111515614086576040517f08c379a00000000000000000000000000000000000000000000000000000000081526004018080602001828103825260238152602001807f596f75206172656e27742072656769737465726564206173206120736869706d81526020017f656e74000000000000000000000000000000000000000000000000000000000081525060400191505060405180910390fd5b6004548211151515614100576040517f08c379a00000000000000000000000000000000000000000000000000000000081526004018080602001828103825260138152602001807f4f7264657220646f65736e27742065786973740000000000000000000000000081525060200191505060405180910390fd5b6002600581111561410d57fe5b6009600084815260200190815260200160002060060160009054906101000a900460ff16600581111561413c57fe5b1415156141d7576040517f08c379a000000000000000000000000000000000000000000000000000000000815260040180806020018281038252602f8152602001807f4f72646572206973206e6f74206f6e2074686520776179206f72206e6f74206f81526020017f757420666f722064656c6976657279000000000000000000000000000000000081525060400191505060405180910390fd5b60036009600084815260200190815260200160002060060160006101000a81548160ff0219169083600581111561420a57fe5b021790555060096000600454815260200190815260200160002060096000848152602001908152602001600020600082015481600001556001820181600101908054614257929190614751565b50600282015481600201556003820154816003015560048201548160040155600582015481600501556006820160009054906101000a900460ff168160060160006101000a81548160ff021916908360058111156142b157fe5b02179055506006820160019054906101000a900460ff168160060160016101000a81548160ff021916908360018111156142e757fe5b02179055509050507f58d97c9a7f506d49829d9f53a5aad430cff9d6ea208dddd9a7cf01ef5eccbc40826009600085815260200190815260200160002060060160009054906101000a900460ff166040518083815260200182600581111561434b57fe5b60ff1681526020019250505060405180910390a160019050919050565b600080600a60003373ffffffffffffffffffffffffffffffffffffffff1673ffffffffffffffffffffffffffffffffffffffff16815260200190815260200160002054141515614420576040517f08c379a00000000000000000000000000000000000000000000000000000000081526004018080602001828103825260198152602001807f53656c6c657220616c726561647920726567697374657265640000000000000081525060200191505060405180910390fd5b60026000815480929190600101919050555060006007600060025481526020019081526020016000209050600254816000018190555080600101600190806001815401808255809150509060018203906000526020600020016000909192909190915055508060010160029080600181540180825580915050906001820390600052602060002001600090919290919091505550806001016003908060018154018082558091505090600182039060005260206000200160009091929091909150555080600101600490806001815401808255809150509060018203906000526020600020016000909192909190915055508060010160059080600181540180825580915050906001820390600052602060002001600090919290919091505550806007600083600001548152602001908152602001600020600082015481600001556001820181600101908054614579929190614751565b509050508060000154600a60003373ffffffffffffffffffffffffffffffffffffffff1673ffffffffffffffffffffffffffffffffffffffff16815260200190815260200160002081905550600191505090565b600080600c60003373ffffffffffffffffffffffffffffffffffffffff1673ffffffffffffffffffffffffffffffffffffffff168152602001908152602001600020549050600081141515614625578091505061474e565b600b60003373ffffffffffffffffffffffffffffffffffffffff1673ffffffffffffffffffffffffffffffffffffffff16815260200190815260200160002054905060008114151561467a578091505061474e565b600a60003373ffffffffffffffffffffffffffffffffffffffff1673ffffffffffffffffffffffffffffffffffffffff1681526020019081526020016000205490506000811415156146cf578091505061474e565b60008114151515614748576040517f08c379a00000000000000000000000000000000000000000000000000000000081526004018080602001828103825260158152602001807f596f75206172656e27742072656769737465726564000000000000000000000081525060200191505060405180910390fd5b60009150505b90565b8280548282559060005260206000209081019282156147925760005260206000209182015b82811115614791578254825591600101919060010190614776565b5b50905061479f91906147f0565b5090565b8280548282559060005260206000209081019282156147df579160200282015b828111156147de5782518255916020019190600101906147c3565b5b5090506147ec91906147f0565b5090565b61481291905b8082111561480e5760008160009055506001016147f6565b5090565b9056fea165627a7a72305820629060f808782c99ef3e1987fec7953152324556b738c0674c00043befe6cfd40029",
  "source": "pragma solidity ^0.5.0;\n\ncontract DecentralizedShipment {\n    uint product_cost = 5;\n    uint shipment_count = 0;\n    uint seller_count = 0;\n    uint customer_count = 0;\n    uint order_count = 0;\n    uint time_limit = 5;\n    \n  \n     // Order status enum that will be used in our system in order to know the status of the order.\n    enum OrderStatus {\n        ordered,\n        preparing,  // Order is being prepared.\n        ontheway,   //  Order is on the way.\n        outfordelivery, // Order is out for delivery.\n        received,   //  Order is received.\n        cancelled   //  Order is cancelled by user.\n    }\n    enum ProductStatus{\n        damaged,\n        not_damaged\n    }\n    \n    // Order struct which contains order details that will be used in our system in order to create order.\n    struct Order{\n        uint id;                    //This is the ID of the order and it's unique.\n        uint[] products;           //This is the array of products that will be ordered.\n        uint price;                 //This is the total price of the order.\n        uint seller;                //This is the seller of the order.\n        uint shipment;              // This is the shipment of the order.    \n        uint customer;              //This is the customer of the order.\n        OrderStatus status;     //This is the status of the order.\n        ProductStatus pStatus;           //This represents the order being damaged or not.\n    }\n \n\n    struct Customer {\n        uint id;\n        uint cur_order;\n        uint last_order;\n    }\n    \n    struct Seller {\n        uint id;\n        uint[] product_list;\n    }\n    \n    struct Shipment {\n        uint id;\n        uint cur_order;\n        uint order_count;\n    }\n    \n    \n    \n    mapping(uint => Customer) customer_details;\n    mapping(uint => Seller) seller_details;\n    mapping(uint => Shipment) shipment_details;\n    mapping(uint => Order) order_details;\n    \n    mapping(address => uint) get_seller_id;\n    mapping(address => uint ) get_shipment_id;\n    mapping(address => uint) get_customer_id;\n    \n    \n    /* ---------------EVENTS----------------- */\n    \n    event order_status_update(uint order_id, OrderStatus status);\n    event order_damaged_update(uint order_id, ProductStatus pStatus);\n    \n    /* ---------------MODIFIERS-------------- */\n    \n    modifier is_customer() {\n        require(get_customer_id[msg.sender] > 0, \"You aren't registered as a customer\");\n        _;\n    }\n    \n    modifier is_shipment() {\n        require(get_shipment_id[msg.sender] > 0, \"You aren't registered as a shipment\");\n        _;\n    }\n    \n    modifier is_seller() {\n        require(get_seller_id[msg.sender] > 0, \"You aren't registered as a seller\");\n        _;\n    }\n    \n    modifier has_ordered() {\n        require(customer_details[get_customer_id[msg.sender]].cur_order != 0, \"You don't have any active orders\");\n        _;\n    }\n    \n    /* ---------------UTILITY FUNCTIONS------ */\n    \n \n    function product_exists(uint item, uint seller_id) \n    public view returns(bool) {\n        uint i;\n        for (i = 0; i < seller_details[seller_id].product_list.length; i++) {\n\n            \n            if (seller_details[seller_id].product_list[i] == item) {\n                \n                return true;\n            }\n        }\n        return false;\n    }\n    \n    function get_id() public view returns(uint) {\n        uint id;\n        id = get_customer_id[msg.sender];\n        if (id != 0)\n            return id;\n            \n        id = get_shipment_id[msg.sender];\n        if (id != 0)\n            return id;\n            \n        id = get_seller_id[msg.sender];\n        if (id != 0)\n            return id;\n            \n        require(id != 0, \"You aren't registered\");\n        return 0;\n    }\n    \n\n\n    /* ---------------CUSTOMER--------------- */\n    function register_customer() public returns(bool) {\n        \n        require(get_customer_id[msg.sender] == 0, \"Customer already registered\");\n        customer_count++;\n        Customer storage customer = customer_details[customer_count];\n        customer.id = customer_count;\n        customer.cur_order = 0;\n        customer_details[customer.id] = customer;\n        get_customer_id[msg.sender] = customer.id;\n        return true;\n    }\n    \n    function give_order(uint product_id, uint seller_id) is_customer() public payable returns(bool) {\n        require(seller_id <= seller_count, \"Seller doesn't exist\");\n        require(customer_details[get_customer_id[msg.sender]].cur_order == 0, \"Already given order\");\n        require(product_exists(product_id, seller_id) == true, \"Item doesn't exist\");\n        \n\n        order_count++;\n        Order storage o = order_details[order_count];\n        o.id = order_count;\n        o.products = [product_id];\n        o.price = [product_id].length * product_cost;\n        o.status = OrderStatus.ordered;\n        o.seller = seller_id;\n        o.customer = get_customer_id[msg.sender];\n        o.pStatus = ProductStatus.not_damaged;\n        \n        customer_details[get_customer_id[msg.sender]].cur_order = o.id;\n        emit order_status_update(o.id, o.status);\n        return true;\n    }\n    function check_order_status_customer(uint order_id, uint seller_id) is_customer()  has_ordered() public view returns(OrderStatus,ProductStatus) {\n        require(seller_id <= seller_count, \"Seller doesn't exist\");\n        require(order_id <= order_count, \"Order doesn't exist\");\n    \n        /*if(order_details[order_id].status == OrderStatus.ordered && order_details[order_id].pStatus == ProductStatus.damaged) {\n            return (0,1);\n        }else if(order_details[order_id].status == OrderStatus.ordered && order_details[order_id].pStatus == ProductStatus.not_damaged) {\n             return (0,0);\n        }else if(order_details[order_id].status == OrderStatus.preparing && order_details[order_id].pStatus == ProductStatus.damaged) {\n            return (1,1);\n        }else if(order_details[order_id].status == OrderStatus.preparing && order_details[order_id].pStatus == ProductStatus.not_damaged) {\n             return (1,0);\n        }else if(order_details[order_id].status == OrderStatus.ontheway && order_details[order_id].pStatus == ProductStatus.damaged) {\n             return (2,1);\n        }else if(order_details[order_id].status == OrderStatus.ontheway && order_details[order_id].pStatus == ProductStatus.not_damaged) {\n             return (2,0);\n        }else if(order_details[order_id].status == OrderStatus.outfordelivery && order_details[order_id].pStatus == ProductStatus.damaged) {\n             return (3,1);\n        }else if(order_details[order_id].status == OrderStatus.outfordelivery && order_details[order_id].pStatus == ProductStatus.not_damaged) {\n             return (3,0);\n        }else if(order_details[order_id].status == OrderStatus.received && order_details[order_id].pStatus == ProductStatus.damaged) {\n             return (4,1);\n        }else if(order_details[order_id].status == OrderStatus.received && order_details[order_id].pStatus == ProductStatus.damaged){\n            return (4,0);\n        }else if(order_details[order_id].status == OrderStatus.cancelled && order_details[order_id].pStatus == ProductStatus.damaged) {\n             return (5,1);\n        }else {\n            return (5,0);\n        }*/\n        return (order_details[order_id].status,order_details[order_id].pStatus);\n    }\n    function cancel_order(uint order_id) is_customer() has_ordered() public returns(OrderStatus) {\n        require(order_id <= order_count, \"Order doesn't exist\");\n        require(order_details[order_id].customer == get_customer_id[msg.sender], \"You don't have this order\");\n        require(order_details[order_id].status != OrderStatus.received, \"Order is already received\");\n        require(order_details[order_id].status != OrderStatus.cancelled, \"You have already cancel this order!\");\n        order_details[order_id].status = OrderStatus.cancelled;\n        order_details[order_id] = order_details[order_count];\n        emit order_status_update(order_id, order_details[order_id].status);\n        return order_details[order_id].status ;\n    }\n\n    function receive_order(uint order_id) is_customer() has_ordered() public returns(OrderStatus)  {\n        require(order_id <= order_count, \"Order doesn't exist\");\n        require(order_details[order_id].status == OrderStatus.outfordelivery, \"Order is not out for delivery\");\n        require(order_details[order_id].customer == get_customer_id[msg.sender], \"You don't have this order\");\n        order_details[order_id].status = OrderStatus.received;\n        order_details[order_id] = order_details[order_count];\n        emit order_status_update(order_id, order_details[order_id].status);\n        return order_details[order_id].status;\n    }\n\n    /* ---------------SELLER--------------- */\n\n    function register_seller() public returns(bool) {\n        require(get_seller_id[msg.sender] == 0, \"Seller already registered\");\n\n        seller_count++;\n        Seller storage seller = seller_details[seller_count];\n        seller.id = seller_count;\n        seller.product_list.push(1);\n        seller.product_list.push(2);\n        seller.product_list.push(3);\n        seller.product_list.push(4);\n        seller.product_list.push(5);\n        seller_details[seller.id] = seller;\n        get_seller_id[msg.sender] = seller.id;\n        return true;\n    }\n    function receive_and_prepare_the_order(uint order_id) is_seller() public returns(bool) {\n        uint seller_id = get_seller_id[msg.sender];\n        require(order_details[order_id].seller == seller_id, \"Not your order\");\n        require(order_details[order_id].status != OrderStatus.preparing, \"Already accepted this order\");\n        order_details[order_id].status = OrderStatus.preparing;\n        emit order_status_update(order_id, order_details[order_id].status);\n        return true;\n    }\n\n    function transfer_order_to_shipment(uint order_id) is_seller() public payable returns(OrderStatus) {\n        require(order_id <= order_count, \"Order doesn't exist\");\n        require(order_details[order_id].status == OrderStatus.preparing, \"Order is not prepared\");\n        order_details[order_id].status = OrderStatus.ontheway;\n        return order_details[order_id].status;\n    }\n\n    function check_order_status_seller(uint order_id, uint seller_id) is_seller()  public view returns(OrderStatus, ProductStatus) {\n        require(seller_id <= seller_count, \"Seller doesn't exist\");\n        require(order_id <= order_count, \"Order doesn't exist\");\n    \n        /*if(order_details[order_id].status == OrderStatus.ordered && order_details[order_id].pStatus == ProductStatus.damaged) {\n            return (0,1);\n        }else if(order_details[order_id].status == OrderStatus.ordered && order_details[order_id].pStatus == ProductStatus.not_damaged) {\n             return (0,0);\n        }else if(order_details[order_id].status == OrderStatus.preparing && order_details[order_id].pStatus == ProductStatus.damaged) {\n            return (1,1);\n        }else if(order_details[order_id].status == OrderStatus.preparing && order_details[order_id].pStatus == ProductStatus.not_damaged) {\n             return (1,0);\n        }else if(order_details[order_id].status == OrderStatus.ontheway && order_details[order_id].pStatus == ProductStatus.damaged) {\n             return (2,1);\n        }else if(order_details[order_id].status == OrderStatus.ontheway && order_details[order_id].pStatus == ProductStatus.not_damaged) {\n             return (2,0);\n        }else if(order_details[order_id].status == OrderStatus.outfordelivery && order_details[order_id].pStatus == ProductStatus.damaged) {\n             return (3,1);\n        }else if(order_details[order_id].status == OrderStatus.outfordelivery && order_details[order_id].pStatus == ProductStatus.not_damaged) {\n             return (3,0);\n        }else if(order_details[order_id].status == OrderStatus.received && order_details[order_id].pStatus == ProductStatus.damaged) {\n             return (4,1);\n        }else if(order_details[order_id].status == OrderStatus.received && order_details[order_id].pStatus == ProductStatus.damaged){\n            return (4,0);\n        }else if(order_details[order_id].status == OrderStatus.cancelled && order_details[order_id].pStatus == ProductStatus.damaged) {\n             return (5,1);\n        }else {\n            return (5,0);\n        }*/\n        return (order_details[order_id].status,order_details[order_id].pStatus);\n        \n    }\n\n    /* ---------------SHIPMENT--------------- */\n    \n    function register_shipment() public returns(bool) {\n        require(get_shipment_id[msg.sender] == 0, \"Shipment already registered\");\n        shipment_count++;\n        Shipment storage shipment = shipment_details[shipment_count];\n        shipment.id = shipment_count;\n        shipment_details[shipment.id] = shipment;\n        get_shipment_id[msg.sender] = shipment.id;\n        return true;\n    }\n     \n    function receive_and_ship_the_order(uint order_id) is_shipment() public returns(bool) {\n        uint shipment_id = get_shipment_id[msg.sender];\n        require(shipment_details[shipment_id].cur_order == 0, \"Already delivering another order\");\n        order_details[order_id].status = OrderStatus.ontheway;\n        order_details[order_id].shipment = get_shipment_id[msg.sender];\n        shipment_details[shipment_id].cur_order = order_id;\n        emit order_status_update(order_id, order_details[order_id].status);\n        return true;\n    }\n    function update_status_to_ofd_and_damaged(uint order_id ) is_shipment() public returns(bool) {\n        require(order_id <= order_count, \"Order doesn't exist\");\n        require(order_details[order_id].status == OrderStatus.ontheway, \"Order is not on the way or not out for delivery\");\n        order_details[order_id].status = OrderStatus.outfordelivery;\n        order_details[order_id].pStatus = ProductStatus.damaged;\n        order_details[order_id] = order_details[order_count];\n        emit order_status_update(order_id, order_details[order_id].status);\n        emit order_damaged_update(order_id, order_details[order_id].pStatus);\n        return true;\n    }\n    function update_status_to_ofd_and_not_damaged(uint order_id) is_shipment() public returns(bool) {\n        require(order_id <= order_count, \"Order doesn't exist\");\n        require(order_details[order_id].status == OrderStatus.ontheway, \"Order is not on the way or not out for delivery\");\n        order_details[order_id].status = OrderStatus.outfordelivery;\n        order_details[order_id] = order_details[order_count];\n        emit order_status_update(order_id, order_details[order_id].status);\n        \n        return true;\n    }\n    function update_status_to_received_and_damaged(uint order_id ) is_shipment() public returns(bool) {\n        require(order_id <= order_count, \"Order doesn't exist\");\n        require(order_details[order_id].status == OrderStatus.ontheway ||order_details[order_id].status == OrderStatus.outfordelivery , \"Order is not on the way or not out for delivery\");\n        order_details[order_id].status = OrderStatus.received;\n        order_details[order_id].pStatus = ProductStatus.damaged;\n        order_details[order_id] = order_details[order_count];\n        emit order_status_update(order_id, order_details[order_id].status);\n        emit order_damaged_update(order_id, order_details[order_id].pStatus);\n        return true;\n    }\n    function update_status_to_received_and_not_damaged(uint order_id ) is_shipment() public returns(bool) {\n        require(order_id <= order_count, \"Order doesn't exist\");\n        require(order_details[order_id].status == OrderStatus.ontheway ||order_details[order_id].status == OrderStatus.outfordelivery , \"Order is not on the way or not out for delivery\");\n        order_details[order_id].status = OrderStatus.received;\n        order_details[order_id] = order_details[order_count];\n        emit order_status_update(order_id, order_details[order_id].status);\n        return true;\n    }\n    function update_status_to_cancelled_and_damaged(uint order_id ) is_shipment() public returns(bool) {\n        require(order_id <= order_count, \"Order doesn't exist\");\n        require(order_details[order_id].status != OrderStatus.received, \"Order is already received\");\n        order_details[order_id].status = OrderStatus.cancelled;\n        order_details[order_id].pStatus = ProductStatus.damaged;\n        order_details[order_id] = order_details[order_count];\n        emit order_status_update(order_id, order_details[order_id].status);\n        emit order_damaged_update(order_id, order_details[order_id].pStatus);\n        return true;\n    }\n    function update_status_to_cancelled_and_not_damaged(uint order_id ) is_shipment() public returns(bool) {\n        require(order_id <= order_count, \"Order doesn't exist\");\n       require(order_details[order_id].status != OrderStatus.received, \"Order is already received\");\n        order_details[order_id].status = OrderStatus.cancelled;\n        order_details[order_id] = order_details[order_count];\n        emit order_status_update(order_id, order_details[order_id].status);\n        return true;\n    }\n   function check_order_status_shipment(uint order_id, uint seller_id) is_shipment()  public view returns(OrderStatus,ProductStatus) {\n        require(seller_id <= seller_count, \"Seller doesn't exist\");\n        require(order_id <= order_count, \"Order doesn't exist\");\n    \n        /*if(order_details[order_id].status == OrderStatus.ordered && order_details[order_id].pStatus == ProductStatus.damaged) {\n            return (0,1);\n        }else if(order_details[order_id].status == OrderStatus.ordered && order_details[order_id].pStatus == ProductStatus.not_damaged) {\n             return (0,0);\n        }else if(order_details[order_id].status == OrderStatus.preparing && order_details[order_id].pStatus == ProductStatus.damaged) {\n            return (1,1);\n        }else if(order_details[order_id].status == OrderStatus.preparing && order_details[order_id].pStatus == ProductStatus.not_damaged) {\n             return (1,0);\n        }else if(order_details[order_id].status == OrderStatus.ontheway && order_details[order_id].pStatus == ProductStatus.damaged) {\n             return (2,1);\n        }else if(order_details[order_id].status == OrderStatus.ontheway && order_details[order_id].pStatus == ProductStatus.not_damaged) {\n             return (2,0);\n        }else if(order_details[order_id].status == OrderStatus.outfordelivery && order_details[order_id].pStatus == ProductStatus.damaged) {\n             return (3,1);\n        }else if(order_details[order_id].status == OrderStatus.outfordelivery && order_details[order_id].pStatus == ProductStatus.not_damaged) {\n             return (3,0);\n        }else if(order_details[order_id].status == OrderStatus.received && order_details[order_id].pStatus == ProductStatus.damaged) {\n             return (4,1);\n        }else if(order_details[order_id].status == OrderStatus.received && order_details[order_id].pStatus == ProductStatus.damaged){\n            return (4,0);\n        }else if(order_details[order_id].status == OrderStatus.cancelled && order_details[order_id].pStatus == ProductStatus.damaged) {\n             return (5,1);\n        }else {\n            return (5,0);\n        }*/\n        return (order_details[order_id].status,order_details[order_id].pStatus);\n    }\n\n  \n    \n}",
  "sourcePath": "/Users/hasanaliozkan/Desktop/Ders/Decentralized/Decentralized Shipment/Decentralized_Shipment/contracts/DecentralizedShipment.sol",
  "compiler": {
    "name": "solc",
    "version": "0.5.0+commit.1d4f565a.Emscripten.clang"
  },
  "schemaVersion": "3.0.1",
  "updatedAt": "2022-06-02T21:57:22.050Z",
  "devdoc": {
    "methods": {}
  },
  "userdoc": {
    "methods": {}
  }
}