{
  "contractName": "DecentralizedShipment",
  "abi": [
    {
      "anonymous": false,
      "inputs": [
        {
          "indexed": false,
          "name": "order_id",
          "type": "uint256"
        },
        {
          "indexed": false,
          "name": "status",
          "type": "uint8"
        }
      ],
      "name": "order_status_update",
      "type": "event",
      "signature": "0x58d97c9a7f506d49829d9f53a5aad430cff9d6ea208dddd9a7cf01ef5eccbc40"
    },
    {
      "anonymous": false,
      "inputs": [
        {
          "indexed": false,
          "name": "order_id",
          "type": "uint256"
        },
        {
          "indexed": false,
          "name": "pStatus",
          "type": "uint8"
        }
      ],
      "name": "order_damaged_update",
      "type": "event",
      "signature": "0x5b88ca144f1d4b33cbdd6e83ce1eb3c5ea8efc0c2a83ff3a6423827a579e9ba2"
    },
    {
      "constant": true,
      "inputs": [
        {
          "name": "item",
          "type": "uint256"
        },
        {
          "name": "seller_id",
          "type": "uint256"
        }
      ],
      "name": "product_exists",
      "outputs": [
        {
          "name": "",
          "type": "bool"
        }
      ],
      "payable": false,
      "stateMutability": "view",
      "type": "function",
      "signature": "0x85d0c229"
    },
    {
      "constant": true,
      "inputs": [],
      "name": "get_id",
      "outputs": [
        {
          "name": "",
          "type": "uint256"
        }
      ],
      "payable": false,
      "stateMutability": "view",
      "type": "function",
      "signature": "0xf43fa805"
    },
    {
      "constant": false,
      "inputs": [],
      "name": "register_customer",
      "outputs": [
        {
          "name": "",
          "type": "bool"
        }
      ],
      "payable": false,
      "stateMutability": "nonpayable",
      "type": "function",
      "signature": "0x16212cde"
    },
    {
      "constant": false,
      "inputs": [
        {
          "name": "product_id",
          "type": "uint256"
        },
        {
          "name": "seller_id",
          "type": "uint256"
        }
      ],
      "name": "give_order",
      "outputs": [
        {
          "name": "",
          "type": "bool"
        }
      ],
      "payable": true,
      "stateMutability": "payable",
      "type": "function",
      "signature": "0xae4aad2f"
    },
    {
      "constant": true,
      "inputs": [
        {
          "name": "order_id",
          "type": "uint256"
        },
        {
          "name": "seller_id",
          "type": "uint256"
        }
      ],
      "name": "check_order_status_customer",
      "outputs": [
        {
          "name": "",
          "type": "uint8"
        },
        {
          "name": "",
          "type": "uint8"
        }
      ],
      "payable": false,
      "stateMutability": "view",
      "type": "function",
      "signature": "0xce59b43c"
    },
    {
      "constant": false,
      "inputs": [
        {
          "name": "order_id",
          "type": "uint256"
        }
      ],
      "name": "cancel_order",
      "outputs": [
        {
          "name": "",
          "type": "bool"
        }
      ],
      "payable": false,
      "stateMutability": "nonpayable",
      "type": "function",
      "signature": "0xb6bd2ee2"
    },
    {
      "constant": false,
      "inputs": [
        {
          "name": "order_id",
          "type": "uint256"
        }
      ],
      "name": "receive_order",
      "outputs": [
        {
          "name": "",
          "type": "bool"
        }
      ],
      "payable": false,
      "stateMutability": "nonpayable",
      "type": "function",
      "signature": "0xb20a9aa9"
    },
    {
      "constant": false,
      "inputs": [],
      "name": "register_seller",
      "outputs": [
        {
          "name": "",
          "type": "bool"
        }
      ],
      "payable": false,
      "stateMutability": "nonpayable",
      "type": "function",
      "signature": "0xea4c715b"
    },
    {
      "constant": false,
      "inputs": [
        {
          "name": "order_id",
          "type": "uint256"
        }
      ],
      "name": "receive_and_prepare_the_order",
      "outputs": [
        {
          "name": "",
          "type": "bool"
        }
      ],
      "payable": false,
      "stateMutability": "nonpayable",
      "type": "function",
      "signature": "0x7b65d780"
    },
    {
      "constant": false,
      "inputs": [
        {
          "name": "order_id",
          "type": "uint256"
        }
      ],
      "name": "transfer_order_to_shipment",
      "outputs": [
        {
          "name": "",
          "type": "bool"
        }
      ],
      "payable": true,
      "stateMutability": "payable",
      "type": "function",
      "signature": "0x49f29717"
    },
    {
      "constant": true,
      "inputs": [
        {
          "name": "order_id",
          "type": "uint256"
        },
        {
          "name": "seller_id",
          "type": "uint256"
        }
      ],
      "name": "check_order_status_seller",
      "outputs": [
        {
          "name": "",
          "type": "uint8"
        },
        {
          "name": "",
          "type": "uint8"
        }
      ],
      "payable": false,
      "stateMutability": "view",
      "type": "function",
      "signature": "0x2f41dd6f"
    },
    {
      "constant": false,
      "inputs": [],
      "name": "register_shipment",
      "outputs": [
        {
          "name": "",
          "type": "bool"
        }
      ],
      "payable": false,
      "stateMutability": "nonpayable",
      "type": "function",
      "signature": "0xc29d28eb"
    },
    {
      "constant": false,
      "inputs": [
        {
          "name": "order_id",
          "type": "uint256"
        }
      ],
      "name": "receive_and_ship_the_order",
      "outputs": [
        {
          "name": "",
          "type": "bool"
        }
      ],
      "payable": false,
      "stateMutability": "nonpayable",
      "type": "function",
      "signature": "0x373d465c"
    },
    {
      "constant": false,
      "inputs": [
        {
          "name": "order_id",
          "type": "uint256"
        }
      ],
      "name": "update_status_to_otwtc_and_damaged",
      "outputs": [
        {
          "name": "",
          "type": "bool"
        }
      ],
      "payable": false,
      "stateMutability": "nonpayable",
      "type": "function",
      "signature": "0x197a9997"
    },
    {
      "constant": false,
      "inputs": [
        {
          "name": "order_id",
          "type": "uint256"
        }
      ],
      "name": "update_status_to_otwtc_and_not_damaged",
      "outputs": [
        {
          "name": "",
          "type": "bool"
        }
      ],
      "payable": false,
      "stateMutability": "nonpayable",
      "type": "function",
      "signature": "0xe4e6789b"
    },
    {
      "constant": false,
      "inputs": [
        {
          "name": "order_id",
          "type": "uint256"
        }
      ],
      "name": "update_status_to_ofd_and_damaged",
      "outputs": [
        {
          "name": "",
          "type": "bool"
        }
      ],
      "payable": false,
      "stateMutability": "nonpayable",
      "type": "function",
      "signature": "0x8fc064c7"
    },
    {
      "constant": false,
      "inputs": [
        {
          "name": "order_id",
          "type": "uint256"
        }
      ],
      "name": "update_status_to_ofd_and_not_damaged",
      "outputs": [
        {
          "name": "",
          "type": "bool"
        }
      ],
      "payable": false,
      "stateMutability": "nonpayable",
      "type": "function",
      "signature": "0xdc7a045b"
    },
    {
      "constant": false,
      "inputs": [
        {
          "name": "order_id",
          "type": "uint256"
        }
      ],
      "name": "update_status_to_received_and_damaged",
      "outputs": [
        {
          "name": "",
          "type": "bool"
        }
      ],
      "payable": false,
      "stateMutability": "nonpayable",
      "type": "function",
      "signature": "0xaddfa997"
    },
    {
      "constant": false,
      "inputs": [
        {
          "name": "order_id",
          "type": "uint256"
        }
      ],
      "name": "update_status_to_received_and_not_damaged",
      "outputs": [
        {
          "name": "",
          "type": "bool"
        }
      ],
      "payable": false,
      "stateMutability": "nonpayable",
      "type": "function",
      "signature": "0xcd04b162"
    },
    {
      "constant": false,
      "inputs": [
        {
          "name": "order_id",
          "type": "uint256"
        }
      ],
      "name": "update_status_to_cancelled_and_damaged",
      "outputs": [
        {
          "name": "",
          "type": "bool"
        }
      ],
      "payable": false,
      "stateMutability": "nonpayable",
      "type": "function",
      "signature": "0x0df26cc7"
    },
    {
      "constant": false,
      "inputs": [
        {
          "name": "order_id",
          "type": "uint256"
        }
      ],
      "name": "update_status_to_cancelled_and_not_damaged",
      "outputs": [
        {
          "name": "",
          "type": "bool"
        }
      ],
      "payable": false,
      "stateMutability": "nonpayable",
      "type": "function",
      "signature": "0x4a3ca965"
    },
    {
      "constant": true,
      "inputs": [
        {
          "name": "order_id",
          "type": "uint256"
        },
        {
          "name": "seller_id",
          "type": "uint256"
        }
      ],
      "name": "check_order_status_shipment",
      "outputs": [
        {
          "name": "",
          "type": "uint8"
        },
        {
          "name": "",
          "type": "uint8"
        }
      ],
      "payable": false,
      "stateMutability": "view",
      "type": "function",
      "signature": "0xcae8f5ce"
    }
  ],
  "bytecode": "0x60806040526005600055600060015560006002556000600355600060045534801561002957600080fd5b50615149806100396000396000f3fe608060405260043610610128576000357c0100000000000000000000000000000000000000000000000000000000900463ffffffff1680630df26cc71461012d57806316212cde14610180578063197a9997146101af5780632f41dd6f14610202578063373d465c1461027e57806349f29717146102d15780634a3ca965146103175780637b65d7801461036a57806385d0c229146103bd5780638fc064c71461041a578063addfa9971461046d578063ae4aad2f146104c0578063b20a9aa914610510578063b6bd2ee214610563578063c29d28eb146105b6578063cae8f5ce146105e5578063cd04b16214610661578063ce59b43c146106b4578063dc7a045b14610730578063e4e6789b14610783578063ea4c715b146107d6578063f43fa80514610805575b600080fd5b34801561013957600080fd5b506101666004803603602081101561015057600080fd5b8101908080359060200190929190505050610830565b604051808215151515815260200191505060405180910390f35b34801561018c57600080fd5b50610195610c73565b604051808215151515815260200191505060405180910390f35b3480156101bb57600080fd5b506101e8600480360360208110156101d257600080fd5b8101908080359060200190929190505050610df4565b604051808215151515815260200191505060405180910390f35b34801561020e57600080fd5b506102456004803603604081101561022557600080fd5b81019080803590602001909291908035906020019092919050505061125c565b6040518083600581111561025557fe5b60ff16815260200182600181111561026957fe5b60ff1681526020019250505060405180910390f35b34801561028a57600080fd5b506102b7600480360360208110156102a157600080fd5b8101908080359060200190929190505050611483565b604051808215151515815260200191505060405180910390f35b6102fd600480360360208110156102e757600080fd5b810190808035906020019092919050505061175a565b604051808215151515815260200191505060405180910390f35b34801561032357600080fd5b506103506004803603602081101561033a57600080fd5b81019080803590602001909291905050506119a4565b604051808215151515815260200191505060405180910390f35b34801561037657600080fd5b506103a36004803603602081101561038d57600080fd5b8101908080359060200190929190505050611d3f565b604051808215151515815260200191505060405180910390f35b3480156103c957600080fd5b50610400600480360360408110156103e057600080fd5b810190808035906020019092919080359060200190929190505050612052565b604051808215151515815260200191505060405180910390f35b34801561042657600080fd5b506104536004803603602081101561043d57600080fd5b81019080803590602001909291905050506120d3565b604051808215151515815260200191505060405180910390f35b34801561047957600080fd5b506104a66004803603602081101561049057600080fd5b810190808035906020019092919050505061253b565b604051808215151515815260200191505060405180910390f35b6104f6600480360360408110156104d657600080fd5b8101908080359060200190929190803590602001909291905050506129e7565b604051808215151515815260200191505060405180910390f35b34801561051c57600080fd5b506105496004803603602081101561053357600080fd5b8101908080359060200190929190505050612e71565b604051808215151515815260200191505060405180910390f35b34801561056f57600080fd5b5061059c6004803603602081101561058657600080fd5b81019080803590602001909291905050506133a5565b604051808215151515815260200191505060405180910390f35b3480156105c257600080fd5b506105cb6139b1565b604051808215151515815260200191505060405180910390f35b3480156105f157600080fd5b506106286004803603604081101561060857600080fd5b810190808035906020019092919080359060200190929190505050613b28565b6040518083600581111561063857fe5b60ff16815260200182600181111561064c57fe5b60ff1681526020019250505060405180910390f35b34801561066d57600080fd5b5061069a6004803603602081101561068457600080fd5b8101908080359060200190929190505050613d4f565b604051808215151515815260200191505060405180910390f35b3480156106c057600080fd5b506106f7600480360360408110156106d757600080fd5b810190808035906020019092919080359060200190929190505050614153565b6040518083600581111561070757fe5b60ff16815260200182600181111561071b57fe5b60ff1681526020019250505060405180910390f35b34801561073c57600080fd5b506107696004803603602081101561075357600080fd5b8101908080359060200190929190505050614448565b604051808215151515815260200191505060405180910390f35b34801561078f57600080fd5b506107bc600480360360208110156107a657600080fd5b8101908080359060200190929190505050614808565b604051808215151515815260200191505060405180910390f35b3480156107e257600080fd5b506107eb614c70565b604051808215151515815260200191505060405180910390f35b34801561081157600080fd5b5061081a614ed5565b6040518082815260200191505060405180910390f35b600080600a60003373ffffffffffffffffffffffffffffffffffffffff1673ffffffffffffffffffffffffffffffffffffffff1681526020019081526020016000205411151561090e576040517f08c379a00000000000000000000000000000000000000000000000000000000081526004018080602001828103825260238152602001807f596f75206172656e27742072656769737465726564206173206120736869706d81526020017f656e74000000000000000000000000000000000000000000000000000000000081525060400191505060405180910390fd5b6004548211151515610988576040517f08c379a00000000000000000000000000000000000000000000000000000000081526004018080602001828103825260138152602001807f4f7264657220646f65736e27742065786973740000000000000000000000000081525060200191505060405180910390fd5b6004600581111561099557fe5b6008600084815260200190815260200160002060060160009054906101000a900460ff1660058111156109c457fe5b14151515610a3a576040517f08c379a00000000000000000000000000000000000000000000000000000000081526004018080602001828103825260198152602001807f4f7264657220697320616c72656164792072656365697665640000000000000081525060200191505060405180910390fd5b60056008600084815260200190815260200160002060060160006101000a81548160ff02191690836005811115610a6d57fe5b021790555060006008600084815260200190815260200160002060060160016101000a81548160ff02191690836001811115610aa557fe5b021790555060086000600454815260200190815260200160002060086000848152602001908152602001600020600082015481600001556001820181600101908054610af2929190615059565b50600282015481600201556003820154816003015560048201548160040155600582015481600501556006820160009054906101000a900460ff168160060160006101000a81548160ff02191690836005811115610b4c57fe5b02179055506006820160019054906101000a900460ff168160060160016101000a81548160ff02191690836001811115610b8257fe5b02179055509050507f58d97c9a7f506d49829d9f53a5aad430cff9d6ea208dddd9a7cf01ef5eccbc40826008600085815260200190815260200160002060060160009054906101000a900460ff1660405180838152602001826005811115610be657fe5b60ff1681526020019250505060405180910390a17f5b88ca144f1d4b33cbdd6e83ce1eb3c5ea8efc0c2a83ff3a6423827a579e9ba2826008600085815260200190815260200160002060060160019054906101000a900460ff1660405180838152602001826001811115610c5657fe5b60ff1681526020019250505060405180910390a160019050919050565b600080600b60003373ffffffffffffffffffffffffffffffffffffffff1673ffffffffffffffffffffffffffffffffffffffff16815260200190815260200160002054141515610d2b576040517f08c379a000000000000000000000000000000000000000000000000000000000815260040180806020018281038252601b8152602001807f437573746f6d657220616c72656164792072656769737465726564000000000081525060200191505060405180910390fd5b600360008154809291906001019190505550600060056000600354815260200190815260200160002090506003548160000181905550600081600101819055508060056000836000015481526020019081526020016000206000820154816000015560018201548160010155600282015481600201559050508060000154600b60003373ffffffffffffffffffffffffffffffffffffffff1673ffffffffffffffffffffffffffffffffffffffff16815260200190815260200160002081905550600191505090565b600080600a60003373ffffffffffffffffffffffffffffffffffffffff1673ffffffffffffffffffffffffffffffffffffffff16815260200190815260200160002054111515610ed2576040517f08c379a00000000000000000000000000000000000000000000000000000000081526004018080602001828103825260238152602001807f596f75206172656e27742072656769737465726564206173206120736869706d81526020017f656e74000000000000000000000000000000000000000000000000000000000081525060400191505060405180910390fd5b6004548211151515610f4c576040517f08c379a00000000000000000000000000000000000000000000000000000000081526004018080602001828103825260138152602001807f4f7264657220646f65736e27742065786973740000000000000000000000000081525060200191505060405180910390fd5b60026005811115610f5957fe5b6008600084815260200190815260200160002060060160009054906101000a900460ff166005811115610f8857fe5b141515611023576040517f08c379a000000000000000000000000000000000000000000000000000000000815260040180806020018281038252602f8152602001807f4f72646572206973206e6f74206f6e2074686520776179206f72206e6f74206f81526020017f757420666f722064656c6976657279000000000000000000000000000000000081525060400191505060405180910390fd5b60036008600084815260200190815260200160002060060160006101000a81548160ff0219169083600581111561105657fe5b021790555060006008600084815260200190815260200160002060060160016101000a81548160ff0219169083600181111561108e57fe5b0217905550600860006004548152602001908152602001600020600860008481526020019081526020016000206000820154816000015560018201816001019080546110db929190615059565b50600282015481600201556003820154816003015560048201548160040155600582015481600501556006820160009054906101000a900460ff168160060160006101000a81548160ff0219169083600581111561113557fe5b02179055506006820160019054906101000a900460ff168160060160016101000a81548160ff0219169083600181111561116b57fe5b02179055509050507f58d97c9a7f506d49829d9f53a5aad430cff9d6ea208dddd9a7cf01ef5eccbc40826008600085815260200190815260200160002060060160009054906101000a900460ff16604051808381526020018260058111156111cf57fe5b60ff1681526020019250505060405180910390a17f5b88ca144f1d4b33cbdd6e83ce1eb3c5ea8efc0c2a83ff3a6423827a579e9ba2826008600085815260200190815260200160002060060160019054906101000a900460ff166040518083815260200182600181111561123f57fe5b60ff1681526020019250505060405180910390a160019050919050565b6000806000600960003373ffffffffffffffffffffffffffffffffffffffff1673ffffffffffffffffffffffffffffffffffffffff1681526020019081526020016000205411151561133c576040517f08c379a00000000000000000000000000000000000000000000000000000000081526004018080602001828103825260218152602001807f596f75206172656e2774207265676973746572656420617320612073656c6c6581526020017f720000000000000000000000000000000000000000000000000000000000000081525060400191505060405180910390fd5b60025483111515156113b6576040517f08c379a00000000000000000000000000000000000000000000000000000000081526004018080602001828103825260148152602001807f53656c6c657220646f65736e277420657869737400000000000000000000000081525060200191505060405180910390fd5b6004548411151515611430576040517f08c379a00000000000000000000000000000000000000000000000000000000081526004018080602001828103825260138152602001807f4f7264657220646f65736e27742065786973740000000000000000000000000081525060200191505060405180910390fd5b6008600085815260200190815260200160002060060160009054906101000a900460ff166008600086815260200190815260200160002060060160019054906101000a900460ff16915091509250929050565b600080600a60003373ffffffffffffffffffffffffffffffffffffffff1673ffffffffffffffffffffffffffffffffffffffff16815260200190815260200160002054111515611561576040517f08c379a00000000000000000000000000000000000000000000000000000000081526004018080602001828103825260238152602001807f596f75206172656e27742072656769737465726564206173206120736869706d81526020017f656e74000000000000000000000000000000000000000000000000000000000081525060400191505060405180910390fd5b6000600a60003373ffffffffffffffffffffffffffffffffffffffff1673ffffffffffffffffffffffffffffffffffffffff16815260200190815260200160002054905060006007600083815260200190815260200160002060010154141515611633576040517f08c379a00000000000000000000000000000000000000000000000000000000081526004018080602001828103825260208152602001807f416c72656164792064656c69766572696e6720616e6f74686572206f7264657281525060200191505060405180910390fd5b60026008600085815260200190815260200160002060060160006101000a81548160ff0219169083600581111561166657fe5b0217905550600a60003373ffffffffffffffffffffffffffffffffffffffff1673ffffffffffffffffffffffffffffffffffffffff1681526020019081526020016000205460086000858152602001908152602001600020600401819055508260076000838152602001908152602001600020600101819055507f58d97c9a7f506d49829d9f53a5aad430cff9d6ea208dddd9a7cf01ef5eccbc40836008600086815260200190815260200160002060060160009054906101000a900460ff166040518083815260200182600581111561173c57fe5b60ff1681526020019250505060405180910390a16001915050919050565b600080600960003373ffffffffffffffffffffffffffffffffffffffff1673ffffffffffffffffffffffffffffffffffffffff16815260200190815260200160002054111515611838576040517f08c379a00000000000000000000000000000000000000000000000000000000081526004018080602001828103825260218152602001807f596f75206172656e2774207265676973746572656420617320612073656c6c6581526020017f720000000000000000000000000000000000000000000000000000000000000081525060400191505060405180910390fd5b60045482111515156118b2576040517f08c379a00000000000000000000000000000000000000000000000000000000081526004018080602001828103825260138152602001807f4f7264657220646f65736e27742065786973740000000000000000000000000081525060200191505060405180910390fd5b600160058111156118bf57fe5b6008600084815260200190815260200160002060060160009054906101000a900460ff1660058111156118ee57fe5b141515611963576040517f08c379a00000000000000000000000000000000000000000000000000000000081526004018080602001828103825260158152602001807f4f72646572206973206e6f74207072657061726564000000000000000000000081525060200191505060405180910390fd5b60026008600084815260200190815260200160002060060160006101000a81548160ff0219169083600581111561199657fe5b021790555060019050919050565b600080600a60003373ffffffffffffffffffffffffffffffffffffffff1673ffffffffffffffffffffffffffffffffffffffff16815260200190815260200160002054111515611a82576040517f08c379a00000000000000000000000000000000000000000000000000000000081526004018080602001828103825260238152602001807f596f75206172656e27742072656769737465726564206173206120736869706d81526020017f656e74000000000000000000000000000000000000000000000000000000000081525060400191505060405180910390fd5b6004548211151515611afc576040517f08c379a00000000000000000000000000000000000000000000000000000000081526004018080602001828103825260138152602001807f4f7264657220646f65736e27742065786973740000000000000000000000000081525060200191505060405180910390fd5b60046005811115611b0957fe5b6008600084815260200190815260200160002060060160009054906101000a900460ff166005811115611b3857fe5b14151515611bae576040517f08c379a00000000000000000000000000000000000000000000000000000000081526004018080602001828103825260198152602001807f4f7264657220697320616c72656164792072656365697665640000000000000081525060200191505060405180910390fd5b60056008600084815260200190815260200160002060060160006101000a81548160ff02191690836005811115611be157fe5b021790555060086000600454815260200190815260200160002060086000848152602001908152602001600020600082015481600001556001820181600101908054611c2e929190615059565b50600282015481600201556003820154816003015560048201548160040155600582015481600501556006820160009054906101000a900460ff168160060160006101000a81548160ff02191690836005811115611c8857fe5b02179055506006820160019054906101000a900460ff168160060160016101000a81548160ff02191690836001811115611cbe57fe5b02179055509050507f58d97c9a7f506d49829d9f53a5aad430cff9d6ea208dddd9a7cf01ef5eccbc40826008600085815260200190815260200160002060060160009054906101000a900460ff1660405180838152602001826005811115611d2257fe5b60ff1681526020019250505060405180910390a160019050919050565b600080600960003373ffffffffffffffffffffffffffffffffffffffff1673ffffffffffffffffffffffffffffffffffffffff16815260200190815260200160002054111515611e1d576040517f08c379a00000000000000000000000000000000000000000000000000000000081526004018080602001828103825260218152602001807f596f75206172656e2774207265676973746572656420617320612073656c6c6581526020017f720000000000000000000000000000000000000000000000000000000000000081525060400191505060405180910390fd5b6000600960003373ffffffffffffffffffffffffffffffffffffffff1673ffffffffffffffffffffffffffffffffffffffff168152602001908152602001600020549050806008600085815260200190815260200160002060030154141515611eee576040517f08c379a000000000000000000000000000000000000000000000000000000000815260040180806020018281038252600e8152602001807f4e6f7420796f7572206f7264657200000000000000000000000000000000000081525060200191505060405180910390fd5b60016005811115611efb57fe5b6008600085815260200190815260200160002060060160009054906101000a900460ff166005811115611f2a57fe5b14151515611fa0576040517f08c379a000000000000000000000000000000000000000000000000000000000815260040180806020018281038252601b8152602001807f416c72656164792061636365707465642074686973206f72646572000000000081525060200191505060405180910390fd5b60016008600085815260200190815260200160002060060160006101000a81548160ff02191690836005811115611fd357fe5b02179055507f58d97c9a7f506d49829d9f53a5aad430cff9d6ea208dddd9a7cf01ef5eccbc40836008600086815260200190815260200160002060060160009054906101000a900460ff166040518083815260200182600581111561203457fe5b60ff1681526020019250505060405180910390a16001915050919050565b600080600090505b60066000848152602001908152602001600020600101805490508110156120c75783600660008581526020019081526020016000206001018281548110151561209f57fe5b906000526020600020015414156120ba5760019150506120cd565b808060010191505061205a565b60009150505b92915050565b600080600a60003373ffffffffffffffffffffffffffffffffffffffff1673ffffffffffffffffffffffffffffffffffffffff168152602001908152602001600020541115156121b1576040517f08c379a00000000000000000000000000000000000000000000000000000000081526004018080602001828103825260238152602001807f596f75206172656e27742072656769737465726564206173206120736869706d81526020017f656e74000000000000000000000000000000000000000000000000000000000081525060400191505060405180910390fd5b600454821115151561222b576040517f08c379a00000000000000000000000000000000000000000000000000000000081526004018080602001828103825260138152602001807f4f7264657220646f65736e27742065786973740000000000000000000000000081525060200191505060405180910390fd5b6002600581111561223857fe5b6008600084815260200190815260200160002060060160009054906101000a900460ff16600581111561226757fe5b141515612302576040517f08c379a000000000000000000000000000000000000000000000000000000000815260040180806020018281038252602f8152602001807f4f72646572206973206e6f74206f6e2074686520776179206f72206e6f74206f81526020017f757420666f722064656c6976657279000000000000000000000000000000000081525060400191505060405180910390fd5b60036008600084815260200190815260200160002060060160006101000a81548160ff0219169083600581111561233557fe5b021790555060006008600084815260200190815260200160002060060160016101000a81548160ff0219169083600181111561236d57fe5b0217905550600860006004548152602001908152602001600020600860008481526020019081526020016000206000820154816000015560018201816001019080546123ba929190615059565b50600282015481600201556003820154816003015560048201548160040155600582015481600501556006820160009054906101000a900460ff168160060160006101000a81548160ff0219169083600581111561241457fe5b02179055506006820160019054906101000a900460ff168160060160016101000a81548160ff0219169083600181111561244a57fe5b02179055509050507f58d97c9a7f506d49829d9f53a5aad430cff9d6ea208dddd9a7cf01ef5eccbc40826008600085815260200190815260200160002060060160009054906101000a900460ff16604051808381526020018260058111156124ae57fe5b60ff1681526020019250505060405180910390a17f5b88ca144f1d4b33cbdd6e83ce1eb3c5ea8efc0c2a83ff3a6423827a579e9ba2826008600085815260200190815260200160002060060160019054906101000a900460ff166040518083815260200182600181111561251e57fe5b60ff1681526020019250505060405180910390a160019050919050565b600080600a60003373ffffffffffffffffffffffffffffffffffffffff1673ffffffffffffffffffffffffffffffffffffffff16815260200190815260200160002054111515612619576040517f08c379a00000000000000000000000000000000000000000000000000000000081526004018080602001828103825260238152602001807f596f75206172656e27742072656769737465726564206173206120736869706d81526020017f656e74000000000000000000000000000000000000000000000000000000000081525060400191505060405180910390fd5b6004548211151515612693576040517f08c379a00000000000000000000000000000000000000000000000000000000081526004018080602001828103825260138152602001807f4f7264657220646f65736e27742065786973740000000000000000000000000081525060200191505060405180910390fd5b600260058111156126a057fe5b6008600084815260200190815260200160002060060160009054906101000a900460ff1660058111156126cf57fe5b14806127145750600360058111156126e357fe5b6008600084815260200190815260200160002060060160009054906101000a900460ff16600581111561271257fe5b145b15156127ae576040517f08c379a000000000000000000000000000000000000000000000000000000000815260040180806020018281038252602f8152602001807f4f72646572206973206e6f74206f6e2074686520776179206f72206e6f74206f81526020017f757420666f722064656c6976657279000000000000000000000000000000000081525060400191505060405180910390fd5b60046008600084815260200190815260200160002060060160006101000a81548160ff021916908360058111156127e157fe5b021790555060006008600084815260200190815260200160002060060160016101000a81548160ff0219169083600181111561281957fe5b021790555060086000600454815260200190815260200160002060086000848152602001908152602001600020600082015481600001556001820181600101908054612866929190615059565b50600282015481600201556003820154816003015560048201548160040155600582015481600501556006820160009054906101000a900460ff168160060160006101000a81548160ff021916908360058111156128c057fe5b02179055506006820160019054906101000a900460ff168160060160016101000a81548160ff021916908360018111156128f657fe5b02179055509050507f58d97c9a7f506d49829d9f53a5aad430cff9d6ea208dddd9a7cf01ef5eccbc40826008600085815260200190815260200160002060060160009054906101000a900460ff166040518083815260200182600581111561295a57fe5b60ff1681526020019250505060405180910390a17f5b88ca144f1d4b33cbdd6e83ce1eb3c5ea8efc0c2a83ff3a6423827a579e9ba2826008600085815260200190815260200160002060060160019054906101000a900460ff16604051808381526020018260018111156129ca57fe5b60ff1681526020019250505060405180910390a160019050919050565b600080600b60003373ffffffffffffffffffffffffffffffffffffffff1673ffffffffffffffffffffffffffffffffffffffff16815260200190815260200160002054111515612ac5576040517f08c379a00000000000000000000000000000000000000000000000000000000081526004018080602001828103825260238152602001807f596f75206172656e27742072656769737465726564206173206120637573746f81526020017f6d6572000000000000000000000000000000000000000000000000000000000081525060400191505060405180910390fd5b6002548211151515612b3f576040517f08c379a00000000000000000000000000000000000000000000000000000000081526004018080602001828103825260148152602001807f53656c6c657220646f65736e277420657869737400000000000000000000000081525060200191505060405180910390fd5b600060056000600b60003373ffffffffffffffffffffffffffffffffffffffff1673ffffffffffffffffffffffffffffffffffffffff16815260200190815260200160002054815260200190815260200160002060010154141515612c0c576040517f08c379a00000000000000000000000000000000000000000000000000000000081526004018080602001828103825260138152602001807f416c726561647920676976656e206f726465720000000000000000000000000081525060200191505060405180910390fd5b60011515612c1a8484612052565b1515141515612c91576040517f08c379a00000000000000000000000000000000000000000000000000000000081526004018080602001828103825260128152602001807f4974656d20646f65736e2774206578697374000000000000000000000000000081525060200191505060405180910390fd5b6004600081548092919060010191905055506000600860006004548152602001908152602001600020905060045481600001819055506020604051908101604052808581525081600101906001612ce99291906150ab565b506000546020604051908101604052808681525050600102816002018190555060008160060160006101000a81548160ff02191690836005811115612d2a57fe5b0217905550828160030181905550600b60003373ffffffffffffffffffffffffffffffffffffffff1673ffffffffffffffffffffffffffffffffffffffff16815260200190815260200160002054816005018190555060018160060160016101000a81548160ff02191690836001811115612da157fe5b0217905550806000015460056000600b60003373ffffffffffffffffffffffffffffffffffffffff1673ffffffffffffffffffffffffffffffffffffffff168152602001908152602001600020548152602001908152602001600020600101819055507f58d97c9a7f506d49829d9f53a5aad430cff9d6ea208dddd9a7cf01ef5eccbc4081600001548260060160009054906101000a900460ff1660405180838152602001826005811115612e5257fe5b60ff1681526020019250505060405180910390a1600191505092915050565b600080600b60003373ffffffffffffffffffffffffffffffffffffffff1673ffffffffffffffffffffffffffffffffffffffff16815260200190815260200160002054111515612f4f576040517f08c379a00000000000000000000000000000000000000000000000000000000081526004018080602001828103825260238152602001807f596f75206172656e27742072656769737465726564206173206120637573746f81526020017f6d6572000000000000000000000000000000000000000000000000000000000081525060400191505060405180910390fd5b600060056000600b60003373ffffffffffffffffffffffffffffffffffffffff1673ffffffffffffffffffffffffffffffffffffffff168152602001908152602001600020548152602001908152602001600020600101541415151561301d576040517f08c379a00000000000000000000000000000000000000000000000000000000081526004018080602001828103825260208152602001807f596f7520646f6e2774206861766520616e7920616374697665206f726465727381525060200191505060405180910390fd5b6004548211151515613097576040517f08c379a00000000000000000000000000000000000000000000000000000000081526004018080602001828103825260138152602001807f4f7264657220646f65736e27742065786973740000000000000000000000000081525060200191505060405180910390fd5b600360058111156130a457fe5b6008600084815260200190815260200160002060060160009054906101000a900460ff1660058111156130d357fe5b141515613148576040517f08c379a000000000000000000000000000000000000000000000000000000000815260040180806020018281038252601d8152602001807f4f72646572206973206e6f74206f757420666f722064656c697665727900000081525060200191505060405180910390fd5b600b60003373ffffffffffffffffffffffffffffffffffffffff1673ffffffffffffffffffffffffffffffffffffffff168152602001908152602001600020546008600084815260200190815260200160002060050154141515613214576040517f08c379a00000000000000000000000000000000000000000000000000000000081526004018080602001828103825260198152602001807f596f7520646f6e277420686176652074686973206f726465720000000000000081525060200191505060405180910390fd5b60046008600084815260200190815260200160002060060160006101000a81548160ff0219169083600581111561324757fe5b021790555060086000600454815260200190815260200160002060086000848152602001908152602001600020600082015481600001556001820181600101908054613294929190615059565b50600282015481600201556003820154816003015560048201548160040155600582015481600501556006820160009054906101000a900460ff168160060160006101000a81548160ff021916908360058111156132ee57fe5b02179055506006820160019054906101000a900460ff168160060160016101000a81548160ff0219169083600181111561332457fe5b02179055509050507f58d97c9a7f506d49829d9f53a5aad430cff9d6ea208dddd9a7cf01ef5eccbc40826008600085815260200190815260200160002060060160009054906101000a900460ff166040518083815260200182600581111561338857fe5b60ff1681526020019250505060405180910390a160019050919050565b600080600b60003373ffffffffffffffffffffffffffffffffffffffff1673ffffffffffffffffffffffffffffffffffffffff16815260200190815260200160002054111515613483576040517f08c379a00000000000000000000000000000000000000000000000000000000081526004018080602001828103825260238152602001807f596f75206172656e27742072656769737465726564206173206120637573746f81526020017f6d6572000000000000000000000000000000000000000000000000000000000081525060400191505060405180910390fd5b600060056000600b60003373ffffffffffffffffffffffffffffffffffffffff1673ffffffffffffffffffffffffffffffffffffffff1681526020019081526020016000205481526020019081526020016000206001015414151515613551576040517f08c379a00000000000000000000000000000000000000000000000000000000081526004018080602001828103825260208152602001807f596f7520646f6e2774206861766520616e7920616374697665206f726465727381525060200191505060405180910390fd5b60045482111515156135cb576040517f08c379a00000000000000000000000000000000000000000000000000000000081526004018080602001828103825260138152602001807f4f7264657220646f65736e27742065786973740000000000000000000000000081525060200191505060405180910390fd5b600b60003373ffffffffffffffffffffffffffffffffffffffff1673ffffffffffffffffffffffffffffffffffffffff168152602001908152602001600020546008600084815260200190815260200160002060050154141515613697576040517f08c379a00000000000000000000000000000000000000000000000000000000081526004018080602001828103825260198152602001807f596f7520646f6e277420686176652074686973206f726465720000000000000081525060200191505060405180910390fd5b600460058111156136a457fe5b6008600084815260200190815260200160002060060160009054906101000a900460ff1660058111156136d357fe5b14151515613749576040517f08c379a00000000000000000000000000000000000000000000000000000000081526004018080602001828103825260198152602001807f4f7264657220697320616c72656164792072656365697665640000000000000081525060200191505060405180910390fd5b60058081111561375557fe5b6008600084815260200190815260200160002060060160009054906101000a900460ff16600581111561378457fe5b14151515613820576040517f08c379a00000000000000000000000000000000000000000000000000000000081526004018080602001828103825260238152602001807f596f75206861766520616c72656164792063616e63656c2074686973206f726481526020017f657221000000000000000000000000000000000000000000000000000000000081525060400191505060405180910390fd5b60056008600084815260200190815260200160002060060160006101000a81548160ff0219169083600581111561385357fe5b0217905550600860006004548152602001908152602001600020600860008481526020019081526020016000206000820154816000015560018201816001019080546138a0929190615059565b50600282015481600201556003820154816003015560048201548160040155600582015481600501556006820160009054906101000a900460ff168160060160006101000a81548160ff021916908360058111156138fa57fe5b02179055506006820160019054906101000a900460ff168160060160016101000a81548160ff0219169083600181111561393057fe5b02179055509050507f58d97c9a7f506d49829d9f53a5aad430cff9d6ea208dddd9a7cf01ef5eccbc40826008600085815260200190815260200160002060060160009054906101000a900460ff166040518083815260200182600581111561399457fe5b60ff1681526020019250505060405180910390a160019050919050565b600080600a60003373ffffffffffffffffffffffffffffffffffffffff1673ffffffffffffffffffffffffffffffffffffffff16815260200190815260200160002054141515613a69576040517f08c379a000000000000000000000000000000000000000000000000000000000815260040180806020018281038252601b8152602001807f536869706d656e7420616c72656164792072656769737465726564000000000081525060200191505060405180910390fd5b6001600081548092919060010191905055506000600760006001548152602001908152602001600020905060015481600001819055508060076000836000015481526020019081526020016000206000820154816000015560018201548160010155600282015481600201559050508060000154600a60003373ffffffffffffffffffffffffffffffffffffffff1673ffffffffffffffffffffffffffffffffffffffff16815260200190815260200160002081905550600191505090565b6000806000600a60003373ffffffffffffffffffffffffffffffffffffffff1673ffffffffffffffffffffffffffffffffffffffff16815260200190815260200160002054111515613c08576040517f08c379a00000000000000000000000000000000000000000000000000000000081526004018080602001828103825260238152602001807f596f75206172656e27742072656769737465726564206173206120736869706d81526020017f656e74000000000000000000000000000000000000000000000000000000000081525060400191505060405180910390fd5b6002548311151515613c82576040517f08c379a00000000000000000000000000000000000000000000000000000000081526004018080602001828103825260148152602001807f53656c6c657220646f65736e277420657869737400000000000000000000000081525060200191505060405180910390fd5b6004548411151515613cfc576040517f08c379a00000000000000000000000000000000000000000000000000000000081526004018080602001828103825260138152602001807f4f7264657220646f65736e27742065786973740000000000000000000000000081525060200191505060405180910390fd5b6008600085815260200190815260200160002060060160009054906101000a900460ff166008600086815260200190815260200160002060060160019054906101000a900460ff16915091509250929050565b600080600a60003373ffffffffffffffffffffffffffffffffffffffff1673ffffffffffffffffffffffffffffffffffffffff16815260200190815260200160002054111515613e2d576040517f08c379a00000000000000000000000000000000000000000000000000000000081526004018080602001828103825260238152602001807f596f75206172656e27742072656769737465726564206173206120736869706d81526020017f656e74000000000000000000000000000000000000000000000000000000000081525060400191505060405180910390fd5b6004548211151515613ea7576040517f08c379a00000000000000000000000000000000000000000000000000000000081526004018080602001828103825260138152602001807f4f7264657220646f65736e27742065786973740000000000000000000000000081525060200191505060405180910390fd5b60026005811115613eb457fe5b6008600084815260200190815260200160002060060160009054906101000a900460ff166005811115613ee357fe5b1480613f28575060036005811115613ef757fe5b6008600084815260200190815260200160002060060160009054906101000a900460ff166005811115613f2657fe5b145b1515613fc2576040517f08c379a000000000000000000000000000000000000000000000000000000000815260040180806020018281038252602f8152602001807f4f72646572206973206e6f74206f6e2074686520776179206f72206e6f74206f81526020017f757420666f722064656c6976657279000000000000000000000000000000000081525060400191505060405180910390fd5b60046008600084815260200190815260200160002060060160006101000a81548160ff02191690836005811115613ff557fe5b021790555060086000600454815260200190815260200160002060086000848152602001908152602001600020600082015481600001556001820181600101908054614042929190615059565b50600282015481600201556003820154816003015560048201548160040155600582015481600501556006820160009054906101000a900460ff168160060160006101000a81548160ff0219169083600581111561409c57fe5b02179055506006820160019054906101000a900460ff168160060160016101000a81548160ff021916908360018111156140d257fe5b02179055509050507f58d97c9a7f506d49829d9f53a5aad430cff9d6ea208dddd9a7cf01ef5eccbc40826008600085815260200190815260200160002060060160009054906101000a900460ff166040518083815260200182600581111561413657fe5b60ff1681526020019250505060405180910390a160019050919050565b6000806000600b60003373ffffffffffffffffffffffffffffffffffffffff1673ffffffffffffffffffffffffffffffffffffffff16815260200190815260200160002054111515614233576040517f08c379a00000000000000000000000000000000000000000000000000000000081526004018080602001828103825260238152602001807f596f75206172656e27742072656769737465726564206173206120637573746f81526020017f6d6572000000000000000000000000000000000000000000000000000000000081525060400191505060405180910390fd5b600060056000600b60003373ffffffffffffffffffffffffffffffffffffffff1673ffffffffffffffffffffffffffffffffffffffff1681526020019081526020016000205481526020019081526020016000206001015414151515614301576040517f08c379a00000000000000000000000000000000000000000000000000000000081526004018080602001828103825260208152602001807f596f7520646f6e2774206861766520616e7920616374697665206f726465727381525060200191505060405180910390fd5b600254831115151561437b576040517f08c379a00000000000000000000000000000000000000000000000000000000081526004018080602001828103825260148152602001807f53656c6c657220646f65736e277420657869737400000000000000000000000081525060200191505060405180910390fd5b60045484111515156143f5576040517f08c379a00000000000000000000000000000000000000000000000000000000081526004018080602001828103825260138152602001807f4f7264657220646f65736e27742065786973740000000000000000000000000081525060200191505060405180910390fd5b6008600085815260200190815260200160002060060160009054906101000a900460ff166008600086815260200190815260200160002060060160019054906101000a900460ff16915091509250929050565b600080600a60003373ffffffffffffffffffffffffffffffffffffffff1673ffffffffffffffffffffffffffffffffffffffff16815260200190815260200160002054111515614526576040517f08c379a00000000000000000000000000000000000000000000000000000000081526004018080602001828103825260238152602001807f596f75206172656e27742072656769737465726564206173206120736869706d81526020017f656e74000000000000000000000000000000000000000000000000000000000081525060400191505060405180910390fd5b60045482111515156145a0576040517f08c379a00000000000000000000000000000000000000000000000000000000081526004018080602001828103825260138152602001807f4f7264657220646f65736e27742065786973740000000000000000000000000081525060200191505060405180910390fd5b600260058111156145ad57fe5b6008600084815260200190815260200160002060060160009054906101000a900460ff1660058111156145dc57fe5b141515614677576040517f08c379a000000000000000000000000000000000000000000000000000000000815260040180806020018281038252602f8152602001807f4f72646572206973206e6f74206f6e2074686520776179206f72206e6f74206f81526020017f757420666f722064656c6976657279000000000000000000000000000000000081525060400191505060405180910390fd5b60036008600084815260200190815260200160002060060160006101000a81548160ff021916908360058111156146aa57fe5b0217905550600860006004548152602001908152602001600020600860008481526020019081526020016000206000820154816000015560018201816001019080546146f7929190615059565b50600282015481600201556003820154816003015560048201548160040155600582015481600501556006820160009054906101000a900460ff168160060160006101000a81548160ff0219169083600581111561475157fe5b02179055506006820160019054906101000a900460ff168160060160016101000a81548160ff0219169083600181111561478757fe5b02179055509050507f58d97c9a7f506d49829d9f53a5aad430cff9d6ea208dddd9a7cf01ef5eccbc40826008600085815260200190815260200160002060060160009054906101000a900460ff16604051808381526020018260058111156147eb57fe5b60ff1681526020019250505060405180910390a160019050919050565b600080600a60003373ffffffffffffffffffffffffffffffffffffffff1673ffffffffffffffffffffffffffffffffffffffff168152602001908152602001600020541115156148e6576040517f08c379a00000000000000000000000000000000000000000000000000000000081526004018080602001828103825260238152602001807f596f75206172656e27742072656769737465726564206173206120736869706d81526020017f656e74000000000000000000000000000000000000000000000000000000000081525060400191505060405180910390fd5b6004548211151515614960576040517f08c379a00000000000000000000000000000000000000000000000000000000081526004018080602001828103825260138152602001807f4f7264657220646f65736e27742065786973740000000000000000000000000081525060200191505060405180910390fd5b6002600581111561496d57fe5b6008600084815260200190815260200160002060060160009054906101000a900460ff16600581111561499c57fe5b141515614a37576040517f08c379a000000000000000000000000000000000000000000000000000000000815260040180806020018281038252602f8152602001807f4f72646572206973206e6f74206f6e2074686520776179206f72206e6f74206f81526020017f757420666f722064656c6976657279000000000000000000000000000000000081525060400191505060405180910390fd5b60036008600084815260200190815260200160002060060160006101000a81548160ff02191690836005811115614a6a57fe5b021790555060006008600084815260200190815260200160002060060160016101000a81548160ff02191690836001811115614aa257fe5b021790555060086000600454815260200190815260200160002060086000848152602001908152602001600020600082015481600001556001820181600101908054614aef929190615059565b50600282015481600201556003820154816003015560048201548160040155600582015481600501556006820160009054906101000a900460ff168160060160006101000a81548160ff02191690836005811115614b4957fe5b02179055506006820160019054906101000a900460ff168160060160016101000a81548160ff02191690836001811115614b7f57fe5b02179055509050507f58d97c9a7f506d49829d9f53a5aad430cff9d6ea208dddd9a7cf01ef5eccbc40826008600085815260200190815260200160002060060160009054906101000a900460ff1660405180838152602001826005811115614be357fe5b60ff1681526020019250505060405180910390a17f5b88ca144f1d4b33cbdd6e83ce1eb3c5ea8efc0c2a83ff3a6423827a579e9ba2826008600085815260200190815260200160002060060160019054906101000a900460ff1660405180838152602001826001811115614c5357fe5b60ff1681526020019250505060405180910390a160019050919050565b600080600960003373ffffffffffffffffffffffffffffffffffffffff1673ffffffffffffffffffffffffffffffffffffffff16815260200190815260200160002054141515614d28576040517f08c379a00000000000000000000000000000000000000000000000000000000081526004018080602001828103825260198152602001807f53656c6c657220616c726561647920726567697374657265640000000000000081525060200191505060405180910390fd5b60026000815480929190600101919050555060006006600060025481526020019081526020016000209050600254816000018190555080600101600190806001815401808255809150509060018203906000526020600020016000909192909190915055508060010160029080600181540180825580915050906001820390600052602060002001600090919290919091505550806001016003908060018154018082558091505090600182039060005260206000200160009091929091909150555080600101600490806001815401808255809150509060018203906000526020600020016000909192909190915055508060010160059080600181540180825580915050906001820390600052602060002001600090919290919091505550806006600083600001548152602001908152602001600020600082015481600001556001820181600101908054614e81929190615059565b509050508060000154600960003373ffffffffffffffffffffffffffffffffffffffff1673ffffffffffffffffffffffffffffffffffffffff16815260200190815260200160002081905550600191505090565b600080600b60003373ffffffffffffffffffffffffffffffffffffffff1673ffffffffffffffffffffffffffffffffffffffff168152602001908152602001600020549050600081141515614f2d5780915050615056565b600a60003373ffffffffffffffffffffffffffffffffffffffff1673ffffffffffffffffffffffffffffffffffffffff168152602001908152602001600020549050600081141515614f825780915050615056565b600960003373ffffffffffffffffffffffffffffffffffffffff1673ffffffffffffffffffffffffffffffffffffffff168152602001908152602001600020549050600081141515614fd75780915050615056565b60008114151515615050576040517f08c379a00000000000000000000000000000000000000000000000000000000081526004018080602001828103825260158152602001807f596f75206172656e27742072656769737465726564000000000000000000000081525060200191505060405180910390fd5b60009150505b90565b82805482825590600052602060002090810192821561509a5760005260206000209182015b8281111561509957825482559160010191906001019061507e565b5b5090506150a791906150f8565b5090565b8280548282559060005260206000209081019282156150e7579160200282015b828111156150e65782518255916020019190600101906150cb565b5b5090506150f491906150f8565b5090565b61511a91905b808211156151165760008160009055506001016150fe565b5090565b9056fea165627a7a723058202cb04e827938eb81f9cffb93e05dfe729320144327a950159ce02c3e25a38f060029",
  "source": "pragma solidity ^0.5.0;\n\ncontract DecentralizedShipment {\n    uint product_cost = 5; //Cost of the product\n    uint shipment_count = 0; //Count of the shipment company employee\n    uint seller_count = 0; //Count of the seller \n    uint customer_count = 0; //Count of the customer\n    uint order_count = 0; //Count of the order\n\n     // Order status enum that will be used in our system in order to know the status of the order.\n    enum OrderStatus {\n        ordered,    // The order has been placed by the customer.\n        preparing,  // Order is being prepared.\n        ontheway,   //  Order is on the way.\n        outfordelivery, // Order is out for delivery.\n        received,   //  Order is received.\n        cancelled   //  Order is cancelled by user.\n    }\n    enum ProductStatus{\n        damaged, //Status of the product is damaged\n        not_damaged //Status of the product is not damaged\n    }\n    \n    // Order struct which contains order details that will be used in our system in order to create order.\n    struct Order{\n        uint id;                    //This is the ID of the order and it's unique.\n        uint[] products;            //This is the array of products that will be ordered.\n        uint price;                 //This is the total price of the order.\n        uint seller;                //This is the seller of the order.\n        uint shipment;              // This is the shipment of the order.    \n        uint customer;              //This is the customer of the order.\n        OrderStatus status;         //This is the status of the order.\n        ProductStatus pStatus;      //This represents the order being damaged or not.\n    }\n \n\n    // This is the struct of the customer which contains customer details.\n    struct Customer {\n        uint id;         \n        uint cur_order;\n        uint last_order;\n    }\n    //This is the struct of the seller which contains seller details.\n    struct Seller {\n        uint id;\n        uint[] product_list;\n    }\n    //This is the struct of the shipment which contains shipment details.\n    struct Shipment {\n        uint id;\n        uint cur_order;\n        uint order_count;\n    }\n    //This is the mapping customer details.\n    mapping(uint => Customer) customer_details;\n    //This is the mapping seller details.\n    mapping(uint => Seller) seller_details;\n    //This is the mapping shipment details.\n    mapping(uint => Shipment) shipment_details;\n    //This is the mapping order details.\n    mapping(uint => Order) order_details;\n\n    mapping(address => uint) get_seller_id;\n    mapping(address => uint ) get_shipment_id;\n    mapping(address => uint) get_customer_id;\n    \n    \n    /* ---------------EVENTS----------------- */\n    \n    event order_status_update(uint order_id, OrderStatus status);\n    event order_damaged_update(uint order_id, ProductStatus pStatus);\n    \n    /* ---------------MODIFIERS-------------- */\n    \n    modifier is_customer() {\n        require(get_customer_id[msg.sender] > 0, \"You aren't registered as a customer\");\n        _;\n    }\n    \n    modifier is_shipment() {\n        require(get_shipment_id[msg.sender] > 0, \"You aren't registered as a shipment\");\n        _;\n    }\n    \n    modifier is_seller() {\n        require(get_seller_id[msg.sender] > 0, \"You aren't registered as a seller\");\n        _;\n    }\n    \n    modifier has_ordered() {\n        require(customer_details[get_customer_id[msg.sender]].cur_order != 0, \"You don't have any active orders\");\n        _;\n    }\n    \n    /* ---------------UTILITY FUNCTIONS------ */\n    function product_exists(uint item, uint seller_id) \n    public view returns(bool) {\n        uint i;\n        for (i = 0; i < seller_details[seller_id].product_list.length; i++) {\n\n            \n            if (seller_details[seller_id].product_list[i] == item) {\n                \n                return true;\n            }\n        }\n        return false;\n    }\n    function get_id() public view returns(uint) {\n        uint id;\n        id = get_customer_id[msg.sender];\n        if (id != 0)\n            return id;\n            \n        id = get_shipment_id[msg.sender];\n        if (id != 0)\n            return id;\n            \n        id = get_seller_id[msg.sender];\n        if (id != 0)\n            return id;\n            \n        require(id != 0, \"You aren't registered\");\n        return 0;\n    }\n    \n\n\n\n    /* ---------------CUSTOMER--------------- */\n\n    /**\n        * @dev This function is used to register a customer in the system.\n        */\n    function register_customer() public returns(bool) {\n        \n        require(get_customer_id[msg.sender] == 0, \"Customer already registered\");\n        customer_count++;\n        Customer storage customer = customer_details[customer_count];\n        customer.id = customer_count;\n        customer.cur_order = 0;\n        customer_details[customer.id] = customer;\n        get_customer_id[msg.sender] = customer.id;\n        return true;\n    }\n    /**\n        * @dev This function is used to give an order to a customer.\n        * @param product_id This is the product id of the product that is being ordered.\n        * @param seller_id This is the seller id of the seller who is selling the product.\n    */\n    function give_order(uint product_id, uint seller_id) is_customer() public payable returns(bool) {\n        require(seller_id <= seller_count, \"Seller doesn't exist\");\n        require(customer_details[get_customer_id[msg.sender]].cur_order == 0, \"Already given order\");\n        require(product_exists(product_id, seller_id) == true, \"Item doesn't exist\");\n\n        order_count++;\n        Order storage order = order_details[order_count];\n        order.id = order_count;\n        order.products = [product_id];\n        order.price = [product_id].length * product_cost;\n        order.status = OrderStatus.ordered;\n        order.seller = seller_id;\n        order.customer = get_customer_id[msg.sender];\n        order.pStatus = ProductStatus.not_damaged;\n        \n        customer_details[get_customer_id[msg.sender]].cur_order = order.id;\n        emit order_status_update(order.id, order.status);\n        return true;\n    }\n    /**\n        * @dev This function is used to checking the order status.\n        * @param order_id This is the order id of the order that is checking status.\n        * @param seller_id This is the seller id of the seller who is selling the product.\n        * @return This return the order status and product status.\n    */\n    function check_order_status_customer(uint order_id, uint seller_id) is_customer()  has_ordered() public view returns(OrderStatus,ProductStatus) {\n        require(seller_id <= seller_count, \"Seller doesn't exist\");  //Checking if seller exists.\n        require(order_id <= order_count, \"Order doesn't exist\");     //Checking if order exists.\n    \n        /*if(order_details[order_id].status == OrderStatus.ordered && order_details[order_id].pStatus == ProductStatus.damaged) {\n            return (0,1);\n        }else if(order_details[order_id].status == OrderStatus.ordered && order_details[order_id].pStatus == ProductStatus.not_damaged) {\n             return (0,0);\n        }else if(order_details[order_id].status == OrderStatus.preparing && order_details[order_id].pStatus == ProductStatus.damaged) {\n            return (1,1);\n        }else if(order_details[order_id].status == OrderStatus.preparing && order_details[order_id].pStatus == ProductStatus.not_damaged) {\n             return (1,0);\n        }else if(order_details[order_id].status == OrderStatus.ontheway && order_details[order_id].pStatus == ProductStatus.damaged) {\n             return (2,1);\n        }else if(order_details[order_id].status == OrderStatus.ontheway && order_details[order_id].pStatus == ProductStatus.not_damaged) {\n             return (2,0);\n        }else if(order_details[order_id].status == OrderStatus.outfordelivery && order_details[order_id].pStatus == ProductStatus.damaged) {\n             return (3,1);\n        }else if(order_details[order_id].status == OrderStatus.outfordelivery && order_details[order_id].pStatus == ProductStatus.not_damaged) {\n             return (3,0);\n        }else if(order_details[order_id].status == OrderStatus.received && order_details[order_id].pStatus == ProductStatus.damaged) {\n             return (4,1);\n        }else if(order_details[order_id].status == OrderStatus.received && order_details[order_id].pStatus == ProductStatus.damaged){\n            return (4,0);\n        }else if(order_details[order_id].status == OrderStatus.cancelled && order_details[order_id].pStatus == ProductStatus.damaged) {\n             return (5,1);\n        }else {\n            return (5,0);\n        }*/\n        return (order_details[order_id].status,order_details[order_id].pStatus);\n    }\n    /**\n        * @dev Function to cancel an order.\n        * @param order_id The id of the order to be cancelled.\n        * @return True if the order is cancelled, false otherwise.\n        */\n    function cancel_order(uint order_id) is_customer() has_ordered() public returns(bool) {\n        require(order_id <= order_count, \"Order doesn't exist\");     //Checking if order exists.\n        require(order_details[order_id].customer == get_customer_id[msg.sender], \"You don't have this order\");      \n        require(order_details[order_id].status != OrderStatus.received, \"Order is already received\");               \n        require(order_details[order_id].status != OrderStatus.cancelled, \"You have already cancel this order!\");    \n        order_details[order_id].status = OrderStatus.cancelled;                                                     \n        order_details[order_id] = order_details[order_count];                                                       \n        emit order_status_update(order_id, order_details[order_id].status);                                       \n        return true;                                                                     \n    }\n    /**\n        * @dev This function is used for the receiving the order.\n        * @param order_id The id of the order to be received.\n        * @return True if the order is received, false otherwise.\n        */\n    function receive_order(uint order_id) is_customer() has_ordered() public returns(bool)  {\n        require(order_id <= order_count, \"Order doesn't exist\");\n        require(order_details[order_id].status == OrderStatus.outfordelivery, \"Order is not out for delivery\");\n        require(order_details[order_id].customer == get_customer_id[msg.sender], \"You don't have this order\");\n        order_details[order_id].status = OrderStatus.received;\n        order_details[order_id] = order_details[order_count];\n        emit order_status_update(order_id, order_details[order_id].status);\n        return true;\n    }\n\n    /* ---------------SELLER--------------- */\n\n    /**\n        * @dev This function is used to add a new seller.\n        * @return True if the seller is added, false otherwise.\n    */\n    function register_seller() public returns(bool) {\n        require(get_seller_id[msg.sender] == 0, \"Seller already registered\");\n\n        seller_count++;\n        Seller storage seller = seller_details[seller_count];\n        seller.id = seller_count;\n        seller.product_list.push(1);\n        seller.product_list.push(2);\n        seller.product_list.push(3);\n        seller.product_list.push(4);\n        seller.product_list.push(5);\n        seller_details[seller.id] = seller;\n        get_seller_id[msg.sender] = seller.id;\n        return true;\n    }\n    /**\n        * @dev This function is used receive the order by the seller.\n        * @param order_id The id of the seller to be preparing.\n        */\n    function receive_and_prepare_the_order(uint order_id) is_seller() public returns(bool) {\n        uint seller_id = get_seller_id[msg.sender];\n        require(order_details[order_id].seller == seller_id, \"Not your order\");\n        require(order_details[order_id].status != OrderStatus.preparing, \"Already accepted this order\");\n        order_details[order_id].status = OrderStatus.preparing;\n        emit order_status_update(order_id, order_details[order_id].status);\n        return true;\n    }\n    /**\n        * @dev This function is used to transfer the order to the delivery person.\n        * @param order_id The id of the order to be delivered.\n        * @return True if the order is delivered, false otherwise.\n    */\n    function transfer_order_to_shipment(uint order_id) is_seller() public payable returns(bool) {\n        require(order_id <= order_count, \"Order doesn't exist\");\n        require(order_details[order_id].status == OrderStatus.preparing, \"Order is not prepared\");\n        order_details[order_id].status = OrderStatus.ontheway;\n        return true;\n    }\n    /**\n        * @dev This function is used to checking the order status.\n        * @param order_id This is the order id of the order that is checking status.\n        * @return The status of the order and status of the product.\n    */\n    function check_order_status_seller(uint order_id, uint seller_id) is_seller()  public view returns(OrderStatus, ProductStatus) {\n        require(seller_id <= seller_count, \"Seller doesn't exist\");\n        require(order_id <= order_count, \"Order doesn't exist\");\n    \n        /*if(order_details[order_id].status == OrderStatus.ordered && order_details[order_id].pStatus == ProductStatus.damaged) {\n            return (0,1);\n        }else if(order_details[order_id].status == OrderStatus.ordered && order_details[order_id].pStatus == ProductStatus.not_damaged) {\n             return (0,0);\n        }else if(order_details[order_id].status == OrderStatus.preparing && order_details[order_id].pStatus == ProductStatus.damaged) {\n            return (1,1);\n        }else if(order_details[order_id].status == OrderStatus.preparing && order_details[order_id].pStatus == ProductStatus.not_damaged) {\n             return (1,0);\n        }else if(order_details[order_id].status == OrderStatus.ontheway && order_details[order_id].pStatus == ProductStatus.damaged) {\n             return (2,1);\n        }else if(order_details[order_id].status == OrderStatus.ontheway && order_details[order_id].pStatus == ProductStatus.not_damaged) {\n             return (2,0);\n        }else if(order_details[order_id].status == OrderStatus.outfordelivery && order_details[order_id].pStatus == ProductStatus.damaged) {\n             return (3,1);\n        }else if(order_details[order_id].status == OrderStatus.outfordelivery && order_details[order_id].pStatus == ProductStatus.not_damaged) {\n             return (3,0);\n        }else if(order_details[order_id].status == OrderStatus.received && order_details[order_id].pStatus == ProductStatus.damaged) {\n             return (4,1);\n        }else if(order_details[order_id].status == OrderStatus.received && order_details[order_id].pStatus == ProductStatus.damaged){\n            return (4,0);\n        }else if(order_details[order_id].status == OrderStatus.cancelled && order_details[order_id].pStatus == ProductStatus.damaged) {\n             return (5,1);\n        }else {\n            return (5,0);\n        }*/\n        return (order_details[order_id].status,order_details[order_id].pStatus);\n        \n    }\n\n    /* ---------------SHIPMENT--------------- */\n    \n    /**\n        * @dev This function is used to add a new delivery person.\n        * @return True if the seller is added, false otherwise.\n        */\n    function register_shipment() public returns(bool) {\n        require(get_shipment_id[msg.sender] == 0, \"Shipment already registered\");\n        shipment_count++;\n        Shipment storage shipment = shipment_details[shipment_count];\n        shipment.id = shipment_count;\n        shipment_details[shipment.id] = shipment;\n        get_shipment_id[msg.sender] = shipment.id;\n        return true;\n    }\n    /**\n        * @dev This function is used receive the order from the delivery person.\n        * @param order_id The id of the seller to be preparing.\n    */\n    function receive_and_ship_the_order(uint order_id) is_shipment() public returns(bool) {\n        uint shipment_id = get_shipment_id[msg.sender];\n        require(shipment_details[shipment_id].cur_order == 0, \"Already delivering another order\");\n        order_details[order_id].status = OrderStatus.ontheway;\n        order_details[order_id].shipment = get_shipment_id[msg.sender];\n        shipment_details[shipment_id].cur_order = order_id;\n        emit order_status_update(order_id, order_details[order_id].status);\n        return true;\n    }\n\n\n    function update_status_to_otwtc_and_damaged(uint order_id ) is_shipment() public returns(bool) {\n        require(order_id <= order_count, \"Order doesn't exist\");\n        require(order_details[order_id].status == OrderStatus.ontheway, \"Order is not on the way or not out for delivery\");\n        order_details[order_id].status = OrderStatus.outfordelivery;\n        order_details[order_id].pStatus = ProductStatus.damaged;\n        order_details[order_id] = order_details[order_count];\n        emit order_status_update(order_id, order_details[order_id].status);\n        emit order_damaged_update(order_id, order_details[order_id].pStatus);\n        return true;\n    }\n    function update_status_to_otwtc_and_not_damaged(uint order_id ) is_shipment() public returns(bool) {\n        require(order_id <= order_count, \"Order doesn't exist\");\n        require(order_details[order_id].status == OrderStatus.ontheway, \"Order is not on the way or not out for delivery\");\n        order_details[order_id].status = OrderStatus.outfordelivery;\n        order_details[order_id].pStatus = ProductStatus.damaged;\n        order_details[order_id] = order_details[order_count];\n        emit order_status_update(order_id, order_details[order_id].status);\n        emit order_damaged_update(order_id, order_details[order_id].pStatus);\n        return true;\n    }\n\n    /**\n        * @dev This function is used to update the order status to outfordelivery and damaged.\n        * @param order_id The id of the order to be delivered.\n    */\n    function update_status_to_ofd_and_damaged(uint order_id ) is_shipment() public returns(bool) {\n        require(order_id <= order_count, \"Order doesn't exist\");\n        require(order_details[order_id].status == OrderStatus.ontheway, \"Order is not on the way or not out for delivery\");\n        order_details[order_id].status = OrderStatus.outfordelivery;\n        order_details[order_id].pStatus = ProductStatus.damaged;\n        order_details[order_id] = order_details[order_count];\n        emit order_status_update(order_id, order_details[order_id].status);\n        emit order_damaged_update(order_id, order_details[order_id].pStatus);\n        return true;\n    }\n    /**\n        * @dev This function is used to update the order status to outfordelivery and not damaged.\n        * @param order_id The id of the order to be updated.\n    */\n    function update_status_to_ofd_and_not_damaged(uint order_id) is_shipment() public returns(bool) {\n        require(order_id <= order_count, \"Order doesn't exist\");\n        require(order_details[order_id].status == OrderStatus.ontheway, \"Order is not on the way or not out for delivery\");\n        order_details[order_id].status = OrderStatus.outfordelivery;\n        order_details[order_id] = order_details[order_count];\n        emit order_status_update(order_id, order_details[order_id].status);\n        return true;\n    }\n    /**\n        * @dev This function is used to update the order status to received and damaged.\n        * @param order_id The id of the order to be updated.\n    */\n    function update_status_to_received_and_damaged(uint order_id ) is_shipment() public returns(bool) {\n        require(order_id <= order_count, \"Order doesn't exist\");\n        require(order_details[order_id].status == OrderStatus.ontheway ||order_details[order_id].status == OrderStatus.outfordelivery , \"Order is not on the way or not out for delivery\");\n        order_details[order_id].status = OrderStatus.received;\n        order_details[order_id].pStatus = ProductStatus.damaged;\n        order_details[order_id] = order_details[order_count];\n        emit order_status_update(order_id, order_details[order_id].status);\n        emit order_damaged_update(order_id, order_details[order_id].pStatus);\n        return true;\n    }\n    /**\n        * @dev This function is used to update the order status to received and not damaged.\n        * @param order_id The id of the order to be updated.\n    */\n    function update_status_to_received_and_not_damaged(uint order_id ) is_shipment() public returns(bool) {\n        require(order_id <= order_count, \"Order doesn't exist\");\n        require(order_details[order_id].status == OrderStatus.ontheway ||order_details[order_id].status == OrderStatus.outfordelivery , \"Order is not on the way or not out for delivery\");\n        order_details[order_id].status = OrderStatus.received;\n        order_details[order_id] = order_details[order_count];\n        emit order_status_update(order_id, order_details[order_id].status);\n        return true;\n    }\n    /**\n        * @dev This function is used to update the order status to cancelled and damaged.\n        * @param order_id The id of the order to be updated.\n    */\n    function update_status_to_cancelled_and_damaged(uint order_id ) is_shipment() public returns(bool) {\n        require(order_id <= order_count, \"Order doesn't exist\");\n        require(order_details[order_id].status != OrderStatus.received, \"Order is already received\");\n        order_details[order_id].status = OrderStatus.cancelled;\n        order_details[order_id].pStatus = ProductStatus.damaged;\n        order_details[order_id] = order_details[order_count];\n        emit order_status_update(order_id, order_details[order_id].status);\n        emit order_damaged_update(order_id, order_details[order_id].pStatus);\n        return true;\n    }\n    /**\n        * @dev This function is used to update the order status to cancelled and not damaged.\n        * @param order_id The id of the order to be updated.\n    */\n    function update_status_to_cancelled_and_not_damaged(uint order_id ) is_shipment() public returns(bool) {\n        require(order_id <= order_count, \"Order doesn't exist\");\n       require(order_details[order_id].status != OrderStatus.received, \"Order is already received\");\n        order_details[order_id].status = OrderStatus.cancelled;\n        order_details[order_id] = order_details[order_count];\n        emit order_status_update(order_id, order_details[order_id].status);\n        return true;\n    }\n\n    /**\n        * @dev This function is used to checking the order status.\n        * @param order_id This is the order id of the order that is checking status.\n    */\n   function check_order_status_shipment(uint order_id, uint seller_id) is_shipment()  public view returns(OrderStatus,ProductStatus) {\n        require(seller_id <= seller_count, \"Seller doesn't exist\");\n        require(order_id <= order_count, \"Order doesn't exist\");\n    \n        /*if(order_details[order_id].status == OrderStatus.ordered && order_details[order_id].pStatus == ProductStatus.damaged) {\n            return (0,1);\n        }else if(order_details[order_id].status == OrderStatus.ordered && order_details[order_id].pStatus == ProductStatus.not_damaged) {\n             return (0,0);\n        }else if(order_details[order_id].status == OrderStatus.preparing && order_details[order_id].pStatus == ProductStatus.damaged) {\n            return (1,1);\n        }else if(order_details[order_id].status == OrderStatus.preparing && order_details[order_id].pStatus == ProductStatus.not_damaged) {\n             return (1,0);\n        }else if(order_details[order_id].status == OrderStatus.ontheway && order_details[order_id].pStatus == ProductStatus.damaged) {\n             return (2,1);\n        }else if(order_details[order_id].status == OrderStatus.ontheway && order_details[order_id].pStatus == ProductStatus.not_damaged) {\n             return (2,0);\n        }else if(order_details[order_id].status == OrderStatus.outfordelivery && order_details[order_id].pStatus == ProductStatus.damaged) {\n             return (3,1);\n        }else if(order_details[order_id].status == OrderStatus.outfordelivery && order_details[order_id].pStatus == ProductStatus.not_damaged) {\n             return (3,0);\n        }else if(order_details[order_id].status == OrderStatus.received && order_details[order_id].pStatus == ProductStatus.damaged) {\n             return (4,1);\n        }else if(order_details[order_id].status == OrderStatus.received && order_details[order_id].pStatus == ProductStatus.damaged){\n            return (4,0);\n        }else if(order_details[order_id].status == OrderStatus.cancelled && order_details[order_id].pStatus == ProductStatus.damaged) {\n             return (5,1);\n        }else {\n            return (5,0);\n        }*/\n        return (order_details[order_id].status,order_details[order_id].pStatus);\n    }\n\n  \n    \n}",
  "sourcePath": "/Users/hasanaliozkan/Desktop/Ders/Decentralized/Decentralized Shipment/Decentralized_Shipment/contracts/DecentralizedShipment.sol",
  "compiler": {
    "name": "solc",
    "version": "0.5.0+commit.1d4f565a.Emscripten.clang"
  },
  "schemaVersion": "3.0.1",
  "updatedAt": "2022-06-03T20:11:59.398Z",
  "devdoc": {
    "methods": {
      "cancel_order(uint256)": {
        "details": "Function to cancel an order.",
        "params": {
          "order_id": "The id of the order to be cancelled."
        },
        "return": "True if the order is cancelled, false otherwise."
      },
      "check_order_status_customer(uint256,uint256)": {
        "details": "This function is used to checking the order status.",
        "params": {
          "order_id": "This is the order id of the order that is checking status.",
          "seller_id": "This is the seller id of the seller who is selling the product."
        },
        "return": "This return the order status and product status."
      },
      "check_order_status_seller(uint256,uint256)": {
        "details": "This function is used to checking the order status.",
        "params": {
          "order_id": "This is the order id of the order that is checking status."
        },
        "return": "The status of the order and status of the product."
      },
      "check_order_status_shipment(uint256,uint256)": {
        "details": "This function is used to checking the order status.",
        "params": {
          "order_id": "This is the order id of the order that is checking status."
        }
      },
      "give_order(uint256,uint256)": {
        "details": "This function is used to give an order to a customer.",
        "params": {
          "product_id": "This is the product id of the product that is being ordered.",
          "seller_id": "This is the seller id of the seller who is selling the product."
        }
      },
      "receive_and_prepare_the_order(uint256)": {
        "details": "This function is used receive the order by the seller.",
        "params": {
          "order_id": "The id of the seller to be preparing."
        }
      },
      "receive_and_ship_the_order(uint256)": {
        "details": "This function is used receive the order from the delivery person.",
        "params": {
          "order_id": "The id of the seller to be preparing."
        }
      },
      "receive_order(uint256)": {
        "details": "This function is used for the receiving the order.",
        "params": {
          "order_id": "The id of the order to be received."
        },
        "return": "True if the order is received, false otherwise."
      },
      "register_customer()": {
        "details": "This function is used to register a customer in the system."
      },
      "register_seller()": {
        "details": "This function is used to add a new seller.",
        "return": "True if the seller is added, false otherwise."
      },
      "register_shipment()": {
        "details": "This function is used to add a new delivery person.",
        "return": "True if the seller is added, false otherwise."
      },
      "transfer_order_to_shipment(uint256)": {
        "details": "This function is used to transfer the order to the delivery person.",
        "params": {
          "order_id": "The id of the order to be delivered."
        },
        "return": "True if the order is delivered, false otherwise."
      },
      "update_status_to_cancelled_and_damaged(uint256)": {
        "details": "This function is used to update the order status to cancelled and damaged.",
        "params": {
          "order_id": "The id of the order to be updated."
        }
      },
      "update_status_to_cancelled_and_not_damaged(uint256)": {
        "details": "This function is used to update the order status to cancelled and not damaged.",
        "params": {
          "order_id": "The id of the order to be updated."
        }
      },
      "update_status_to_ofd_and_damaged(uint256)": {
        "details": "This function is used to update the order status to outfordelivery and damaged.",
        "params": {
          "order_id": "The id of the order to be delivered."
        }
      },
      "update_status_to_ofd_and_not_damaged(uint256)": {
        "details": "This function is used to update the order status to outfordelivery and not damaged.",
        "params": {
          "order_id": "The id of the order to be updated."
        }
      },
      "update_status_to_received_and_damaged(uint256)": {
        "details": "This function is used to update the order status to received and damaged.",
        "params": {
          "order_id": "The id of the order to be updated."
        }
      },
      "update_status_to_received_and_not_damaged(uint256)": {
        "details": "This function is used to update the order status to received and not damaged.",
        "params": {
          "order_id": "The id of the order to be updated."
        }
      }
    }
  },
  "userdoc": {
    "methods": {}
  }
}