{
  "contractName": "DecentralizedShipment",
  "abi": [
    {
      "anonymous": false,
      "inputs": [
        {
          "indexed": false,
          "internalType": "uint256",
          "name": "order_id",
          "type": "uint256"
        },
        {
          "indexed": false,
          "internalType": "enum DecentralizedShipment.ProductStatus",
          "name": "pStatus",
          "type": "uint8"
        }
      ],
      "name": "order_damaged_update",
      "type": "event"
    },
    {
      "anonymous": false,
      "inputs": [
        {
          "indexed": false,
          "internalType": "uint256",
          "name": "order_id",
          "type": "uint256"
        },
        {
          "indexed": false,
          "internalType": "enum DecentralizedShipment.OrderStatus",
          "name": "status",
          "type": "uint8"
        }
      ],
      "name": "order_status_update",
      "type": "event"
    },
    {
      "constant": true,
      "inputs": [
        {
          "internalType": "uint256",
          "name": "item",
          "type": "uint256"
        },
        {
          "internalType": "uint256",
          "name": "seller_id",
          "type": "uint256"
        }
      ],
      "name": "product_exists",
      "outputs": [
        {
          "internalType": "bool",
          "name": "",
          "type": "bool"
        }
      ],
      "payable": false,
      "stateMutability": "view",
      "type": "function"
    },
    {
      "constant": true,
      "inputs": [],
      "name": "get_id",
      "outputs": [
        {
          "internalType": "uint256",
          "name": "",
          "type": "uint256"
        }
      ],
      "payable": false,
      "stateMutability": "view",
      "type": "function"
    },
    {
      "constant": false,
      "inputs": [],
      "name": "register_customer",
      "outputs": [
        {
          "internalType": "bool",
          "name": "",
          "type": "bool"
        }
      ],
      "payable": false,
      "stateMutability": "nonpayable",
      "type": "function"
    },
    {
      "constant": false,
      "inputs": [
        {
          "internalType": "uint256",
          "name": "product_id",
          "type": "uint256"
        },
        {
          "internalType": "uint256",
          "name": "seller_id",
          "type": "uint256"
        }
      ],
      "name": "give_order",
      "outputs": [
        {
          "internalType": "bool",
          "name": "",
          "type": "bool"
        }
      ],
      "payable": true,
      "stateMutability": "payable",
      "type": "function"
    },
    {
      "constant": true,
      "inputs": [
        {
          "internalType": "uint256",
          "name": "order_id",
          "type": "uint256"
        },
        {
          "internalType": "uint256",
          "name": "seller_id",
          "type": "uint256"
        }
      ],
      "name": "check_order_status_customer",
      "outputs": [
        {
          "internalType": "enum DecentralizedShipment.OrderStatus",
          "name": "",
          "type": "uint8"
        },
        {
          "internalType": "enum DecentralizedShipment.ProductStatus",
          "name": "",
          "type": "uint8"
        }
      ],
      "payable": false,
      "stateMutability": "view",
      "type": "function"
    },
    {
      "constant": false,
      "inputs": [
        {
          "internalType": "uint256",
          "name": "order_id",
          "type": "uint256"
        }
      ],
      "name": "cancel_order",
      "outputs": [
        {
          "internalType": "enum DecentralizedShipment.OrderStatus",
          "name": "",
          "type": "uint8"
        }
      ],
      "payable": false,
      "stateMutability": "nonpayable",
      "type": "function"
    },
    {
      "constant": false,
      "inputs": [
        {
          "internalType": "uint256",
          "name": "order_id",
          "type": "uint256"
        }
      ],
      "name": "receive_order",
      "outputs": [
        {
          "internalType": "enum DecentralizedShipment.OrderStatus",
          "name": "",
          "type": "uint8"
        }
      ],
      "payable": false,
      "stateMutability": "nonpayable",
      "type": "function"
    },
    {
      "constant": false,
      "inputs": [],
      "name": "register_seller",
      "outputs": [
        {
          "internalType": "bool",
          "name": "",
          "type": "bool"
        }
      ],
      "payable": false,
      "stateMutability": "nonpayable",
      "type": "function"
    },
    {
      "constant": false,
      "inputs": [
        {
          "internalType": "uint256",
          "name": "order_id",
          "type": "uint256"
        }
      ],
      "name": "receive_and_prepare_the_order",
      "outputs": [
        {
          "internalType": "bool",
          "name": "",
          "type": "bool"
        }
      ],
      "payable": false,
      "stateMutability": "nonpayable",
      "type": "function"
    },
    {
      "constant": false,
      "inputs": [
        {
          "internalType": "uint256",
          "name": "order_id",
          "type": "uint256"
        }
      ],
      "name": "transfer_order_to_shipment",
      "outputs": [
        {
          "internalType": "enum DecentralizedShipment.OrderStatus",
          "name": "",
          "type": "uint8"
        }
      ],
      "payable": true,
      "stateMutability": "payable",
      "type": "function"
    },
    {
      "constant": true,
      "inputs": [
        {
          "internalType": "uint256",
          "name": "order_id",
          "type": "uint256"
        },
        {
          "internalType": "uint256",
          "name": "seller_id",
          "type": "uint256"
        }
      ],
      "name": "check_order_status_seller",
      "outputs": [
        {
          "internalType": "enum DecentralizedShipment.OrderStatus",
          "name": "",
          "type": "uint8"
        },
        {
          "internalType": "enum DecentralizedShipment.ProductStatus",
          "name": "",
          "type": "uint8"
        }
      ],
      "payable": false,
      "stateMutability": "view",
      "type": "function"
    },
    {
      "constant": false,
      "inputs": [],
      "name": "register_shipment",
      "outputs": [
        {
          "internalType": "bool",
          "name": "",
          "type": "bool"
        }
      ],
      "payable": false,
      "stateMutability": "nonpayable",
      "type": "function"
    },
    {
      "constant": false,
      "inputs": [
        {
          "internalType": "uint256",
          "name": "order_id",
          "type": "uint256"
        }
      ],
      "name": "receive_and_ship_the_order",
      "outputs": [
        {
          "internalType": "bool",
          "name": "",
          "type": "bool"
        }
      ],
      "payable": false,
      "stateMutability": "nonpayable",
      "type": "function"
    },
    {
      "constant": false,
      "inputs": [
        {
          "internalType": "uint256",
          "name": "order_id",
          "type": "uint256"
        }
      ],
      "name": "update_status_to_ofd_and_damaged",
      "outputs": [
        {
          "internalType": "bool",
          "name": "",
          "type": "bool"
        }
      ],
      "payable": false,
      "stateMutability": "nonpayable",
      "type": "function"
    },
    {
      "constant": false,
      "inputs": [
        {
          "internalType": "uint256",
          "name": "order_id",
          "type": "uint256"
        }
      ],
      "name": "update_status_to_ofd_and_not_damaged",
      "outputs": [
        {
          "internalType": "bool",
          "name": "",
          "type": "bool"
        }
      ],
      "payable": false,
      "stateMutability": "nonpayable",
      "type": "function"
    },
    {
      "constant": false,
      "inputs": [
        {
          "internalType": "uint256",
          "name": "order_id",
          "type": "uint256"
        }
      ],
      "name": "update_status_to_received_and_damaged",
      "outputs": [
        {
          "internalType": "bool",
          "name": "",
          "type": "bool"
        }
      ],
      "payable": false,
      "stateMutability": "nonpayable",
      "type": "function"
    },
    {
      "constant": false,
      "inputs": [
        {
          "internalType": "uint256",
          "name": "order_id",
          "type": "uint256"
        }
      ],
      "name": "update_status_to_received_and_not_damaged",
      "outputs": [
        {
          "internalType": "bool",
          "name": "",
          "type": "bool"
        }
      ],
      "payable": false,
      "stateMutability": "nonpayable",
      "type": "function"
    },
    {
      "constant": false,
      "inputs": [
        {
          "internalType": "uint256",
          "name": "order_id",
          "type": "uint256"
        }
      ],
      "name": "update_status_to_cancelled_and_damaged",
      "outputs": [
        {
          "internalType": "bool",
          "name": "",
          "type": "bool"
        }
      ],
      "payable": false,
      "stateMutability": "nonpayable",
      "type": "function"
    },
    {
      "constant": false,
      "inputs": [
        {
          "internalType": "uint256",
          "name": "order_id",
          "type": "uint256"
        }
      ],
      "name": "update_status_to_cancelled_and_not_damaged",
      "outputs": [
        {
          "internalType": "bool",
          "name": "",
          "type": "bool"
        }
      ],
      "payable": false,
      "stateMutability": "nonpayable",
      "type": "function"
    },
    {
      "constant": true,
      "inputs": [
        {
          "internalType": "uint256",
          "name": "order_id",
          "type": "uint256"
        },
        {
          "internalType": "uint256",
          "name": "seller_id",
          "type": "uint256"
        }
      ],
      "name": "check_order_status_shipment",
      "outputs": [
        {
          "internalType": "enum DecentralizedShipment.OrderStatus",
          "name": "",
          "type": "uint8"
        },
        {
          "internalType": "enum DecentralizedShipment.ProductStatus",
          "name": "",
          "type": "uint8"
        }
      ],
      "payable": false,
      "stateMutability": "view",
      "type": "function"
    }
  ],
  "bytecode": "0x6080604052600560005560006001556000600255600060035560006004556005805534801561002d57600080fd5b5061435c8061003d6000396000f3fe60806040526004361061011f5760003560e01c8063ae4aad2f116100a0578063cd04b16211610064578063cd04b16214610623578063ce59b43c14610676578063dc7a045b146106f2578063ea4c715b14610745578063f43fa805146107745761011f565b8063ae4aad2f1461046e578063b20a9aa9146104be578063b6bd2ee21461051b578063c29d28eb14610578578063cae8f5ce146105a75761011f565b80634a3ca965116100e75780634a3ca965146102c55780637b65d7801461031857806385d0c2291461036b5780638fc064c7146103c8578063addfa9971461041b5761011f565b80630df26cc71461012457806316212cde146101775780632f41dd6f146101a6578063373d465c1461022257806349f2971714610275575b600080fd5b34801561013057600080fd5b5061015d6004803603602081101561014757600080fd5b810190808035906020019092919050505061079f565b604051808215151515815260200191505060405180910390f35b34801561018357600080fd5b5061018c610b99565b604051808215151515815260200191505060405180910390f35b3480156101b257600080fd5b506101e9600480360360408110156101c957600080fd5b810190808035906020019092919080359060200190929190505050610d18565b604051808360058111156101f957fe5b60ff16815260200182600181111561020d57fe5b60ff1681526020019250505060405180910390f35b34801561022e57600080fd5b5061025b6004803603602081101561024557600080fd5b8101908080359060200190929190505050610ef6565b604051808215151515815260200191505060405180910390f35b6102a16004803603602081101561028b57600080fd5b8101908080359060200190929190505050611186565b604051808260058111156102b157fe5b60ff16815260200191505060405180910390f35b3480156102d157600080fd5b506102fe600480360360208110156102e857600080fd5b81019080803590602001909291905050506113a9565b604051808215151515815260200191505060405180910390f35b34801561032457600080fd5b506103516004803603602081101561033b57600080fd5b81019080803590602001909291905050506116fb565b604051808215151515815260200191505060405180910390f35b34801561037757600080fd5b506103ae6004803603604081101561038e57600080fd5b8101908080359060200190929190803590602001909291905050506119c5565b604051808215151515815260200191505060405180910390f35b3480156103d457600080fd5b50610401600480360360208110156103eb57600080fd5b8101908080359060200190929190505050611a44565b604051808215151515815260200191505060405180910390f35b34801561042757600080fd5b506104546004803603602081101561043e57600080fd5b8101908080359060200190929190505050611e20565b604051808215151515815260200191505060405180910390f35b6104a46004803603604081101561048457600080fd5b810190808035906020019092919080359060200190929190505050612240565b604051808215151515815260200191505060405180910390f35b3480156104ca57600080fd5b506104f7600480360360208110156104e157600080fd5b810190808035906020019092919050505061267d565b6040518082600581111561050757fe5b60ff16815260200191505060405180910390f35b34801561052757600080fd5b506105546004803603602081101561053e57600080fd5b8101908080359060200190929190505050612b86565b6040518082600581111561056457fe5b60ff16815260200191505060405180910390f35b34801561058457600080fd5b5061058d613122565b604051808215151515815260200191505060405180910390f35b3480156105b357600080fd5b506105ea600480360360408110156105ca57600080fd5b810190808035906020019092919080359060200190929190505050613297565b604051808360058111156105fa57fe5b60ff16815260200182600181111561060e57fe5b60ff1681526020019250505060405180910390f35b34801561062f57600080fd5b5061065c6004803603602081101561064657600080fd5b8101908080359060200190929190505050613475565b604051808215151515815260200191505060405180910390f35b34801561068257600080fd5b506106b96004803603604081101561069957600080fd5b8101908080359060200190929190803590602001909291905050506137ed565b604051808360058111156106c957fe5b60ff1681526020018260018111156106dd57fe5b60ff1681526020019250505060405180910390f35b3480156106fe57600080fd5b5061072b6004803603602081101561071557600080fd5b8101908080359060200190929190505050613a97565b604051808215151515815260200191505060405180910390f35b34801561075157600080fd5b5061075a613dcb565b604051808215151515815260200191505060405180910390f35b34801561078057600080fd5b5061078961402e565b6040518082815260200191505060405180910390f35b600080600b60003373ffffffffffffffffffffffffffffffffffffffff1673ffffffffffffffffffffffffffffffffffffffff1681526020019081526020016000205411610838576040517f08c379a00000000000000000000000000000000000000000000000000000000081526004018080602001828103825260238152602001806142b36023913960400191505060405180910390fd5b6004548211156108b0576040517f08c379a00000000000000000000000000000000000000000000000000000000081526004018080602001828103825260138152602001807f4f7264657220646f65736e27742065786973740000000000000000000000000081525060200191505060405180910390fd5b600460058111156108bd57fe5b6009600084815260200190815260200160002060060160009054906101000a900460ff1660058111156108ec57fe5b1415610960576040517f08c379a00000000000000000000000000000000000000000000000000000000081526004018080602001828103825260198152602001807f4f7264657220697320616c72656164792072656365697665640000000000000081525060200191505060405180910390fd5b60056009600084815260200190815260200160002060060160006101000a81548160ff0219169083600581111561099357fe5b021790555060006009600084815260200190815260200160002060060160016101000a81548160ff021916908360018111156109cb57fe5b021790555060096000600454815260200190815260200160002060096000848152602001908152602001600020600082015481600001556001820181600101908054610a189291906141aa565b50600282015481600201556003820154816003015560048201548160040155600582015481600501556006820160009054906101000a900460ff168160060160006101000a81548160ff02191690836005811115610a7257fe5b02179055506006820160019054906101000a900460ff168160060160016101000a81548160ff02191690836001811115610aa857fe5b02179055509050507f58d97c9a7f506d49829d9f53a5aad430cff9d6ea208dddd9a7cf01ef5eccbc40826009600085815260200190815260200160002060060160009054906101000a900460ff1660405180838152602001826005811115610b0c57fe5b60ff1681526020019250505060405180910390a17f5b88ca144f1d4b33cbdd6e83ce1eb3c5ea8efc0c2a83ff3a6423827a579e9ba2826009600085815260200190815260200160002060060160019054906101000a900460ff1660405180838152602001826001811115610b7c57fe5b60ff1681526020019250505060405180910390a160019050919050565b600080600c60003373ffffffffffffffffffffffffffffffffffffffff1673ffffffffffffffffffffffffffffffffffffffff1681526020019081526020016000205414610c4f576040517f08c379a000000000000000000000000000000000000000000000000000000000815260040180806020018281038252601b8152602001807f437573746f6d657220616c72656164792072656769737465726564000000000081525060200191505060405180910390fd5b600360008154809291906001019190505550600060066000600354815260200190815260200160002090506003548160000181905550600081600101819055508060066000836000015481526020019081526020016000206000820154816000015560018201548160010155600282015481600201559050508060000154600c60003373ffffffffffffffffffffffffffffffffffffffff1673ffffffffffffffffffffffffffffffffffffffff16815260200190815260200160002081905550600191505090565b6000806000600a60003373ffffffffffffffffffffffffffffffffffffffff1673ffffffffffffffffffffffffffffffffffffffff1681526020019081526020016000205411610db3576040517f08c379a000000000000000000000000000000000000000000000000000000000815260040180806020018281038252602181526020018061426f6021913960400191505060405180910390fd5b600254831115610e2b576040517f08c379a00000000000000000000000000000000000000000000000000000000081526004018080602001828103825260148152602001807f53656c6c657220646f65736e277420657869737400000000000000000000000081525060200191505060405180910390fd5b600454841115610ea3576040517f08c379a00000000000000000000000000000000000000000000000000000000081526004018080602001828103825260138152602001807f4f7264657220646f65736e27742065786973740000000000000000000000000081525060200191505060405180910390fd5b6009600085815260200190815260200160002060060160009054906101000a900460ff166009600086815260200190815260200160002060060160019054906101000a900460ff16915091509250929050565b600080600b60003373ffffffffffffffffffffffffffffffffffffffff1673ffffffffffffffffffffffffffffffffffffffff1681526020019081526020016000205411610f8f576040517f08c379a00000000000000000000000000000000000000000000000000000000081526004018080602001828103825260238152602001806142b36023913960400191505060405180910390fd5b6000600b60003373ffffffffffffffffffffffffffffffffffffffff1673ffffffffffffffffffffffffffffffffffffffff168152602001908152602001600020549050600060086000838152602001908152602001600020600101541461105f576040517f08c379a00000000000000000000000000000000000000000000000000000000081526004018080602001828103825260208152602001807f416c72656164792064656c69766572696e6720616e6f74686572206f7264657281525060200191505060405180910390fd5b60026009600085815260200190815260200160002060060160006101000a81548160ff0219169083600581111561109257fe5b0217905550600b60003373ffffffffffffffffffffffffffffffffffffffff1673ffffffffffffffffffffffffffffffffffffffff1681526020019081526020016000205460096000858152602001908152602001600020600401819055508260086000838152602001908152602001600020600101819055507f58d97c9a7f506d49829d9f53a5aad430cff9d6ea208dddd9a7cf01ef5eccbc40836009600086815260200190815260200160002060060160009054906101000a900460ff166040518083815260200182600581111561116857fe5b60ff1681526020019250505060405180910390a16001915050919050565b600080600a60003373ffffffffffffffffffffffffffffffffffffffff1673ffffffffffffffffffffffffffffffffffffffff168152602001908152602001600020541161121f576040517f08c379a000000000000000000000000000000000000000000000000000000000815260040180806020018281038252602181526020018061426f6021913960400191505060405180910390fd5b600454821115611297576040517f08c379a00000000000000000000000000000000000000000000000000000000081526004018080602001828103825260138152602001807f4f7264657220646f65736e27742065786973740000000000000000000000000081525060200191505060405180910390fd5b600160058111156112a457fe5b6009600084815260200190815260200160002060060160009054906101000a900460ff1660058111156112d357fe5b14611346576040517f08c379a00000000000000000000000000000000000000000000000000000000081526004018080602001828103825260158152602001807f4f72646572206973206e6f74207072657061726564000000000000000000000081525060200191505060405180910390fd5b60026009600084815260200190815260200160002060060160006101000a81548160ff0219169083600581111561137957fe5b02179055506009600083815260200190815260200160002060060160009054906101000a900460ff169050919050565b600080600b60003373ffffffffffffffffffffffffffffffffffffffff1673ffffffffffffffffffffffffffffffffffffffff1681526020019081526020016000205411611442576040517f08c379a00000000000000000000000000000000000000000000000000000000081526004018080602001828103825260238152602001806142b36023913960400191505060405180910390fd5b6004548211156114ba576040517f08c379a00000000000000000000000000000000000000000000000000000000081526004018080602001828103825260138152602001807f4f7264657220646f65736e27742065786973740000000000000000000000000081525060200191505060405180910390fd5b600460058111156114c757fe5b6009600084815260200190815260200160002060060160009054906101000a900460ff1660058111156114f657fe5b141561156a576040517f08c379a00000000000000000000000000000000000000000000000000000000081526004018080602001828103825260198152602001807f4f7264657220697320616c72656164792072656365697665640000000000000081525060200191505060405180910390fd5b60056009600084815260200190815260200160002060060160006101000a81548160ff0219169083600581111561159d57fe5b0217905550600960006004548152602001908152602001600020600960008481526020019081526020016000206000820154816000015560018201816001019080546115ea9291906141aa565b50600282015481600201556003820154816003015560048201548160040155600582015481600501556006820160009054906101000a900460ff168160060160006101000a81548160ff0219169083600581111561164457fe5b02179055506006820160019054906101000a900460ff168160060160016101000a81548160ff0219169083600181111561167a57fe5b02179055509050507f58d97c9a7f506d49829d9f53a5aad430cff9d6ea208dddd9a7cf01ef5eccbc40826009600085815260200190815260200160002060060160009054906101000a900460ff16604051808381526020018260058111156116de57fe5b60ff1681526020019250505060405180910390a160019050919050565b600080600a60003373ffffffffffffffffffffffffffffffffffffffff1673ffffffffffffffffffffffffffffffffffffffff1681526020019081526020016000205411611794576040517f08c379a000000000000000000000000000000000000000000000000000000000815260040180806020018281038252602181526020018061426f6021913960400191505060405180910390fd5b6000600a60003373ffffffffffffffffffffffffffffffffffffffff1673ffffffffffffffffffffffffffffffffffffffff16815260200190815260200160002054905080600960008581526020019081526020016000206003015414611863576040517f08c379a000000000000000000000000000000000000000000000000000000000815260040180806020018281038252600e8152602001807f4e6f7420796f7572206f7264657200000000000000000000000000000000000081525060200191505060405180910390fd5b6001600581111561187057fe5b6009600085815260200190815260200160002060060160009054906101000a900460ff16600581111561189f57fe5b1415611913576040517f08c379a000000000000000000000000000000000000000000000000000000000815260040180806020018281038252601b8152602001807f416c72656164792061636365707465642074686973206f72646572000000000081525060200191505060405180910390fd5b60016009600085815260200190815260200160002060060160006101000a81548160ff0219169083600581111561194657fe5b02179055507f58d97c9a7f506d49829d9f53a5aad430cff9d6ea208dddd9a7cf01ef5eccbc40836009600086815260200190815260200160002060060160009054906101000a900460ff16604051808381526020018260058111156119a757fe5b60ff1681526020019250505060405180910390a16001915050919050565b600080600090505b6007600084815260200190815260200160002060010180549050811015611a385783600760008581526020019081526020016000206001018281548110611a1057fe5b90600052602060002001541415611a2b576001915050611a3e565b80806001019150506119cd565b60009150505b92915050565b600080600b60003373ffffffffffffffffffffffffffffffffffffffff1673ffffffffffffffffffffffffffffffffffffffff1681526020019081526020016000205411611add576040517f08c379a00000000000000000000000000000000000000000000000000000000081526004018080602001828103825260238152602001806142b36023913960400191505060405180910390fd5b600454821115611b55576040517f08c379a00000000000000000000000000000000000000000000000000000000081526004018080602001828103825260138152602001807f4f7264657220646f65736e27742065786973740000000000000000000000000081525060200191505060405180910390fd5b60026005811115611b6257fe5b6009600084815260200190815260200160002060060160009054906101000a900460ff166005811115611b9157fe5b14611be7576040517f08c379a000000000000000000000000000000000000000000000000000000000815260040180806020018281038252602f8152602001806142f9602f913960400191505060405180910390fd5b60036009600084815260200190815260200160002060060160006101000a81548160ff02191690836005811115611c1a57fe5b021790555060006009600084815260200190815260200160002060060160016101000a81548160ff02191690836001811115611c5257fe5b021790555060096000600454815260200190815260200160002060096000848152602001908152602001600020600082015481600001556001820181600101908054611c9f9291906141aa565b50600282015481600201556003820154816003015560048201548160040155600582015481600501556006820160009054906101000a900460ff168160060160006101000a81548160ff02191690836005811115611cf957fe5b02179055506006820160019054906101000a900460ff168160060160016101000a81548160ff02191690836001811115611d2f57fe5b02179055509050507f58d97c9a7f506d49829d9f53a5aad430cff9d6ea208dddd9a7cf01ef5eccbc40826009600085815260200190815260200160002060060160009054906101000a900460ff1660405180838152602001826005811115611d9357fe5b60ff1681526020019250505060405180910390a17f5b88ca144f1d4b33cbdd6e83ce1eb3c5ea8efc0c2a83ff3a6423827a579e9ba2826009600085815260200190815260200160002060060160019054906101000a900460ff1660405180838152602001826001811115611e0357fe5b60ff1681526020019250505060405180910390a160019050919050565b600080600b60003373ffffffffffffffffffffffffffffffffffffffff1673ffffffffffffffffffffffffffffffffffffffff1681526020019081526020016000205411611eb9576040517f08c379a00000000000000000000000000000000000000000000000000000000081526004018080602001828103825260238152602001806142b36023913960400191505060405180910390fd5b600454821115611f31576040517f08c379a00000000000000000000000000000000000000000000000000000000081526004018080602001828103825260138152602001807f4f7264657220646f65736e27742065786973740000000000000000000000000081525060200191505060405180910390fd5b60026005811115611f3e57fe5b6009600084815260200190815260200160002060060160009054906101000a900460ff166005811115611f6d57fe5b1480611fb2575060036005811115611f8157fe5b6009600084815260200190815260200160002060060160009054906101000a900460ff166005811115611fb057fe5b145b612007576040517f08c379a000000000000000000000000000000000000000000000000000000000815260040180806020018281038252602f8152602001806142f9602f913960400191505060405180910390fd5b60046009600084815260200190815260200160002060060160006101000a81548160ff0219169083600581111561203a57fe5b021790555060006009600084815260200190815260200160002060060160016101000a81548160ff0219169083600181111561207257fe5b0217905550600960006004548152602001908152602001600020600960008481526020019081526020016000206000820154816000015560018201816001019080546120bf9291906141aa565b50600282015481600201556003820154816003015560048201548160040155600582015481600501556006820160009054906101000a900460ff168160060160006101000a81548160ff0219169083600581111561211957fe5b02179055506006820160019054906101000a900460ff168160060160016101000a81548160ff0219169083600181111561214f57fe5b02179055509050507f58d97c9a7f506d49829d9f53a5aad430cff9d6ea208dddd9a7cf01ef5eccbc40826009600085815260200190815260200160002060060160009054906101000a900460ff16604051808381526020018260058111156121b357fe5b60ff1681526020019250505060405180910390a17f5b88ca144f1d4b33cbdd6e83ce1eb3c5ea8efc0c2a83ff3a6423827a579e9ba2826009600085815260200190815260200160002060060160019054906101000a900460ff166040518083815260200182600181111561222357fe5b60ff1681526020019250505060405180910390a160019050919050565b600080600c60003373ffffffffffffffffffffffffffffffffffffffff1673ffffffffffffffffffffffffffffffffffffffff16815260200190815260200160002054116122d9576040517f08c379a00000000000000000000000000000000000000000000000000000000081526004018080602001828103825260238152602001806142d66023913960400191505060405180910390fd5b600254821115612351576040517f08c379a00000000000000000000000000000000000000000000000000000000081526004018080602001828103825260148152602001807f53656c6c657220646f65736e277420657869737400000000000000000000000081525060200191505060405180910390fd5b600060066000600c60003373ffffffffffffffffffffffffffffffffffffffff1673ffffffffffffffffffffffffffffffffffffffff168152602001908152602001600020548152602001908152602001600020600101541461241c576040517f08c379a00000000000000000000000000000000000000000000000000000000081526004018080602001828103825260138152602001807f416c726561647920676976656e206f726465720000000000000000000000000081525060200191505060405180910390fd5b6001151561242a84846119c5565b15151461249f576040517f08c379a00000000000000000000000000000000000000000000000000000000081526004018080602001828103825260128152602001807f4974656d20646f65736e2774206578697374000000000000000000000000000081525060200191505060405180910390fd5b600460008154809291906001019190505550600060096000600454815260200190815260200160002090506004548160000181905550604051806020016040528085815250816001019060016124f69291906141fc565b5060005460405180602001604052808681525050600102816002018190555060008160060160006101000a81548160ff0219169083600581111561253657fe5b0217905550828160030181905550600c60003373ffffffffffffffffffffffffffffffffffffffff1673ffffffffffffffffffffffffffffffffffffffff16815260200190815260200160002054816005018190555060018160060160016101000a81548160ff021916908360018111156125ad57fe5b0217905550806000015460066000600c60003373ffffffffffffffffffffffffffffffffffffffff1673ffffffffffffffffffffffffffffffffffffffff168152602001908152602001600020548152602001908152602001600020600101819055507f58d97c9a7f506d49829d9f53a5aad430cff9d6ea208dddd9a7cf01ef5eccbc4081600001548260060160009054906101000a900460ff166040518083815260200182600581111561265e57fe5b60ff1681526020019250505060405180910390a1600191505092915050565b600080600c60003373ffffffffffffffffffffffffffffffffffffffff1673ffffffffffffffffffffffffffffffffffffffff1681526020019081526020016000205411612716576040517f08c379a00000000000000000000000000000000000000000000000000000000081526004018080602001828103825260238152602001806142d66023913960400191505060405180910390fd5b600060066000600c60003373ffffffffffffffffffffffffffffffffffffffff1673ffffffffffffffffffffffffffffffffffffffff1681526020019081526020016000205481526020019081526020016000206001015414156127e2576040517f08c379a00000000000000000000000000000000000000000000000000000000081526004018080602001828103825260208152602001807f596f7520646f6e2774206861766520616e7920616374697665206f726465727381525060200191505060405180910390fd5b60045482111561285a576040517f08c379a00000000000000000000000000000000000000000000000000000000081526004018080602001828103825260138152602001807f4f7264657220646f65736e27742065786973740000000000000000000000000081525060200191505060405180910390fd5b6003600581111561286757fe5b6009600084815260200190815260200160002060060160009054906101000a900460ff16600581111561289657fe5b14612909576040517f08c379a000000000000000000000000000000000000000000000000000000000815260040180806020018281038252601d8152602001807f4f72646572206973206e6f74206f757420666f722064656c697665727900000081525060200191505060405180910390fd5b600c60003373ffffffffffffffffffffffffffffffffffffffff1673ffffffffffffffffffffffffffffffffffffffff168152602001908152602001600020546009600084815260200190815260200160002060050154146129d3576040517f08c379a00000000000000000000000000000000000000000000000000000000081526004018080602001828103825260198152602001807f596f7520646f6e277420686176652074686973206f726465720000000000000081525060200191505060405180910390fd5b60046009600084815260200190815260200160002060060160006101000a81548160ff02191690836005811115612a0657fe5b021790555060096000600454815260200190815260200160002060096000848152602001908152602001600020600082015481600001556001820181600101908054612a539291906141aa565b50600282015481600201556003820154816003015560048201548160040155600582015481600501556006820160009054906101000a900460ff168160060160006101000a81548160ff02191690836005811115612aad57fe5b02179055506006820160019054906101000a900460ff168160060160016101000a81548160ff02191690836001811115612ae357fe5b02179055509050507f58d97c9a7f506d49829d9f53a5aad430cff9d6ea208dddd9a7cf01ef5eccbc40826009600085815260200190815260200160002060060160009054906101000a900460ff1660405180838152602001826005811115612b4757fe5b60ff1681526020019250505060405180910390a16009600083815260200190815260200160002060060160009054906101000a900460ff169050919050565b600080600c60003373ffffffffffffffffffffffffffffffffffffffff1673ffffffffffffffffffffffffffffffffffffffff1681526020019081526020016000205411612c1f576040517f08c379a00000000000000000000000000000000000000000000000000000000081526004018080602001828103825260238152602001806142d66023913960400191505060405180910390fd5b600060066000600c60003373ffffffffffffffffffffffffffffffffffffffff1673ffffffffffffffffffffffffffffffffffffffff168152602001908152602001600020548152602001908152602001600020600101541415612ceb576040517f08c379a00000000000000000000000000000000000000000000000000000000081526004018080602001828103825260208152602001807f596f7520646f6e2774206861766520616e7920616374697665206f726465727381525060200191505060405180910390fd5b600454821115612d63576040517f08c379a00000000000000000000000000000000000000000000000000000000081526004018080602001828103825260138152602001807f4f7264657220646f65736e27742065786973740000000000000000000000000081525060200191505060405180910390fd5b600c60003373ffffffffffffffffffffffffffffffffffffffff1673ffffffffffffffffffffffffffffffffffffffff16815260200190815260200160002054600960008481526020019081526020016000206005015414612e2d576040517f08c379a00000000000000000000000000000000000000000000000000000000081526004018080602001828103825260198152602001807f596f7520646f6e277420686176652074686973206f726465720000000000000081525060200191505060405180910390fd5b60046005811115612e3a57fe5b6009600084815260200190815260200160002060060160009054906101000a900460ff166005811115612e6957fe5b1415612edd576040517f08c379a00000000000000000000000000000000000000000000000000000000081526004018080602001828103825260198152602001807f4f7264657220697320616c72656164792072656365697665640000000000000081525060200191505060405180910390fd5b600580811115612ee957fe5b6009600084815260200190815260200160002060060160009054906101000a900460ff166005811115612f1857fe5b1415612f6f576040517f08c379a00000000000000000000000000000000000000000000000000000000081526004018080602001828103825260238152602001806142906023913960400191505060405180910390fd5b60056009600084815260200190815260200160002060060160006101000a81548160ff02191690836005811115612fa257fe5b021790555060096000600454815260200190815260200160002060096000848152602001908152602001600020600082015481600001556001820181600101908054612fef9291906141aa565b50600282015481600201556003820154816003015560048201548160040155600582015481600501556006820160009054906101000a900460ff168160060160006101000a81548160ff0219169083600581111561304957fe5b02179055506006820160019054906101000a900460ff168160060160016101000a81548160ff0219169083600181111561307f57fe5b02179055509050507f58d97c9a7f506d49829d9f53a5aad430cff9d6ea208dddd9a7cf01ef5eccbc40826009600085815260200190815260200160002060060160009054906101000a900460ff16604051808381526020018260058111156130e357fe5b60ff1681526020019250505060405180910390a16009600083815260200190815260200160002060060160009054906101000a900460ff169050919050565b600080600b60003373ffffffffffffffffffffffffffffffffffffffff1673ffffffffffffffffffffffffffffffffffffffff16815260200190815260200160002054146131d8576040517f08c379a000000000000000000000000000000000000000000000000000000000815260040180806020018281038252601b8152602001807f536869706d656e7420616c72656164792072656769737465726564000000000081525060200191505060405180910390fd5b6001600081548092919060010191905055506000600860006001548152602001908152602001600020905060015481600001819055508060086000836000015481526020019081526020016000206000820154816000015560018201548160010155600282015481600201559050508060000154600b60003373ffffffffffffffffffffffffffffffffffffffff1673ffffffffffffffffffffffffffffffffffffffff16815260200190815260200160002081905550600191505090565b6000806000600b60003373ffffffffffffffffffffffffffffffffffffffff1673ffffffffffffffffffffffffffffffffffffffff1681526020019081526020016000205411613332576040517f08c379a00000000000000000000000000000000000000000000000000000000081526004018080602001828103825260238152602001806142b36023913960400191505060405180910390fd5b6002548311156133aa576040517f08c379a00000000000000000000000000000000000000000000000000000000081526004018080602001828103825260148152602001807f53656c6c657220646f65736e277420657869737400000000000000000000000081525060200191505060405180910390fd5b600454841115613422576040517f08c379a00000000000000000000000000000000000000000000000000000000081526004018080602001828103825260138152602001807f4f7264657220646f65736e27742065786973740000000000000000000000000081525060200191505060405180910390fd5b6009600085815260200190815260200160002060060160009054906101000a900460ff166009600086815260200190815260200160002060060160019054906101000a900460ff16915091509250929050565b600080600b60003373ffffffffffffffffffffffffffffffffffffffff1673ffffffffffffffffffffffffffffffffffffffff168152602001908152602001600020541161350e576040517f08c379a00000000000000000000000000000000000000000000000000000000081526004018080602001828103825260238152602001806142b36023913960400191505060405180910390fd5b600454821115613586576040517f08c379a00000000000000000000000000000000000000000000000000000000081526004018080602001828103825260138152602001807f4f7264657220646f65736e27742065786973740000000000000000000000000081525060200191505060405180910390fd5b6002600581111561359357fe5b6009600084815260200190815260200160002060060160009054906101000a900460ff1660058111156135c257fe5b14806136075750600360058111156135d657fe5b6009600084815260200190815260200160002060060160009054906101000a900460ff16600581111561360557fe5b145b61365c576040517f08c379a000000000000000000000000000000000000000000000000000000000815260040180806020018281038252602f8152602001806142f9602f913960400191505060405180910390fd5b60046009600084815260200190815260200160002060060160006101000a81548160ff0219169083600581111561368f57fe5b0217905550600960006004548152602001908152602001600020600960008481526020019081526020016000206000820154816000015560018201816001019080546136dc9291906141aa565b50600282015481600201556003820154816003015560048201548160040155600582015481600501556006820160009054906101000a900460ff168160060160006101000a81548160ff0219169083600581111561373657fe5b02179055506006820160019054906101000a900460ff168160060160016101000a81548160ff0219169083600181111561376c57fe5b02179055509050507f58d97c9a7f506d49829d9f53a5aad430cff9d6ea208dddd9a7cf01ef5eccbc40826009600085815260200190815260200160002060060160009054906101000a900460ff16604051808381526020018260058111156137d057fe5b60ff1681526020019250505060405180910390a160019050919050565b6000806000600c60003373ffffffffffffffffffffffffffffffffffffffff1673ffffffffffffffffffffffffffffffffffffffff1681526020019081526020016000205411613888576040517f08c379a00000000000000000000000000000000000000000000000000000000081526004018080602001828103825260238152602001806142d66023913960400191505060405180910390fd5b600060066000600c60003373ffffffffffffffffffffffffffffffffffffffff1673ffffffffffffffffffffffffffffffffffffffff168152602001908152602001600020548152602001908152602001600020600101541415613954576040517f08c379a00000000000000000000000000000000000000000000000000000000081526004018080602001828103825260208152602001807f596f7520646f6e2774206861766520616e7920616374697665206f726465727381525060200191505060405180910390fd5b6002548311156139cc576040517f08c379a00000000000000000000000000000000000000000000000000000000081526004018080602001828103825260148152602001807f53656c6c657220646f65736e277420657869737400000000000000000000000081525060200191505060405180910390fd5b600454841115613a44576040517f08c379a00000000000000000000000000000000000000000000000000000000081526004018080602001828103825260138152602001807f4f7264657220646f65736e27742065786973740000000000000000000000000081525060200191505060405180910390fd5b6009600085815260200190815260200160002060060160009054906101000a900460ff166009600086815260200190815260200160002060060160019054906101000a900460ff16915091509250929050565b600080600b60003373ffffffffffffffffffffffffffffffffffffffff1673ffffffffffffffffffffffffffffffffffffffff1681526020019081526020016000205411613b30576040517f08c379a00000000000000000000000000000000000000000000000000000000081526004018080602001828103825260238152602001806142b36023913960400191505060405180910390fd5b600454821115613ba8576040517f08c379a00000000000000000000000000000000000000000000000000000000081526004018080602001828103825260138152602001807f4f7264657220646f65736e27742065786973740000000000000000000000000081525060200191505060405180910390fd5b60026005811115613bb557fe5b6009600084815260200190815260200160002060060160009054906101000a900460ff166005811115613be457fe5b14613c3a576040517f08c379a000000000000000000000000000000000000000000000000000000000815260040180806020018281038252602f8152602001806142f9602f913960400191505060405180910390fd5b60036009600084815260200190815260200160002060060160006101000a81548160ff02191690836005811115613c6d57fe5b021790555060096000600454815260200190815260200160002060096000848152602001908152602001600020600082015481600001556001820181600101908054613cba9291906141aa565b50600282015481600201556003820154816003015560048201548160040155600582015481600501556006820160009054906101000a900460ff168160060160006101000a81548160ff02191690836005811115613d1457fe5b02179055506006820160019054906101000a900460ff168160060160016101000a81548160ff02191690836001811115613d4a57fe5b02179055509050507f58d97c9a7f506d49829d9f53a5aad430cff9d6ea208dddd9a7cf01ef5eccbc40826009600085815260200190815260200160002060060160009054906101000a900460ff1660405180838152602001826005811115613dae57fe5b60ff1681526020019250505060405180910390a160019050919050565b600080600a60003373ffffffffffffffffffffffffffffffffffffffff1673ffffffffffffffffffffffffffffffffffffffff1681526020019081526020016000205414613e81576040517f08c379a00000000000000000000000000000000000000000000000000000000081526004018080602001828103825260198152602001807f53656c6c657220616c726561647920726567697374657265640000000000000081525060200191505060405180910390fd5b60026000815480929190600101919050555060006007600060025481526020019081526020016000209050600254816000018190555080600101600190806001815401808255809150509060018203906000526020600020016000909192909190915055508060010160029080600181540180825580915050906001820390600052602060002001600090919290919091505550806001016003908060018154018082558091505090600182039060005260206000200160009091929091909150555080600101600490806001815401808255809150509060018203906000526020600020016000909192909190915055508060010160059080600181540180825580915050906001820390600052602060002001600090919290919091505550806007600083600001548152602001908152602001600020600082015481600001556001820181600101908054613fda9291906141aa565b509050508060000154600a60003373ffffffffffffffffffffffffffffffffffffffff1673ffffffffffffffffffffffffffffffffffffffff16815260200190815260200160002081905550600191505090565b600080600c60003373ffffffffffffffffffffffffffffffffffffffff1673ffffffffffffffffffffffffffffffffffffffff1681526020019081526020016000205490506000811461408457809150506141a7565b600b60003373ffffffffffffffffffffffffffffffffffffffff1673ffffffffffffffffffffffffffffffffffffffff168152602001908152602001600020549050600081146140d757809150506141a7565b600a60003373ffffffffffffffffffffffffffffffffffffffff1673ffffffffffffffffffffffffffffffffffffffff1681526020019081526020016000205490506000811461412a57809150506141a7565b60008114156141a1576040517f08c379a00000000000000000000000000000000000000000000000000000000081526004018080602001828103825260158152602001807f596f75206172656e27742072656769737465726564000000000000000000000081525060200191505060405180910390fd5b60009150505b90565b8280548282559060005260206000209081019282156141eb5760005260206000209182015b828111156141ea5782548255916001019190600101906141cf565b5b5090506141f89190614249565b5090565b828054828255906000526020600020908101928215614238579160200282015b8281111561423757825182559160200191906001019061421c565b5b5090506142459190614249565b5090565b61426b91905b8082111561426757600081600090555060010161424f565b5090565b9056fe596f75206172656e2774207265676973746572656420617320612073656c6c6572596f75206861766520616c72656164792063616e63656c2074686973206f7264657221596f75206172656e27742072656769737465726564206173206120736869706d656e74596f75206172656e27742072656769737465726564206173206120637573746f6d65724f72646572206973206e6f74206f6e2074686520776179206f72206e6f74206f757420666f722064656c6976657279a265627a7a723158206fcc7f3587521bce95f8f9fa425818182ebad5c046823c15acb8a1b6b71ce6a964736f6c63430005100032",
  "source": "pragma solidity ^0.5.0;\r\n\r\ncontract DecentralizedShipment {\r\n    uint product_cost = 5;\r\n    uint shipment_count = 0;\r\n    uint seller_count = 0;\r\n    uint customer_count = 0;\r\n    uint order_count = 0;\r\n    uint time_limit = 5;\r\n    \r\n  \r\n     // Order status enum that will be used in our system in order to know the status of the order.\r\n    enum OrderStatus {\r\n        ordered,\r\n        preparing,  // Order is being prepared.\r\n        ontheway,   //  Order is on the way.\r\n        outfordelivery, // Order is out for delivery.\r\n        received,   //  Order is received.\r\n        cancelled   //  Order is cancelled by user.\r\n    }\r\n    enum ProductStatus{\r\n        damaged,\r\n        not_damaged\r\n    }\r\n    \r\n    // Order struct which contains order details that will be used in our system in order to create order.\r\n    struct Order{\r\n        uint id;                    //This is the ID of the order and it's unique.\r\n        uint[] products;           //This is the array of products that will be ordered.\r\n        uint price;                 //This is the total price of the order.\r\n        uint seller;                //This is the seller of the order.\r\n        uint shipment;              // This is the shipment of the order.    \r\n        uint customer;              //This is the customer of the order.\r\n        OrderStatus status;     //This is the status of the order.\r\n        ProductStatus pStatus;           //This represents the order being damaged or not.\r\n    }\r\n \r\n\r\n    struct Customer {\r\n        uint id;\r\n        uint cur_order;\r\n        uint last_order;\r\n    }\r\n    \r\n    struct Seller {\r\n        uint id;\r\n        uint[] product_list;\r\n    }\r\n    \r\n    struct Shipment {\r\n        uint id;\r\n        uint cur_order;\r\n        uint order_count;\r\n    }\r\n    \r\n    \r\n    \r\n    mapping(uint => Customer) customer_details;\r\n    mapping(uint => Seller) seller_details;\r\n    mapping(uint => Shipment) shipment_details;\r\n    mapping(uint => Order) order_details;\r\n    \r\n    mapping(address => uint) get_seller_id;\r\n    mapping(address => uint ) get_shipment_id;\r\n    mapping(address => uint) get_customer_id;\r\n    \r\n    \r\n    /* ---------------EVENTS----------------- */\r\n    \r\n    event order_status_update(uint order_id, OrderStatus status);\r\n    event order_damaged_update(uint order_id, ProductStatus pStatus);\r\n    \r\n    /* ---------------MODIFIERS-------------- */\r\n    \r\n    modifier is_customer() {\r\n        require(get_customer_id[msg.sender] > 0, \"You aren't registered as a customer\");\r\n        _;\r\n    }\r\n    \r\n    modifier is_shipment() {\r\n        require(get_shipment_id[msg.sender] > 0, \"You aren't registered as a shipment\");\r\n        _;\r\n    }\r\n    \r\n    modifier is_seller() {\r\n        require(get_seller_id[msg.sender] > 0, \"You aren't registered as a seller\");\r\n        _;\r\n    }\r\n    \r\n    modifier has_ordered() {\r\n        require(customer_details[get_customer_id[msg.sender]].cur_order != 0, \"You don't have any active orders\");\r\n        _;\r\n    }\r\n    \r\n    /* ---------------UTILITY FUNCTIONS------ */\r\n    \r\n \r\n    function product_exists(uint item, uint seller_id) \r\n    public view returns(bool) {\r\n        uint i;\r\n        for (i = 0; i < seller_details[seller_id].product_list.length; i++) {\r\n\r\n            \r\n            if (seller_details[seller_id].product_list[i] == item) {\r\n                \r\n                return true;\r\n            }\r\n        }\r\n        return false;\r\n    }\r\n    \r\n    function get_id() public view returns(uint) {\r\n        uint id;\r\n        id = get_customer_id[msg.sender];\r\n        if (id != 0)\r\n            return id;\r\n            \r\n        id = get_shipment_id[msg.sender];\r\n        if (id != 0)\r\n            return id;\r\n            \r\n        id = get_seller_id[msg.sender];\r\n        if (id != 0)\r\n            return id;\r\n            \r\n        require(id != 0, \"You aren't registered\");\r\n        return 0;\r\n    }\r\n    \r\n\r\n\r\n    /* ---------------CUSTOMER--------------- */\r\n    function register_customer() public returns(bool) {\r\n        \r\n        require(get_customer_id[msg.sender] == 0, \"Customer already registered\");\r\n        customer_count++;\r\n        Customer storage customer = customer_details[customer_count];\r\n        customer.id = customer_count;\r\n        customer.cur_order = 0;\r\n        customer_details[customer.id] = customer;\r\n        get_customer_id[msg.sender] = customer.id;\r\n        return true;\r\n    }\r\n    \r\n    function give_order(uint product_id, uint seller_id) is_customer() public payable returns(bool) {\r\n        require(seller_id <= seller_count, \"Seller doesn't exist\");\r\n        require(customer_details[get_customer_id[msg.sender]].cur_order == 0, \"Already given order\");\r\n        require(product_exists(product_id, seller_id) == true, \"Item doesn't exist\");\r\n        \r\n\r\n        order_count++;\r\n        Order storage o = order_details[order_count];\r\n        o.id = order_count;\r\n        o.products = [product_id];\r\n        o.price = [product_id].length * product_cost;\r\n        o.status = OrderStatus.ordered;\r\n        o.seller = seller_id;\r\n        o.customer = get_customer_id[msg.sender];\r\n        o.pStatus = ProductStatus.not_damaged;\r\n        \r\n        customer_details[get_customer_id[msg.sender]].cur_order = o.id;\r\n        emit order_status_update(o.id, o.status);\r\n        return true;\r\n    }\r\n    function check_order_status_customer(uint order_id, uint seller_id) is_customer()  has_ordered() public view returns(OrderStatus,ProductStatus) {\r\n        require(seller_id <= seller_count, \"Seller doesn't exist\");\r\n        require(order_id <= order_count, \"Order doesn't exist\");\r\n    \r\n        /*if(order_details[order_id].status == OrderStatus.ordered && order_details[order_id].pStatus == ProductStatus.damaged) {\r\n            return (0,1);\r\n        }else if(order_details[order_id].status == OrderStatus.ordered && order_details[order_id].pStatus == ProductStatus.not_damaged) {\r\n             return (0,0);\r\n        }else if(order_details[order_id].status == OrderStatus.preparing && order_details[order_id].pStatus == ProductStatus.damaged) {\r\n            return (1,1);\r\n        }else if(order_details[order_id].status == OrderStatus.preparing && order_details[order_id].pStatus == ProductStatus.not_damaged) {\r\n             return (1,0);\r\n        }else if(order_details[order_id].status == OrderStatus.ontheway && order_details[order_id].pStatus == ProductStatus.damaged) {\r\n             return (2,1);\r\n        }else if(order_details[order_id].status == OrderStatus.ontheway && order_details[order_id].pStatus == ProductStatus.not_damaged) {\r\n             return (2,0);\r\n        }else if(order_details[order_id].status == OrderStatus.outfordelivery && order_details[order_id].pStatus == ProductStatus.damaged) {\r\n             return (3,1);\r\n        }else if(order_details[order_id].status == OrderStatus.outfordelivery && order_details[order_id].pStatus == ProductStatus.not_damaged) {\r\n             return (3,0);\r\n        }else if(order_details[order_id].status == OrderStatus.received && order_details[order_id].pStatus == ProductStatus.damaged) {\r\n             return (4,1);\r\n        }else if(order_details[order_id].status == OrderStatus.received && order_details[order_id].pStatus == ProductStatus.damaged){\r\n            return (4,0);\r\n        }else if(order_details[order_id].status == OrderStatus.cancelled && order_details[order_id].pStatus == ProductStatus.damaged) {\r\n             return (5,1);\r\n        }else {\r\n            return (5,0);\r\n        }*/\r\n        return (order_details[order_id].status,order_details[order_id].pStatus);\r\n    }\r\n    function cancel_order(uint order_id) is_customer() has_ordered() public returns(OrderStatus) {\r\n        require(order_id <= order_count, \"Order doesn't exist\");\r\n        require(order_details[order_id].customer == get_customer_id[msg.sender], \"You don't have this order\");\r\n        require(order_details[order_id].status != OrderStatus.received, \"Order is already received\");\r\n        require(order_details[order_id].status != OrderStatus.cancelled, \"You have already cancel this order!\");\r\n        order_details[order_id].status = OrderStatus.cancelled;\r\n        order_details[order_id] = order_details[order_count];\r\n        emit order_status_update(order_id, order_details[order_id].status);\r\n        return order_details[order_id].status ;\r\n    }\r\n\r\n    function receive_order(uint order_id) is_customer() has_ordered() public returns(OrderStatus)  {\r\n        require(order_id <= order_count, \"Order doesn't exist\");\r\n        require(order_details[order_id].status == OrderStatus.outfordelivery, \"Order is not out for delivery\");\r\n        require(order_details[order_id].customer == get_customer_id[msg.sender], \"You don't have this order\");\r\n        order_details[order_id].status = OrderStatus.received;\r\n        order_details[order_id] = order_details[order_count];\r\n        emit order_status_update(order_id, order_details[order_id].status);\r\n        return order_details[order_id].status;\r\n    }\r\n\r\n    /* ---------------SELLER--------------- */\r\n\r\n    function register_seller() public returns(bool) {\r\n        require(get_seller_id[msg.sender] == 0, \"Seller already registered\");\r\n\r\n        seller_count++;\r\n        Seller storage seller = seller_details[seller_count];\r\n        seller.id = seller_count;\r\n        seller.product_list.push(1);\r\n        seller.product_list.push(2);\r\n        seller.product_list.push(3);\r\n        seller.product_list.push(4);\r\n        seller.product_list.push(5);\r\n        seller_details[seller.id] = seller;\r\n        get_seller_id[msg.sender] = seller.id;\r\n        return true;\r\n    }\r\n    function receive_and_prepare_the_order(uint order_id) is_seller() public returns(bool) {\r\n        uint seller_id = get_seller_id[msg.sender];\r\n        require(order_details[order_id].seller == seller_id, \"Not your order\");\r\n        require(order_details[order_id].status != OrderStatus.preparing, \"Already accepted this order\");\r\n        order_details[order_id].status = OrderStatus.preparing;\r\n        emit order_status_update(order_id, order_details[order_id].status);\r\n        return true;\r\n    }\r\n\r\n    function transfer_order_to_shipment(uint order_id) is_seller() public payable returns(OrderStatus) {\r\n        require(order_id <= order_count, \"Order doesn't exist\");\r\n        require(order_details[order_id].status == OrderStatus.preparing, \"Order is not prepared\");\r\n        order_details[order_id].status = OrderStatus.ontheway;\r\n        return order_details[order_id].status;\r\n    }\r\n\r\n    function check_order_status_seller(uint order_id, uint seller_id) is_seller()  public view returns(OrderStatus, ProductStatus) {\r\n        require(seller_id <= seller_count, \"Seller doesn't exist\");\r\n        require(order_id <= order_count, \"Order doesn't exist\");\r\n    \r\n        /*if(order_details[order_id].status == OrderStatus.ordered && order_details[order_id].pStatus == ProductStatus.damaged) {\r\n            return (0,1);\r\n        }else if(order_details[order_id].status == OrderStatus.ordered && order_details[order_id].pStatus == ProductStatus.not_damaged) {\r\n             return (0,0);\r\n        }else if(order_details[order_id].status == OrderStatus.preparing && order_details[order_id].pStatus == ProductStatus.damaged) {\r\n            return (1,1);\r\n        }else if(order_details[order_id].status == OrderStatus.preparing && order_details[order_id].pStatus == ProductStatus.not_damaged) {\r\n             return (1,0);\r\n        }else if(order_details[order_id].status == OrderStatus.ontheway && order_details[order_id].pStatus == ProductStatus.damaged) {\r\n             return (2,1);\r\n        }else if(order_details[order_id].status == OrderStatus.ontheway && order_details[order_id].pStatus == ProductStatus.not_damaged) {\r\n             return (2,0);\r\n        }else if(order_details[order_id].status == OrderStatus.outfordelivery && order_details[order_id].pStatus == ProductStatus.damaged) {\r\n             return (3,1);\r\n        }else if(order_details[order_id].status == OrderStatus.outfordelivery && order_details[order_id].pStatus == ProductStatus.not_damaged) {\r\n             return (3,0);\r\n        }else if(order_details[order_id].status == OrderStatus.received && order_details[order_id].pStatus == ProductStatus.damaged) {\r\n             return (4,1);\r\n        }else if(order_details[order_id].status == OrderStatus.received && order_details[order_id].pStatus == ProductStatus.damaged){\r\n            return (4,0);\r\n        }else if(order_details[order_id].status == OrderStatus.cancelled && order_details[order_id].pStatus == ProductStatus.damaged) {\r\n             return (5,1);\r\n        }else {\r\n            return (5,0);\r\n        }*/\r\n        return (order_details[order_id].status,order_details[order_id].pStatus);\r\n        \r\n    }\r\n\r\n    /* ---------------SHIPMENT--------------- */\r\n    \r\n    function register_shipment() public returns(bool) {\r\n        require(get_shipment_id[msg.sender] == 0, \"Shipment already registered\");\r\n        shipment_count++;\r\n        Shipment storage shipment = shipment_details[shipment_count];\r\n        shipment.id = shipment_count;\r\n        shipment_details[shipment.id] = shipment;\r\n        get_shipment_id[msg.sender] = shipment.id;\r\n        return true;\r\n    }\r\n     \r\n    function receive_and_ship_the_order(uint order_id) is_shipment() public returns(bool) {\r\n        uint shipment_id = get_shipment_id[msg.sender];\r\n        require(shipment_details[shipment_id].cur_order == 0, \"Already delivering another order\");\r\n        order_details[order_id].status = OrderStatus.ontheway;\r\n        order_details[order_id].shipment = get_shipment_id[msg.sender];\r\n        shipment_details[shipment_id].cur_order = order_id;\r\n        emit order_status_update(order_id, order_details[order_id].status);\r\n        return true;\r\n    }\r\n    function update_status_to_ofd_and_damaged(uint order_id ) is_shipment() public returns(bool) {\r\n        require(order_id <= order_count, \"Order doesn't exist\");\r\n        require(order_details[order_id].status == OrderStatus.ontheway, \"Order is not on the way or not out for delivery\");\r\n        order_details[order_id].status = OrderStatus.outfordelivery;\r\n        order_details[order_id].pStatus = ProductStatus.damaged;\r\n        order_details[order_id] = order_details[order_count];\r\n        emit order_status_update(order_id, order_details[order_id].status);\r\n        emit order_damaged_update(order_id, order_details[order_id].pStatus);\r\n        return true;\r\n    }\r\n    function update_status_to_ofd_and_not_damaged(uint order_id) is_shipment() public returns(bool) {\r\n        require(order_id <= order_count, \"Order doesn't exist\");\r\n        require(order_details[order_id].status == OrderStatus.ontheway, \"Order is not on the way or not out for delivery\");\r\n        order_details[order_id].status = OrderStatus.outfordelivery;\r\n        order_details[order_id] = order_details[order_count];\r\n        emit order_status_update(order_id, order_details[order_id].status);\r\n        \r\n        return true;\r\n    }\r\n    function update_status_to_received_and_damaged(uint order_id ) is_shipment() public returns(bool) {\r\n        require(order_id <= order_count, \"Order doesn't exist\");\r\n        require(order_details[order_id].status == OrderStatus.ontheway ||order_details[order_id].status == OrderStatus.outfordelivery , \"Order is not on the way or not out for delivery\");\r\n        order_details[order_id].status = OrderStatus.received;\r\n        order_details[order_id].pStatus = ProductStatus.damaged;\r\n        order_details[order_id] = order_details[order_count];\r\n        emit order_status_update(order_id, order_details[order_id].status);\r\n        emit order_damaged_update(order_id, order_details[order_id].pStatus);\r\n        return true;\r\n    }\r\n    function update_status_to_received_and_not_damaged(uint order_id ) is_shipment() public returns(bool) {\r\n        require(order_id <= order_count, \"Order doesn't exist\");\r\n        require(order_details[order_id].status == OrderStatus.ontheway ||order_details[order_id].status == OrderStatus.outfordelivery , \"Order is not on the way or not out for delivery\");\r\n        order_details[order_id].status = OrderStatus.received;\r\n        order_details[order_id] = order_details[order_count];\r\n        emit order_status_update(order_id, order_details[order_id].status);\r\n        return true;\r\n    }\r\n    function update_status_to_cancelled_and_damaged(uint order_id ) is_shipment() public returns(bool) {\r\n        require(order_id <= order_count, \"Order doesn't exist\");\r\n        require(order_details[order_id].status != OrderStatus.received, \"Order is already received\");\r\n        order_details[order_id].status = OrderStatus.cancelled;\r\n        order_details[order_id].pStatus = ProductStatus.damaged;\r\n        order_details[order_id] = order_details[order_count];\r\n        emit order_status_update(order_id, order_details[order_id].status);\r\n        emit order_damaged_update(order_id, order_details[order_id].pStatus);\r\n        return true;\r\n    }\r\n    function update_status_to_cancelled_and_not_damaged(uint order_id ) is_shipment() public returns(bool) {\r\n        require(order_id <= order_count, \"Order doesn't exist\");\r\n       require(order_details[order_id].status != OrderStatus.received, \"Order is already received\");\r\n        order_details[order_id].status = OrderStatus.cancelled;\r\n        order_details[order_id] = order_details[order_count];\r\n        emit order_status_update(order_id, order_details[order_id].status);\r\n        return true;\r\n    }\r\n   function check_order_status_shipment(uint order_id, uint seller_id) is_shipment()  public view returns(OrderStatus,ProductStatus) {\r\n        require(seller_id <= seller_count, \"Seller doesn't exist\");\r\n        require(order_id <= order_count, \"Order doesn't exist\");\r\n    \r\n        /*if(order_details[order_id].status == OrderStatus.ordered && order_details[order_id].pStatus == ProductStatus.damaged) {\r\n            return (0,1);\r\n        }else if(order_details[order_id].status == OrderStatus.ordered && order_details[order_id].pStatus == ProductStatus.not_damaged) {\r\n             return (0,0);\r\n        }else if(order_details[order_id].status == OrderStatus.preparing && order_details[order_id].pStatus == ProductStatus.damaged) {\r\n            return (1,1);\r\n        }else if(order_details[order_id].status == OrderStatus.preparing && order_details[order_id].pStatus == ProductStatus.not_damaged) {\r\n             return (1,0);\r\n        }else if(order_details[order_id].status == OrderStatus.ontheway && order_details[order_id].pStatus == ProductStatus.damaged) {\r\n             return (2,1);\r\n        }else if(order_details[order_id].status == OrderStatus.ontheway && order_details[order_id].pStatus == ProductStatus.not_damaged) {\r\n             return (2,0);\r\n        }else if(order_details[order_id].status == OrderStatus.outfordelivery && order_details[order_id].pStatus == ProductStatus.damaged) {\r\n             return (3,1);\r\n        }else if(order_details[order_id].status == OrderStatus.outfordelivery && order_details[order_id].pStatus == ProductStatus.not_damaged) {\r\n             return (3,0);\r\n        }else if(order_details[order_id].status == OrderStatus.received && order_details[order_id].pStatus == ProductStatus.damaged) {\r\n             return (4,1);\r\n        }else if(order_details[order_id].status == OrderStatus.received && order_details[order_id].pStatus == ProductStatus.damaged){\r\n            return (4,0);\r\n        }else if(order_details[order_id].status == OrderStatus.cancelled && order_details[order_id].pStatus == ProductStatus.damaged) {\r\n             return (5,1);\r\n        }else {\r\n            return (5,0);\r\n        }*/\r\n        return (order_details[order_id].status,order_details[order_id].pStatus);\r\n    }\r\n\r\n  \r\n    \r\n}",
  "sourcePath": "D:\\Formal\\1. Courses\\a. Decentralized Shipment\\Decentralized_Shipment\\contracts\\DecentralizedShipment.sol",
  "compiler": {
    "name": "solc",
    "version": "0.5.16+commit.9c3226ce.Emscripten.clang"
  },
  "schemaVersion": "3.4.4",
  "updatedAt": "2022-06-03T20:40:13.283Z",
  "networkType": "ethereum",
  "devdoc": {
    "methods": {}
  },
  "userdoc": {
    "methods": {}
  }
}